:020000040800F2
:10000000B8690020F1010008EB4000083D3100080C
:10001000E940000869080008554C0008000000008D
:100020000000000000000000000000004143000844
:100030003309000800000000ED40000843430008B9
:100040000B0200080B0200080B0200080B0200085C
:100050000B0200080B0200080B0200080B0200084C
:100060000B0200080B020008350900086D080008A3
:1000700079080008850800080B0200080B02000838
:100080000B020008000000000B0200080B02000831
:100090000B0200080B0200080B0200080B0200080C
:1000A0000B020008BD4300080B0200080B02000809
:1000B0000B0200080B0200080B0200080B020008EC
:1000C0000B0200080B0200080B0200080B020008DC
:1000D0000B020008354C00080B0200080B02000858
:1000E0000B0200080B0200080B0200080B020008BC
:1000F0000B0200080B0200080B02000800000000C1
:10010000000000000B020008000000000B020008C5
:100110000B020008000000000B0200080B020008A0
:100120000B0200080B0200080B0200080B0200087B
:100130000B02000800000000000000000B02000895
:100140000B0200080B020008000000000000000085
:10015000000000000000000000000000000000009F
:100160000000000000000000000000000B0200087A
:100170000B0200080000000000000000000000006A
:10018000000000000B02000800000000000000005A
:10019000000000000000000000000000000000005F
:1001A00000000000000000000B0200080B02000825
:1001B0000B0200080B0200080B0200080000000000
:1001C000000000000B02000800000000000000001A
:1001D0000B0200080B020008DFF810D000F032FB21
:1001E00000480047556D0008AFF30080B869002053
:1001F0000648804706480047FEE7FEE7FEE7FEE7C1
:10020000FEE7FEE7FEE7FEE7FEE7FEE7AD43000898
:10021000D90100082DE9F05F0546002092469B4673
:1002200088460646814640241BE02846414647460C
:10023000224600F0AEF953465A46C01A914110D3F7
:1002400011461846224600F095F92D1A67EB010871
:100250004F4622460120002100F08CF917EB0009DF
:100260004E41201EA4F10104DFDC484631462A46F7
:100270004346BDE8F09F40EA01039B0703D009E035
:1002800008C9121F08C0042AFAD203E011F8013B82
:1002900000F8013B521EF9D27047D2B201E000F8DB
:1002A000012B491EFBD270470022F6E710B513461A
:1002B0000A4604461946FFF7F0FF204610BD2DE917
:1002C000FE4F804681EA0300C00F0C46009021F0EB
:1002D000004123F00045B8EB0200A94105D2404699
:1002E000214690461C460B46024623F00040104330
:1002F00047D0270DC7F30A00C3F30A510290401AF2
:10030000019040286BDAC3F3130040F4801B00987F
:10031000924620B10023D2EB030A63EB0B0B01984A
:100320005946C0F14002504600F024F906460D46F9
:1003300050465946019A00F03CF910EB0800614123
:10034000002487EA115284EAE7731A4340D0009AE6
:1003500062B3019A012A4FEA075215DC001B61EBD8
:1003600002014FF0004202EA0752CDE90042001CB0
:1003700041F5801132462B4600F073F903B0BDE819
:10038000F08F40462146F9E7001B61EB0201001C9B
:1003900041F5801300185B412018A2F5001747EBC8
:1003A000030140EAD570B6196D4111E06D084FEABE
:1003B000360645EAC0754FEA0752001B61EB0201A1
:1003C000001C41F5801149084FEA300000195141E5
:1003D00032462B4603B0BDE8F04F00F033B9009829
:1003E000012240000023D0EB020263EBE07300988F
:1003F00021464FEAE074B8EB000061EB0401E9E745
:1004000083F000435BE781F0004158E72DE9F04DB0
:1004100081EA030404F0004B21F0004514464FF03C
:10042000000A23F0004150EA050220D054EA0102FC
:100430001DD0C5F30A570246C5F31303C1F31300D9
:10044000C1F30A5640F4801543F48013A7EB060865
:10045000101BD64608F2FD3873EB050002D308F1F5
:10046000010801E092185B41B8F1000F03DA0020A7
:100470000146BDE8F08D00204FF480110646844609
:100480000EE0171B73EB050705D3121B63EB050387
:1004900006434CEA010C49084FEA300092185B41D0
:1004A00050EA0107EDD152EA030012D082EA0400BB
:1004B00083EA0501084305D0101BAB4106D2012297
:1004C000002306E000224FF0004302E06FF001023B
:1004D00053101AEB06004CEB085110EB0A0041EBED
:1004E0000B01BDE8F04D00F0ADB800F0004230F077
:1004F00000400AD0C10D01F56071C0F3160042EA58
:100500000151C2084007114370470020014670475F
:1005100001F0004330B421F0004150EA010206D05E
:100520000A0DA2F56072C1F31301002A02DC30BC8F
:1005300000207047440F44EAC104C100E01830BCF9
:1005400000EBC25000F047B830B50B460146002022
:100550002022012409E021FA02F59D4205D303FA85
:1005600002F5491B04FA02F52844151EA2F1010206
:10057000F1DC30BD202A04DB203A00FA02F1002031
:1005800070479140C2F1200320FA03F319439040D1
:100590007047202A04DB203A21FA02F0002170473C
:1005A00021FA02F3D040C2F12002914008431946DB
:1005B0007047202A06DBCB17203A41FA02F043EAC3
:1005C000E07306E041FA02F3D040C2F1200291400C
:1005D0000843194670470029A8BF7047401C4900CE
:1005E00008BF20F00100704710B4B0FA80FC00FA98
:1005F0000CF050EA010404BF10BC704749B1CCF1C3
:10060000200421FA04F411FA0CF118BF012121434E
:100610000843A3EB0C01CB1D4FEA00614FEA102009
:1006200042BF002010BC704700EBC35010440029AB
:10063000A4BF10BC7047401C490008BF20F0010057
:1006400010BC704710B5141E73F1000408DA401C8A
:1006500041F1000192185B411A4301D120F00100E1
:1006600010BD2DE9F04D92469B4611B1B1FA81F2D1
:1006700002E0B0FA80F220329046FFF77BFF04469A
:100680000F4640EA0A0041EA0B0153465A46084326
:1006900013D0114653EA010019D0C8F14002504668
:1006A000FFF777FF05460E46504659464246FFF78C
:1006B00061FF084305D0012004E020463946BDE82B
:1006C000F08D0020054346EAE0762C4337430A9834
:1006D0006305E40AA0EB08000022FD0A44EA47543F
:1006E0000A3002D500200146E9E7010510196941E9
:1006F000DDE9084500196941BDE8F04DA2E72DE9A3
:10070000FE4F81EA030404F0004421F0004100940C
:100710004FF0000B23F0004350EA01045ED052EA90
:1007200003045BD0C3F30A54C1F30A552C44A4F26A
:10073000F3340194A0FB0254C1F3130141F480117E
:10074000C3F3130343F4801301FB024400FB034E85
:10075000840A970A44EA815447EA8357A4FB07684E
:1007600002958D0A05FB07854FEA932C04FB0C5478
:100770002705029D4FEA065847EA1637B5EB0805EC
:100780006EEB070C870E920E47EA811742EA83123E
:10079000A7FB0201B6EB0B0164EB00042B0D43EA4F
:1007A0000C335E1844EB1C50DA465146E7FB02015D
:1007B000C5F313044FEA0B3343EA14534FEA0432F0
:1007C000019C43EA0603A4F10C040294009CCDE9C9
:1007D00000B4FFF746FF03B0BDE8F08F00200146EC
:1007E000F9E7C1F30A52C1F3130140F2FF3341F4B8
:1007F00080119A4202DA00200146704740F23343EA
:100800009A42A2F2334202DC5242FFF7C2BEFFF725
:10081000B1BE000030B5041E71F1000404DB4FF0DE
:100820000044404264EB0101141E73F1000405DB37
:100830001C464FF00043524263EB0403994208BF49
:10084000904230BD064C074D06E0E06840F00103E1
:1008500094E8070098471034AC42F6D3FFF7C0FC89
:10086000347D0008547D0008FEE70000014800F0D8
:10087000DAB80000A4040020014800F0D4B8000059
:1008800004050020014800F0CEB800009C000020C4
:100890000D4902688A4201D20C4901E00B4920311E
:1008A000D2B21423083AB2FBF3F2436C02F01F02F7
:1008B00023F003031944816404498031C164012198
:1008C00091400165704700000804024000080240A2
:1008D0000179074A02EB81024265054A4432491E0A
:1008E000826501F01F0201219140C165704700003F
:1008F000FC08024030B5D0E913456560446D14B181
:10090000D0E91645656090F8444004F01F050124C5
:10091000AC40056C6C60046863608368102B0368EE
:1009200003D099600068C26030BD9A600068C16001
:1009300030BD7047102000F08DB972B6FEE710B5DB
:1009400090F8252000210123022A03D00421C1634D
:10095000012122E00268146824F00E041460826C05
:10096000146824F4807414600268146824F001048C
:10097000146090F84420046C02F01F0203FA02F2A3
:100980006260D0E913245460426D32B1146824F4DB
:1009900080741460D0E91624546080F82530002259
:1009A00080F82420084610BD70B590F8251000246A
:1009B00001222346022907D00421C16380F82520A3
:1009C00080F82430012429E001680D6825F00E0527
:1009D0000D6001680D6825F001050D60816C0D68E2
:1009E00025F480750D6090F84410154601F01F0144
:1009F0008A40016C4A60D0E913124A60416D31B1FE
:100A00000A6822F480720A60D0E916124A6080F8FF
:100A1000255080F82430816B01B18847204670BD95
:100A200090F825007047F0B4016C0B6801680A6803
:100A300090F84440042504F01F0405FA04F61E4211
:100A400011D056070FD50A68920603D40A6822F01F
:100A500004020A6090F8441001F01F018D40016CFF
:100A60004D60016B1DE0022606FA04F71F424FF0AD
:100A7000000C4FF0010518D0970716D50A689206AA
:100A800005D40A6822F00A020A6080F8255090F81E
:100A9000441001F01F018E40016C4E6080F824C0AC
:100AA000C16A00291AD0F0BC08470826A6401E4299
:100AB00014D0120712D50A6822F00E020A6090F8CC
:100AC0004410026C01F01F0105FA01F15160C56389
:100AD00080F8255080F824C0416BE2E7F0BC7047F5
:100AE00070B504000CD02B4A20681421904209D222
:100AF000294A0244B2FBF1F18900616427490AE006
:100B0000012070BD234A52420244B2FBF1F1890038
:100B10006164204908392164022184F825100168A4
:100B200047F6F0729143D4E902231A43D4E904351D
:100B30002B431A43A3691A43E3691A43236A1A43EE
:100B40000A4302602046FFF7A3FEA0680025B0F527
:100B5000804F00D16560A16C20790860D4E9130151
:100B600041606068401E032808D82046FFF7B0FEA9
:100B7000606D0560D4E91601416002E06565A56518
:100B8000E565E563012084F8250084F82450002001
:100B900070BD000008040240F8FFFDBF00000240E5
:100BA00070B5044690F82400002501280CD00120DF
:100BB00084F8240094F825600020012E06D084F8E3
:100BC00024000225284670BD022070BD022684F84C
:100BD0002560E0632068066826F00106066020466E
:100BE000FFF788FE206B00282068016802D041F0E2
:100BF0000E0106E021F0040101602068016841F067
:100C00000A010160A06C0168C90303D5016841F4C1
:100C100080710160606D18B1016841F480710160FC
:100C20002068016841F001010160CBE710280BD179
:100C3000064890F85600012806D1054890F856005D
:100C4000012801D102F012BE704700009807002071
:100C5000F0070020044910B50A68024202D008607B
:100C6000FFF7E4FF10BD0000140401402DE9F84F28
:100C7000DFF888910022A9F1040B03274FF00F0C35
:100C800009F1040AABF1040EB1E0012595402B40B7
:100C900073D00C7904F00304012C01D0022C15D17F
:100CA0008668540007FA04F826EA0806D1F80C8092
:100CB00008FA04F848EA0608C0F808804468AC431B
:100CC0000D79C5F300159540254345600C79E44343
:100CD000A40708D0C568540007FA04F6B5438E6827
:100CE000A6402E43C6600C7904F00304022C11D1F7
:100CF000D40800EB8406356A5407E40E0CFA04F8B5
:100D000025EA0805D1F8108008FA04F848EA050831
:100D1000C6F820800568540007FA04F6B5430E793A
:100D200006F00306A6402E4306604C6814F4403FCC
:100D30005CD0334C256E45F001052566246E22F00B
:100D4000030504F0010400942E4C05EB0408D8F8C8
:100D500008509407260F0CFA06F4A543B0F1904F03
:100D600004D0294CA04203D1012417E0002415E04F
:100D7000264CA04202D1022410E037E0244CA042CD
:100D800001D103240AE0234CA04201D1042405E050
:100D9000214CA04201D1052400E00624B4402C439C
:100DA000C8F80840D9F800404D464E689C43F6020A
:100DB00000D51C432C60DAF8004055464E689C4331
:100DC000B60200D51C432C60DBF800405D464E683F
:100DD0009C43B60300D51C432C60DEF800407546EA
:100DE0004E689C43F60300D51C432C60521C0B68D4
:100DF00033FA02F47FF449AFBDE8F88F08040140EC
:100E000000100240000001400004004800080048B3
:100E1000000C00480010004800140048426921EA14
:100E200002030A4043EA0241816170470AB18161CD
:100E30007047816270470000014880687047000079
:100E40001000002090F84120202A24D190F8402062
:100E5000012A20D0012280F84020242280F841205D
:100E60000268136823F0010313600268136823F417
:100E700080531360026813680B43136001680A68AB
:100E800042F001020A60202180F84110002180F820
:100E90004010084670470220704790F84120202AF1
:100EA00022D190F84020012A1ED0012280F8402053
:100EB000242280F841200268136823F001031360A4
:100EC0000268136823F4706343EA0121116001682A
:100ED0000A6842F001020A60202180F841100021D6
:100EE00080F840100846704702207047074908B54F
:100EF0000A6E42F001020A66096E01F001010091DA
:100F000003494A6802434A6008BD000000100240DD
:100F10000000014070B5040004D094F841000025A1
:100F200010B106E0012070BD84F84050204600F06A
:100F300087F9242084F841002068016821F001012C
:100F400001606068216820F0706008612068816835
:100F500021F400418160E0680128A06830D040F4AD
:100F6000044021688860E0680228206841682AD02F
:100F700021F40061416020684168144A11434160D6
:100F80002068C16821F40041C160D4E9040108432C
:100F9000A16940EA01202168C860D4E9070108433B
:100FA000216808602068016841F001010160656402
:100FB000202084F84100256384F84250002070BD51
:100FC00040F40040CDE741F40061D3E70080000227
:100FD0002DE9F84F044690F84100DDF828A01F469F
:100FE00090468B4620287ED194F8400001287AD084
:100FF000012084F84000FFF71FFF06460122009001
:101000001923D103204602F047F9E0BB222084F8DF
:101010004100102084F8420000256564C4F8248053
:1010200067856563618D3148FF274FF080784FF009
:101030000079FF2903D927853A46009039E0618D70
:10104000218500903AE05946204602F00DF913E060
:1010500002F060F9B8B92068406A616A0870606A95
:10106000401C6062208D401E80B22085618D491E2B
:101070006185618D01B168B1608D324600285146AD
:101080002046E5D100E002E002F098F9D0B101205D
:10109000BDE8F88F5346002280212046009602F0DA
:1010A000FBF80028F3D1608DFF2804D927853A4644
:1010B00000954346C7E7608D2085009594F8282069
:1010C0004B46C0E720682021C16120684268084B78
:1010D0001A40426084F8411084F8425084F840502D
:1010E0000020D5E7FFE70220D2E7000000240080BF
:1010F00000E800FE2DE9FF4F81B0044690F8410062
:10110000DDF838B01F46904620287AD194F8400088
:10111000012876D0012084F84000FFF78DFE0646B6
:10112000012200901923D103204602F0B5F80028CF
:1011300052D1212084F84100102084F8420000257B
:101140006564C4F8248067856563608D3A49FF272C
:101150004FF080794FF0007AFF2802D927854B465F
:1011600005E0608D208500045346000C10D02268F5
:1011700098F800009062606A401C6062608D401EBA
:101180006085208D401E2085401CC2B2009101E088
:10119000002200912046029902F066F813E002F066
:1011A00038F9C8B9606A216800788862606A401CB2
:1011B0006062608D401E6085208D401E80B220855B
:1011C000618D01B160B1608D3246002859462046DC
:1011D000E5D102F0F3F8E0B1012005B0BDE8F08FF1
:1011E0005B46002280212046009602F055F8002838
:1011F000F2D1608DFF2805D927853A464B460095E8
:10120000C8E716E0608D2085009594F828205346A5
:10121000C0E720682021C16120684268074B1A405E
:10122000426084F8411084F8425084F84050002015
:10123000D3E70220D1E700000020008000E800FE94
:101240002DE9F04198B00546142111A8FFF72CF8BC
:1012500044216846FFF728F82249286888423ED191
:101260004FF0800800266846CDF80080079600F011
:101270003DF908B1FFF761FB1B4CE06C40F0010049
:10128000E064E06C122700F0010016904FF440700B
:10129000CDE911070120139003201490042015902C
:1012A00011A9B806FFF7E2FCA06D40F48000A0652C
:1012B000A06D0F4C00F4800016900C482060C4E92B
:1012C0000176C4E903686661A661E661204626628C
:1012D000FFF706FC08B1FFF730FBEC63A56218B01E
:1012E000BDE8F0810058004000100240300002408C
:1012F0009C00002002488168426811448160704768
:101300001000002010B50024032000F077F807201B
:1013100000F008F808B1012401E000F025F82046AB
:1013200010BD000070B50E4E05460024706898B1DF
:101330004FF47A71B1FBF0F00A490968B1FBF0F0A3
:1013400001F0DFF840B9102D06D200222946501EC8
:1013500000F034F8356000E00124204670BD000044
:10136000100000201C0000200C4808B5016E41F060
:1013700001010166016E01F001010091816D41F0F2
:1013800080518165806D00F080500090042000F055
:1013900035F8BDE8084000F0A1B800000010024098
:1013A000002809DB00F01F02012191404009800064
:1013B00000F1E020C0F8001170470000F0B40E4BBF
:1013C0001B68C3F30223C3F10704042C00D90424CF
:1013D0001D1D072D01D2002300E0DB1E012606FAA9
:1013E00004F56D1E0D409D409E40761E164045EA58
:1013F0000601F0BC03F06DBC0CED00E0064A00F005
:10140000070110684FF6FF03184040EA0120034926
:1014100008431060704700000CED00E00000FA0582
:101420002B492C4B0A6832214A432B4940B1B0F575
:10143000007F086829D020F4C06040F480602CE070
:101440000868C0F34120022804D051F8800F20F42E
:10145000807022E0D1F8800020F48070C1F8800014
:10146000086820F4C06040F400700860B2FBF3F03C
:10147000401C00E0401E4A69520501D50028F9D100
:10148000486940050AD503207047C0F3412002286F
:1014900006D051F8800F40F480700860002070473B
:1014A000D1F8800040F48070C1F88000086820F412
:1014B000C06040F400700860B2FBF3F0401C00E034
:1014C000401E4A695205DBD50028F9D1D8E7000053
:1014D0001C00002040420F0000700040024881685C
:1014E00041F4804181607047007000402DE9F84F61
:1014F000044600260068A24D374600035CD5A86D5F
:101500004FF00009C00009D4A86D40F08050A865D4
:10151000A86D4FF0010900F080500090DFF864A240
:10152000DAF8001041F48071CAF80010FFF784FC6B
:10153000804607E0FFF780FCA0EB0800022801D9F5
:10154000032631E0DAF80000C005F3D566BBD5F814
:10155000900010F4407014D0216C814211D0D5F865
:101560009000D5F8901020F4407041F48031C5F817
:101570009010D5F8901021F48031C5F89010C5F87E
:101580009000C0074ED0FFF757FC804641F2883AE2
:1015900005E0FFF751FCA0EB08015145D0D8D5F884
:1015A00090008007F5D5EEB33746B9F1000F03D0B0
:1015B000A86D20F08050A8652078C00707D0D5F826
:1015C0008800616820F003000843C5F8880020788F
:1015D000800707D5D5F88800A16820F00C000843E3
:1015E000C5F888002078400707D5D5F88800E1685D
:1015F00020F030000843C5F888002078000707D5A0
:10160000D5F88800216920F0C0000843C5F888009B
:101610002078800609D5D5F88800616920F44060FB
:10162000084300E03DE0C5F888002078400607D573
:10163000D5F88800A16920F440500843C5F8880017
:101640002078000607D5D5F88800E16920F44040ED
:101650000843C5F888002088C00507D5D5F888005C
:10166000216A20F440300843C5F8880020888005AE
:1016700007D5D5F88800616A20F440200843C5F8F2
:1016800088002088400519D5D5F88800A16A20F483
:1016900040100843C5F88800A06AB0F5801F09D043
:1016A0000CE0D5F89000216C20F440700843C5F898
:1016B00090007AE7E86840F48010E8602088000530
:1016C0000FD5D5F88800E16A20F440000843C5F83A
:1016D0008800E06AB0F5800F03D1E86840F480101C
:1016E000E8602088C0040FD5D5F88800216B20F071
:1016F00040700843C5F88800206BB0F1807F03D1AB
:10170000E86840F48010E860208881044FF00060B1
:101710000ED5D5F88810626B21F040611143C5F8F1
:101720008810616B814203D1E96841F48011E9605E
:10173000218849040ED5D5F88810A26B21F04061AC
:101740001143C5F88810A16B814203D1E86840F4C9
:101750008010E860208800040FD5D5F88800E16B80
:1017600020F040500843C5F88800E06BB0F1805F7E
:1017700003D1E86840F48030E8603846BDE8F88F6F
:1017800000100240007000402DE9F0470D460400B3
:101790004FF0000725D0DFF8A091D9F8000000F045
:1017A0000F00A8420CD2D9F8001021F00F012943F4
:1017B000C9F80010D9F8000000F00F00A84210D1BD
:1017C00021685E4EC80741F2883A52D06068DFF85F
:1017D0007081032808D00228306826D040050028F0
:1017E00025DB0120BDE8F08730688001F9D5F0687D
:1017F000F068544BC0F30310401CB3FBF0F0F268E8
:10180000C2F306225043F268C2F34162521C5200F6
:10181000B0FBF2F0404515D9B06810F0F00F0AD0D7
:1018200088070FD5A06830B10CE08003D7E700F03F
:10183000B5F8404506D9B06820F0F00040F08000CF
:10184000B0608027B068616820F003000843B06092
:10185000FFF7F2FA804605E0FFF7EEFAA0EB080189
:1018600051453BD8B068616800F00C00B0EB810FC7
:10187000F2D12068810714D5400703D5B06840F441
:10188000E060B0602078000705D5B06820F46050B3
:1018900040F4E060B060B068A16820F0F000084358
:1018A00004E0802F03D1B06820F0F000B060D9F8D8
:1018B0000010484601F00F01A94217D90168C84637
:1018C00021F00F0129430160FFF7B6FA0746D14620
:1018D00006E0FFF7B1FAC11B494501D9032081E7B2
:1018E000D8F8000000F00F00A842F2D1207840079D
:1018F00005D5B068E16820F4E0600843B060207866
:10190000000706D5B068216920F4605040EAC100A4
:10191000B06000F043F8B1680B4AC1F30311515CA9
:1019200001F01F01C8400949086009480068BDE886
:10193000F047FFF7F7BC0000002002400010024013
:1019400000B4C4040024F400687C00081C000020DB
:10195000100000200548064900688968054AC1F35F
:101960000221515C01F01F01C84070471C0000209B
:1019700000100240787C0008054806490068896824
:10198000054AC1F3C221515C01F01F01C8407047F4
:101990001C00002000100240787C0008134A906868
:1019A000C0F38101124801290AD09168C1F3810175
:1019B000022905D09168C1F38101032901D00020DB
:1019C0007047D16801F00303D168C1F30311491CCA
:1019D000B0FBF1F0D168C1F306214843D168C1F3EF
:1019E0004161491C4900B0FBF1F070470010024012
:1019F0000024F4002DE9F843040078D02078F54D58
:101A0000C00745D0A868E96800F00C0001F00301A8
:101A10000C2802D0082817D001E0032914D06068F0
:101A2000B0F5803F17D0B0F5A02F286817D020F46C
:101A300080302860286820F4802028606068D8B151
:101A4000FFF7FAF9064613E02868800320D560689E
:101A50000028D2D01CE0286840F48030EDE740F444
:101A600080202860F7E7FFF7E7F9801B64286ED82D
:101A700028688003F7D50BE0FFF7DEF9064604E09F
:101A8000FFF7DAF9801B6428F1D828688003F7D4BF
:101A9000207880074BD5A868E96800F00C0001F0B9
:101AA00003010C2802D004280DD001E002290AD03D
:101AB000E068002828682BD040F480702860FFF789
:101AC000BBF9064619E02868400502D5E068002801
:101AD00093D06868217C20F0FE4040EA0160686095
:101AE000BD480068FFF71EFC002800D11FE06DE133
:101AF000FFF7A2F9801B0228B9D828684005F7D55E
:101B00006868217C20F0FE4040EA016068600EE0D9
:101B100020F480702860FFF78FF9064604E0FFF795
:101B20008BF9801B0228A2D828684005F7D42078BA
:101B3000000728D560690028D5F8940012D040F03D
:101B40000100C5F89400FFF777F9064605E08FE03D
:101B5000FFF772F9801B022889D8D5F89400800716
:101B6000F6D510E020F00100C5F89400FFF764F905
:101B7000064604E0FFF760F9801B022878D8D5F804
:101B800094008007F6D42078400761D5A86D00271F
:101B9000C00008D4A86D40F08050A865A86D01274A
:101BA00000F0805000908D480168C90511D401688B
:101BB000804641F480710160FFF73EF9064604E07B
:101BC000FFF73AF9801B022852D8D8F80000C00568
:101BD000F6D5A068012815D00528D5F8900016D0B4
:101BE00020F00100C5F89000D5F8900020F0040026
:101BF000C5F89000A06841F28838B8B1FFF71CF929
:101C000006460EE0D5F8900040F00100F0E740F005
:101C10000400C5F89000F5E7FFF70EF9811B414578
:101C200026D8D5F890008007F6D50CE0FFF704F928
:101C3000064604E0FFF700F9811B414518D8D5F8A6
:101C400090008007F6D41FB1A86D20F08050A865E1
:101C50002078800628D5A0690028D5F8980012D0F1
:101C600040F00100C5F89800FFF7E6F8064605E0E9
:101C700072E0FFF7E1F8801B02286DD8D5F89800D4
:101C80008007F6D510E020F00100C5F89800FFF7B6
:101C9000D3F8064604E0FFF7CFF8801B02285BD894
:101CA000D5F898008007F6D4E069E8B3A968C1F3D5
:101CB000810103295BD00228286820F08070286009
:101CC00003D0FFF7B9F8044649E0FFF7B5F8064638
:101CD00004E0FFF7B1F8801B02283DD82868800196
:101CE000F7D4F4E908016FF00F0202EB0111084389
:101CF000218A5204490802EB4151A26841EA0221BB
:101D00000843217D4FF07E42490802EB41610843C0
:101D1000217B40EAC160E968314A11400843E8602C
:101D2000286840F0807000E052E02860E86840F0E9
:101D30008070E860FFF780F8044604E0FFF77CF865
:101D4000001B022808D828688001F7D540E0FFF77B
:101D500073F8001B022802D90320BDE8F883286825
:101D60008001F4D4E8681F490840E86030E00128A9
:101D7000F3D0E868226A00F00301914226D1616A3B
:101D800000F0F0020901103991421FD1A26A00F45B
:101D9000FE41B1EB022F19D194F82C2000F07841CC
:101DA000B1EBC26F12D1218E00F4C002490849057F
:101DB000A1F50011914209D194F8341000F0C060EF
:101DC00049084906A1F10071814201D00120C4E710
:101DD0000020C2E700100240100000200070004008
:101DE0000C809F01FCFFEEFE70B5040009D0606A14
:101DF000002540B125616561A56294F85D0040B1A0
:101E00000CE0012070BD6068B0F5827FF4D0E56120
:101E1000F2E784F85C50204600F05CF8022084F879
:101E20005D002068016821F040010160E0684FF426
:101E3000E062904201D9002101E04FF48051B0F5F9
:101E4000706F02D0904200D0A562A088228900F471
:101E5000827002F404421043227C02F0020210431A
:101E6000227D02F001021043228B02F40072104323
:101E7000227F02F03802104394F8202002F0800202
:101E80001043228D02F40052104322681060A069B2
:101E9000042202EA104094F8242001F4805102F058
:101EA0001002104394F8342002F008021043A28973
:101EB00002F4706210430843216848602068C169D9
:101EC00021F40061C1612566012084F85D000020D5
:101ED00070BD000010B586B0044614216846FEF7B8
:101EE000E3F92168204C002220480223A1421AD1A4
:101EF000016E41F480510166016E01F4805105913B
:101F0000C16C41F00101C164C06C694600F0010080
:101F10000590E0200090CDE901320520CDE90320B5
:101F20004FF090401CE0124CA1421BD1816D41F456
:101F300000418165816D01F400410591C16C41F062
:101F40000201C164C06C694600F0020005903820AF
:101F5000CDE900030320CDE90220062004900548C6
:101F6000FEF784FE06B010BD0030014000100240B4
:101F7000003C0040000400482DE9F84F044690F86A
:101F80005D0088461D461746012842D1B8F1000F72
:101F900076D0002F74D060684FF00409B0F5827FCE
:101FA00001D1A06850B3FEF747FF064694F85C00E5
:101FB00001282ED04FF0010A84F85CA084F85D90CF
:101FC0004FF00009C4F86090C4F84080A4F8447051
:101FD000A4F84670C4F83890A4F83C90A4F83E9059
:101FE000C4F84C90C4F85090E0684FF4E061884227
:101FF000206842680FD922F480520EE084F85D9088
:102000000093134642461146204600F03AF9BDE8D7
:10201000F88F0220FBE742F480524260A068B0F5DE
:10202000004F09D12068026822F040020260206857
:10203000026822F48042026020680268520603D4DB
:10204000026842F040020260E06888421AD937E034
:1020500020688168C9070BD0007B216C0870206C58
:10206000401C2064B4F84600401EA4F8460009E075
:10207000FEF7E2FE801BA84203D3681C02D035E0C5
:1020800031E095B3B4F846000028E1D11CE02068A7
:102090008168C9070BD0C068216C0880206C801C47
:1020A0002064B4F84600401EA4F8460008E0FEF79D
:1020B000C3FE801BA84202D3681C01D016E0A5B164
:1020C000B4F846000028E2D132462946204602F004
:1020D0000EF808B12020206684F85DA084F85C909A
:1020E000206E002893D0012091E7FFE784F85DA0DF
:1020F00084F85C9003208AE72DE9F84F1D461746C7
:102100008A460446FEF798FE064694F85D000128CC
:1021100026D1BAF1000F6FD0002F6DD094F85C007B
:1021200001281DD04FF0010984F85C90032084F849
:102130005D004FF00008C4F86080C4F838A0A7879D
:10214000E787C4F84080A4F84480A4F84680C4F827
:102150005080C4F84C80A068B0F5004F03D00CE06C
:102160000220BDE8F88F2068016821F0400101607D
:102170002068016841F480410160206801684906D7
:1021800003D4016841F040010160E068B0F5E06F00
:10219000606822D908B1012F1BD1A06B216800888B
:1021A000C86006E020688168890709D5A16B0988A5
:1021B000C160A06B801CA063E08F401EE08708E038
:1021C000FEF73AFE801BA84202D3681C01D045E00E
:1021D000A5B3E08F0028E5D135E008B1012F2FD15C
:1021E000E08F0128A06B03D921680088C86010E047
:1021F00021680078087314E041E0E08720E020685F
:102200008168890713D5E18F0129A16B07D9098856
:10221000C160A06B801CA063E08F801EEDE7097891
:102220000173A06B401CA063E08F401EE5E7FEF742
:1022300003FE801BA84202D3681C01D00EE06DB1E2
:10224000E08F0028DBD132462946204601F089FF85
:1022500008B120202066A06830B109E084F85D90C4
:1022600084F85C8003207CE72068C1688068009067
:1022700084F85D9084F85C80206E0028F3D0012003
:102280006FE72DE9FF5F1F469346044601250E9E2A
:10229000FEF7D2FD804694F85D006168012806D003
:1022A000B1F5827F39D1A168B1BB042835D101983D
:1022B00000287DD0BBF1000FFBD0002FF9D094F89F
:1022C0005C00012829D04FF0010A84F85CA094F842
:1022D0005D00042802D0052084F85D004FF000095D
:1022E000C4F86090C4F840B0A4F84670A4F84470F4
:1022F0000199A163E787A787C4F84C90C4F8509070
:10230000E0684FF4E061884201D8012F09D92068C4
:10231000426822F4805208E0FFE7022004B0BDE8E2
:10232000F09F2068426842F4805242602068026850
:10233000520603D4026842F040020260E06888421C
:10234000606844D908B1012F39D1A06B2168008899
:10235000C860A06B801CA063E08F401EE0872EE069
:102360002068816889070DD5E18F59B1012D09D108
:10237000A16B0988C160A06B801CA063E08F401E28
:10238000E087002520688168C9070ED0B4F84610A0
:1023900059B1C068216C0880206C801C2064B4F89E
:1023A0004600401EA4F846000125FEF745FD00E06A
:1023B00099E0A0EB0800B04201D3701C72D1E08F0D
:1023C0000028CDD1B4F846000028C9D173E008B187
:1023D000012F69D1E08F0128A06B08D921680088FE
:1023E000C860A06B801CA063E08F801E07E021689E
:1023F00000780873A06B401CA063E08F401EE0874C
:1024000052E020688168890718D5E18FB1B1012DAC
:1024100014D1E18F0129A16B07D90988C160A06B94
:10242000801CA063E08F801E06E009780173A06B1A
:10243000401CA063E08F401EE08700252068816873
:10244000C90727D0B4F8461021B3B4F846100129C3
:1024500014D9C068216C0880206C801C2064B4F8FA
:102460004600801EA4F84600B4F84600012810D8A3
:102470002068416841F4805141600AE0007B216C92
:102480000870206C401C2064B4F84600401EA4F87C
:1024900046000125FEF7D0FCA0EB0800B04202D3B5
:1024A000701C01D012E08EB1E08F0028A9D1B4F8E1
:1024B00046000028A5D142463146204601F051FE93
:1024C00050B12020206684F85C900CE084F85DA078
:1024D00084F85C90032021E784F85DA084F85C9088
:1024E000206E0028F7D0012018E74FF0E0210428E3
:1024F000086903D020F004000861704740F0040030
:10250000FAE710B5401EB0F1807F01D3012010BD65
:102510004FF0E02460610F21601702F0DAFB002029
:10252000A06107202061002010BD704770477047F0
:102530007047704770470000F0B590F83C20012AC2
:102540003AD0012580F83C50022280F83D200368F3
:102550005A689C68194E1A4FB34201D0BB4204D14D
:1025600022F4700C4A6842EA0C02DFF858C002EA12
:102570000C02D1F800C04CEA020CC3F804C0026897
:10258000B2420DD0B2F1804F0AD00F4B9A4207D021
:102590000E4B9A4204D0BA4202D00D4B9A4204D15B
:1025A000896824F080031943916080F83D50002130
:1025B00080F83C100846F0BD0220F0BD002C014020
:1025C000003401408FFFFFFD000400400008004080
:1025D00000400140704710B5040003D094F83D005E
:1025E00010B107E0012010BD002084F83C00204617
:1025F00000F022F8022084F83D00211D206801F03F
:10260000E3FE012084F8480084F83E0084F83F008F
:1026100084F8400084F8410084F8420084F84300C4
:1026200084F8440084F8450084F8460084F84700A4
:1026300084F83D00002010BD08B500680B498842B1
:1026400012D10B48016E41F400610166006E002258
:1026500000F40060009011461920FEF7AFFEBDE8BF
:1026600008401920FEF79CBE08BD0000002C014068
:102670000010024090F83D10012901D00120704760
:10268000022180F83D100168CA6842F00102CA6068
:102690000068104988420ED0B0F1804F0BD00E492F
:1026A000884208D00D49884205D00D49884202D0A1
:1026B0000C49884207D181680B4A1140062906D08F
:1026C000B1F5803F03D0016841F0010101600020B5
:1026D00070470000002C014000040040000800404A
:1026E00000340140004001400700010070B504467D
:1026F00090F83C000025012814D0012684F83C60A5
:10270000022084F83D0020688268364B1A4022F48B
:102710007F428260086870282ED010DC10F00F0F06
:1027200003D021E04FF0020070BD4FEA2012072ACB
:102730001AD2DFE802F0525252524A3840002A4B75
:10274000C21A984249D009DCB0F5805F0DD0B0F5CF
:10275000005F1CD0B0F1101F06D13EE0102A3CD023
:10276000202A3AD0502A38D0012584F83D60002034
:1027700084F83C00284670BDCB68D1E9012120686F
:1027800001F080FE2068816841F0770109E0CB68A4
:10279000D1E90121206801F075FE2068816841F4CB
:1027A00080418160E1E7CA684968206801F07EFEE7
:1027B0005021206806E0CA684968206801F087FE59
:1027C0006021206801F068FECFE7CA684968206888
:1027D00001F06CFE40212068F4E7226801461046B3
:1027E000F0E7000088FFCEFF2000100070472DE9C1
:1027F000F04104460068C66805694FF00007A90764
:1028000013D5B10711D5F91E016101202077206889
:1028100080698007204602D0FFF7E8FF04E000F05F
:10282000B7F8204600F0B5F82777680716D5700787
:1028300014D521686FF00400086102202077206819
:10284000806910F4407F204602D0FFF7CFFF04E0FC
:1028500000F09EF8204600F09CF82777280715D551
:10286000300713D521686FF0080008610420207735
:102870002068C0698007204602D0FFF7B7FF04E058
:1028800000F086F8204600F084F82777E80616D591
:10289000F00614D521686FF0100008610820207739
:1028A0002068C06910F4407F204602D0FFF79EFFE9
:1028B00004E000F06DF8204600F06BF82777E80799
:1028C00008D0F00706D021686FF0010008612046AB
:1028D00000F060F8280601D4A80408D5300606D513
:1028E00021686FF4025008612046FFF71FFEE805DB
:1028F00008D5300606D521686FF48070086120463F
:10290000FFF713FE680608D5700606D521686FF03C
:1029100040000861204600F079F8A80608D5B00606
:1029200006D521686FF0200008612046FFF7FFFD03
:10293000E80208D5F00206D521686FF4801008611E
:102940002046FFF7F6FDA80208D5B00206D521689B
:102950006FF4001008612046FFF7EAFD680208D511
:10296000700206D521686FF4800008612046FFF7E9
:10297000E1FD28020AD5300208D521686FF4000075
:1029800008612046BDE8F041FFF724BEBDE8F081B4
:102990007047704770B50068184988422CD19FED88
:1029A000180A00F0D1FF174C174E002520680228A6
:1029B00005D33078022801D104F0FCFE2560606860
:1029C000052805D33078012801D104F0F3FE6560B5
:1029D000A068B0F5FA7F06D34FF400614FF0904045
:1029E000FEF71CFAA5602068401C20606068401C4F
:1029F0006060A068401CA06070BD0000002C014019
:102A00006F12833A000000200C000020704790F8FD
:102A10008410012918D0012180F884102421C0F8E5
:102A2000881001680A680B6823F001030B6022F02C
:102A3000005100224266036819602021C0F8881006
:102A400080F88420104670470220704710B5044675
:102A5000D0F88C00202801D0022010BD51B14AB11D
:102A60000120E06600202067204602F043F80100C4
:102A700002D005E0012010BDE06E012802D0012146
:102A8000084610BD226810201062206850E8002F10
:102A900042F0100240E80023002BF6D1F0E70000DE
:102AA00010B500680A49884210D10A480068406899
:102AB0004042C4B207482146C03004F041FE2146DE
:102AC0000448BDE81040C030FDF7EEBB10BD00006B
:102AD00000380140A4040020704770B5044690F807
:102AE000840001281DD0012084F884002420C4F82B
:102AF000880020680568026822F0010202602068F0
:102B0000826822F060620A438260204601F0F2FC93
:102B1000206805602020C4F88800002084F8840024
:102B200070BD022070BD70B5044690F88400012885
:102B30001DD0012084F884002420C4F88800206877
:102B40000568026822F0010202602068826822F0B3
:102B500060420A438260204601F0CCFC2068056098
:102B60002020C4F88800002084F8840070BD022072
:102B700070BD7047704770472DE9F0410368044607
:102B8000D86919689A6840F60F0528424FF0000589
:102B90004FF002060AD187067ED501F0200702F029
:102BA000805C57EA0C0777D0616F42E1B64FDFF8DF
:102BB000DCC2174001EA0C0C57EA0C0C6CD05FEA3F
:102BC000C07C0CD05FEAC15C09D54FF0010CC3F8A2
:102BD00020C0D4F8903043F00103C4F8903083074C
:102BE00009D5D30707D023681E62D4F8903043F08C
:102BF0000403C4F8903043070AD5D30708D02668E9
:102C000004233362D4F8903043F00203C4F89030C8
:102C100003070CD501F020033B4308D026680823A6
:102C20003362D4F8903043F00803C4F890300305C1
:102C30000BD54B0109D526684FF400633362D4F8F5
:102C4000903043F02003C4F89030D4F89030002B3B
:102C50003DD0800609D501F0200002F080510843E4
:102C600003D0616F09B120468847D4F890002168ED
:102C70008968490602D410F0280F2AD0204601F0B6
:102C8000BFFD2068806840061ED52068083050E8E7
:102C9000001F21F0400100E021E040E80012002A7E
:102CA000F3D1D4F8800078B179498163D4F88000F9
:102CB000FDF77AFE00280AD0D4F88000816B00E08E
:102CC0002046BDE8F04108472046FFF754FFBDE825
:102CD000F0812046FFF74FFFC4F89050F7E7D4F893
:102CE0006CC02027BCF1010F7ED15FEAC06C7BD5A0
:102CF0005FEAC16C78D510201862206880684006B1
:102D000051D5D4F880100A6850680004000C3ED0F9
:102D1000B4F85C3083423AD9A4F85E0008680068D1
:102D200080062CD4206850E8001F21F4807140E810
:102D30000012002AF6D12068083050E8001F21F068
:102D4000010140E80012002AF5D12068083050E85F
:102D5000001F21F0400140E80012002AF5D1C4F81C
:102D60008C70E566206850E8001F21F0100140E8F3
:102D70000012002AF6D1D4F88000FDF7E0FD2667A6
:102D8000B4F85C00B4F85E10401A81B207E0B4F801
:102D90005C1081429BD11068800698D5266720463A
:102DA000FFF77EFE93E7B4F85C00B4F85E10401ABB
:102DB00081B2B4F85E00002889D0002987D020684D
:102DC00050E8002F22F4907240E80023002BF6D147
:102DD0002D4BDB432068083050E8002F1A4040E8B4
:102DE000002CBCF1000F00E00EE0F3D1C4F88C70B1
:102DF000E5666567206850E8002F22F0100240E881
:102E00000023002BF6D1C9E7C60209D5560207D523
:102E10004FF4801018622046BDE8F041FFF7AABECB
:102E200003060AD501F0800302F40002134304D024
:102E3000A16F00297FF444AF49E7420611D54A0645
:102E40000FD52046016851E8002F22F0400241E8EA
:102E50000023002BF6D1C0F88870856700F06CF96C
:102E600035E7020206D54A0004D52046BDE8F04108
:102E7000FFF77FBEC00195D5002993DA2046BDE853
:102E8000F041FFF729BE00000100001020010004FE
:102E9000AD46000810B5040003D0D4F8880010B186
:102EA00007E0012010BD002084F88400204600F0D7
:102EB00027F82420C4F888002068016821F0010167
:102EC0000160A06A10B1204601F036FB204601F0F7
:102ED000D9FC0128E6D02068416821F49041416086
:102EE0002068816821F02A0181602068016841F032
:102EF000010101602046BDE8104001F081BB0000E7
:102F0000F0B597B00446142111A8FDF7CDF944217E
:102F10006846FDF7C9F93249206888425ED1012030
:102F20000026CDE900066846FEF7E0FA08B1FDF795
:102F300004FD2C48016E41F480410166016E01F4EC
:102F400080411691C16C41F00201C164C06C11A9AD
:102F500000F002001690C02011900220CDE9120668
:102F600003201490072015901F48FDF77FFE204D89
:102F70001E48802728601820C5E90106C5E90367B7
:102F80006E61AE61EE6128462E62FDF7A9FD08B1C3
:102F9000FDF7D3FCC4F88050AC62154D1348603582
:102FA000143028601920686005F10801102081E8BC
:102FB000C1006E614002AE61C5E907602846FDF7B9
:102FC0008FFD08B1FDF7B9FCE5670122032125203B
:102FD000AC62FEF7F3F92520FEF7E2F917B0F0BD79
:102FE0000038014000100240000400480800024080
:102FF000A4040020704770472DE9F8430446D0F838
:1030000088001F4615460E46202802D00220BDE843
:10301000F883AEB1A5B10020C4F890002120C4F817
:1030200088001834FDF708FFA5878146E58754F826
:10303000100C183C4FF02008B0F5805F02D003E080
:103040000120E4E7206910B13546002610E0002594
:103050000EE08021204601F0A3FDB8B9D5B115F8E6
:10306000010B21688862B4F85600401EA4F856008F
:10307000B4F856004B464FF0000200970028E8D104
:103080004FF04001204601F08BFD40B1C4F888802C
:103090000320BCE736F8020BC0F30800E1E7C4F8F0
:1030A00088800020B3E7000070B50446D0F888009F
:1030B000202801D0022070BD39B332B32165A4F8B5
:1030C0005420A4F856200021C4F890102120C4F800
:1030D0008800E06FD8B1154BC362E36F14481863E2
:1030E000E36F14485863E06F134681632068E56F0F
:1030F00000F128022846216DFDF752FD38B110205D
:10310000C4F890002020C4F88800012070BD216818
:10311000402008622068083050E8001F41F080011C
:1031200040E80012002AF5D1002070BDB347000826
:10313000F5470008BD46000870477047FEE7016884
:103140008A69D243920701D400228A6200688169A9
:10315000C943C90703D0816941F00101816170470A
:103160002DE9F04704460068884617468169002625
:103170003546C9064FF0200941D51021C1612FE025
:10318000B8F1FF3F2CD0FDF757FEC11B414502D8D7
:10319000B8F1000F24D12068416894F8422001F46E
:1031A00080418369DB431B0415D4B1F5804F12D0F5
:1031B000202A10D0416841F480414160FDF73CFE77
:1031C000074608E0FDF738FEC01B192803D945F073
:1031D0002005012604E020688069C0438006F1D400
:1031E00020688069C043800602D5002EC8D003E065
:1031F00016B92168C1F81C9045F004050126216824
:103200008869C20505D54FF4807245F00105CA6191
:103210000126410506D522684FF4806145F0080576
:10322000D1610126800507D521684FF4007045F073
:103230000205C861012600E086B12046FFF77FFF46
:1032400054F8240B4168074A11404160206A284322
:10325000206284F81D900020A07720773046BDE8DA
:10326000F087000000E800FE10B5C1F3090141EA53
:1032700002410068029C19432143426821F0004149
:103280004FF4806303EA5453024C23439A430A43A6
:10329000426010BDFF63FF032DE9F0411D46174654
:1032A0000E460446DDF8188027E0424629462046AF
:1032B000FFF756FF10B10120BDE8F081681C1CD05B
:1032C000FDF7BAFDA0EB0800A84200D8ADB9206810
:1032D000806936EA00000ED00020B8420DD154F8C3
:1032E000440F40F0200044F80409202060700020C2
:1032F000A0702070DFE70120EFE72068806936EAE0
:10330000000004D00020B842CFD00020D4E7012034
:10331000F9E700002DE9F047002591460E460446E6
:103320002F464FF020083CE04A4631462046FFF742
:1033300017FF00B1012520688169C94389061AD4A5
:10334000CDB981698169C943C90613D41021C1610E
:10335000042060642068C0F81C8020684268164B16
:103360001A40426084F8418084F8427084F84070CA
:10337000012500E06764FDF75FFDA0EB0900B042A6
:1033800000D876B96DB920688069C043400708D578
:10339000606C40F02000606484F8418084F84070E4
:1033A000012520688069C043400701D5002DBBD0AE
:1033B0002846BDE8F087000000E800FE70B516461C
:1033C0000D4604461EE0324629462046FFF7C8FE59
:1033D00008B1012070BDFDF72FFD801BA84200D869
:1033E00085B920688069C04380060BD554F8440F26
:1033F00040F0200044F80409202060700020A070F4
:103400002070E6E720688069C0438006DBD4002096
:1034100070BD70B516460D46044620E0324629467A
:103420002046FFF79DFE08B1012070BD681C16D034
:10343000FDF702FD801BA84200D885B9206880698D
:10344000C04380070BD554F8440F40F0200044F8E7
:103450000409202060700020A0702070E4E720683C
:103460008069C0438007D9D4002070BD2DE9F05F8A
:103470002DED108BADF5E25DDFEDD1EADFF8449381
:103480009FEDD1FADFF84483DFF844A30DF1100B70
:10349000F0EE6ECAC9ED0DEAC9ED0EEAC9ED0FEA0C
:1034A000B0EE6EDAB0EE6CEAF0EE6CAAF0EE6C9A6A
:1034B000B0EE6CAAB0EE6CCAF0EE6CBAB0EE6CBABC
:1034C000B0EE6C8AF0EE6C8AB0EE6C9AC9ED10EA40
:1034D000002445465E464FF4FA7703F02FF9B5F91C
:1034E000000000EE100A04EB440006EB8000B8EE8A
:1034F000C00A20EE0F0A80ED000AB5F902103DEE79
:1035000000DA00EE901AF8EEE00A60EE8F0AC0EDE5
:10351000010AB5F904107CEEA0CA01EE101AB8EE4B
:10352000C11A21EE0F1A80ED021A3EEE01EA0120C7
:1035300003F078F8641CA4B2BC42CED39FEDA50A78
:103540000024A846CDEE00DA8CEE80DACEEE00CA7A
:103550009FEDA1EA0DF5BC5503F0F0F8B8F90600AF
:1035600000EE100A04EB440005EB8000B8EEC00A40
:1035700020EE0E0A80ED000AB8F908203CEE00CAE1
:1035800000EE902AF8EEE00A60EE8E0AC0ED010A25
:10359000B8F90A107BEEA0BA01EE101AB8EEC11A03
:1035A00021EE0E1A80ED021A3BEE01BA012003F063
:1035B00039F8641CA4B2642CCED39FED880A002095
:1035C0008CEE00EA8BEE80CACBEE00BADFED840A07
:1035D00000EB400106EB8101B0EE6D0A91ED001A9F
:1035E000401C80B231EE400AB84220EE201A41EE73
:1035F00000AA91ED011AB0EE4D0A31EE400A20EE1C
:10360000201A41EE009A91ED021AB0EE6C0A31EEEA
:10361000400A20EE201A01EE00AAD9D30020DFEDE7
:10362000710A00EB400105EB8101B0EE4E0A91ED0D
:10363000001A401C80B231EE400A642820EE201AA5
:1036400001EE008A91ED011AB0EE4C0A31EE400A0B
:1036500020EE201A41EE008A91ED021AB0EE6B0ABC
:1036600031EE400A20EE201A01EE009AD9D31AEE6C
:10367000100AFCF73AFF06460F4619EE900AFCF7CF
:1036800034FF04460D461AEE900AFCF72EFF8DE833
:10369000F00041EC100B54A053EC102B01F0DCFABD
:1036A00019EE100AFCF721FF06460F4618EE900AA5
:1036B000FCF71BFF04460D4618EE100AFCF715FF39
:1036C0008DE8F00041EC100B4EA053EC102B01F0F4
:1036D000C3FA1AEE900A4FF07E518842BFF6D8AE78
:1036E00019EE900A8842F9DA1AEE100A8842F5DAE1
:1036F00018EE100A51468842F0DA18EE900A884215
:10370000ECDA19EE100A5045E8DA2EEE0E0AF0EE69
:103710004C0AC9ED0DDA89ED0EDA00EE8C0AF0EEF6
:103720006B0A4C46C9ED0FCA00EEAB0A03F0F2F883
:10373000F7EE000A80EE801A84ED101AE06BFCF7B9
:10374000D4FE07468846A06BFCF7CFFE05460E4622
:10375000606BFCF7CAFE8DE8E00141EC100B2FA076
:1037600053EC102B01F078FA206CFCF7BEFE41EC14
:10377000100B32A053EC102B01F06EFA9FED350ABE
:10378000012084ED170A9FED340A84ED180A9FED9D
:10379000330A84ED190A9FED320A84ED140A9FED75
:1037A000310A84ED150A9FED300A84ED160A84F87B
:1037B00068000DF5E25DBDEC108BBDE8F09F0000E8
:1037C00000000000480900200C007A3D4808002055
:1037D000ACC527370000FA434201003A0000C84256
:1037E000AD55033BB57E253C6779726F5F7661729C
:1037F0000A783A25660A793A25660A7A3A25660AE7
:10380000000000006163635F7661720A783A2566A2
:103810000A793A25660A7A3A25660A006779726F4C
:103820005F6F66667365743A7825660A202079258D
:10383000660A20207A25660D0A0000006163635F36
:103840007374617469635F76616C75653A25660DA2
:103850000A00000060AD5ABC3FAD223C9E62553A62
:1038600076C37E3F4415803F60727F3F10B502F003
:1038700065FF32493048B1F90020D0ED0D0A00EE65
:10388000102AB8EEC01A9FED2E0A51EE000AC0EDC4
:10389000030AB1F90220D0ED0E0A01EE102AB8EEAB
:1038A000C11A51EE000AC0ED040AB1F90420D0EDAE
:1038B0000F0A01EE102AB8EEC11A51EE000AC0ED4F
:1038C000050AB1F90620D0ED170A00EE102AB8EE6D
:1038D000C01A9FED1C0A51EE000A90ED141A60EE1A
:1038E000810AC0ED060AB1F90820D0ED180A01EEF0
:1038F000102AB8EEC11A51EE000A90ED151A60EECA
:10390000810AC0ED070AB1F90A20D0ED190A01EECB
:10391000102AB8EEC11A51EE000A90ED160A20EEF8
:10392000800A80ED080AB1F90C1000EE101AB8EE0A
:10393000C00A80ED090A10BD48090020480800208F
:103940000C007A3D4201003A30B5F6EE000A2DED4A
:103950000A8BF0EE408A8FB028EEA08ADFEDFEAA37
:103960009FEDFEBADFEDFEBAFE4DB7EE00AAFE4CAB
:1039700095ED060AB5EEC00AF1EE10FA0DD195EDFF
:10398000071AB5EEC01AF1EE10FA06D195ED081A35
:10399000B5EEC01AF1EE10FA7ED094ED011AD4ED16
:1039A000031A94ED022A21EE211AD4ED001A01EE39
:1039B000C21A8DED0B1A94ED001AD4ED011A94ED94
:1039C000032A21EE211AD4ED021A01EE821A8DED9E
:1039D0000C1A94ED011AD4ED011A94ED022A21EE8D
:1039E000211AD4ED021A01EE821A70EEC10ACDED51
:1039F0000D0A03F0A1FEB0EE409A95ED070A03F020
:103A00009BFE39EE009A95ED080A03F095FE39EE1B
:103A1000000A02F07FFFD5ED060ACAEE00CA60EE8A
:103A2000800ACDED040AD5ED070A60EE800ACDEDDF
:103A3000050AD5ED080A60EE800ACDED060A95ED7F
:103A400010CA1CEE100AFCF750FD3CEECC0A41EC0B
:103A5000190BB0EEC00A10EE100AFCF746FD81F01B
:103A6000004153EC192BFCF7D1FCFCF751FD00EEA3
:103A7000100A01F03DFB60EE2A0A9DED051ADDED0E
:103A80000D1A20EEAB0A21EE211A20EE200A60EE7C
:103A90008B0A20EE280A00E063E0DDED061A9DEDBA
:103AA0000C2AB04801EEC21A0C388DED001A9DEDBB
:103AB000061ADDED0B1A9DED0D2A21EE211ADDED22
:103AC000041A01EEC21A8DED011A9DED041ADDED06
:103AD0000C1A9DED0B2A21EE211ADDED051A01EEDF
:103AE000C21A8DED021A90ED001ADDED001A01EEFA
:103AF000801A80ED001AD0ED011A9DED012A42EEE8
:103B0000001AC0ED011A90ED022ADDED022A02EE44
:103B1000802A80ED022AD5ED032A9FED940A9DEDBF
:103B2000003A62EE802A40EE832A32EE811A8DED51
:103B3000001A95ED041ADDED012A21EE001A00EEBF
:103B4000A21A31EE211A8DED011A95ED051A21EE1A
:103B5000000A9DED021A00EE810A30EE020A8DED98
:103B6000020A94ED010ADDED000A9DED011ADDED7A
:103B7000011A20EEC00AD4ED020A9DED012ADDED06
:103B8000002A00EEC10AD4ED030A9DED021A00EEF0
:103B9000C10ADDED000A20EE081A94ED000A20EEBD
:103BA000200AD4ED030A00EEE10AD4ED020ADDEDAD
:103BB000021A00EEA10ADDED001A60EE080A94ED8B
:103BC000030A20EE210AD4ED001A01EE820AD4ED98
:103BD000011A9DED022A01EEC20AD4ED011A9DEDF3
:103BE000012A61EE821A94ED022A20EE080A42EEC2
:103BF000621A94ED002ADDED022A42EE221A94EDBB
:103C0000002A32EE011A61EE881A84ED001A94ED52
:103C1000011A71EE200AC4ED010AD4ED020A30EE59
:103C2000800A84ED020A94ED030A30EE210A84ED45
:103C3000030A94ED000A03F07FFDB0EE408A94ED94
:103C4000010A03F079FD38EE008A94ED020A03F0D0
:103C500073FD38EE008A94ED030A03F06DFD38EE33
:103C6000000A02F057FED4ED000AF0EE009AB0EE22
:103C70004A8A60EE800AC4ED000AD4ED010A60EEC3
:103C8000800AC4ED010AD4ED020A60EE800AC4ED98
:103C9000020AD4ED030A20EE800A84ED030A94EDB3
:103CA000010AD4ED030A94ED011A60EE20AA94ED06
:103CB000000AD4ED020A40EE60AA94ED020AD4EDA7
:103CC000030A20EE200AD4ED000A00EE810AD4EDAA
:103CD000010A94ED021A20EE299A94ED010A20EED1
:103CE000200AD4ED020A00EE810A00EE698A94ED02
:103CF000020A94ED020A94ED030A94ED030A94ED8E
:103D0000010A94ED020A94ED000A94ED030A29EEEB
:103D1000090A08EE080A01F0A7FBF0EE400A2AEEB5
:103D2000E90A00F0E7FFDFED129AF0EE480A20EE14
:103D3000290A85ED010AB0EE490A00F0DBFF20EE0A
:103D4000290A0C4885ED000A90F8E01001291FD1DE
:103D500090ED370A10E000009A99993E10580941F9
:103D6000C05E1341480900202800002039FA8E3C2B
:103D7000E12E654258080020B5EEC00AF1EE10FAB7
:103D800006D01448017819B985ED020A01210170A5
:103D9000DDED020A95ED020A0F4960EEA90A00EE78
:103DA000A80ADFED0E0A10EE100A85ED020A88421D
:103DB00002DD30EE600A06E0B5EEC00AF1EE10FA60
:103DC00003D230EE200A85ED020A0FB0BDEC0A8B5B
:103DD00030BD0000240000200000B4430000B443C4
:103DE000154808B5816C41F004018164816C01F0D3
:103DF00004010091816C41F001018164806C00221A
:103E000000F00100009005210B20FDF7D7FA0B20F0
:103E1000FDF7C6FA012205210C20FDF7CFFA0C2090
:103E2000FDF7BEFA002211460D20FDF7C7FABDE8E6
:103E300008400D20FDF7B4BA001002402DE9F04310
:103E400087B014216846FCF72FFA3048C16C41F066
:103E50002001C164C16C01F020010591C16C41F0E9
:103E60000101C164C16C01F001010591C16C41F017
:103E70000201C164C06CDFF8988000F00200059078
:103E8000002201214046FCF7D1FF4FF0904900226B
:103E90004FF4C0514846FCF7C9FF12204FF4881672
:103EA00002278DE8C10069464846FCF7DFFE012580
:103EB00000240095CDE90154694640460394FCF77F
:103EC000D5FEA802CDE90006694602944846FCF7F3
:103ED000CDFEE80203948DE8A10069464846FCF750
:103EE000C5FE28030090CDE9015469464846039475
:103EF000FCF7BCFE012200210A20FDF75FFA0A2030
:103F0000FDF74EFA07B0BDE8F08300000010024054
:103F100000040048154810B5134901601449416078
:103F200000210122C0E90212016141618161C16188
:103F30000162FCF7EFFF08B1FCF7FFFC4FF4805182
:103F40000A48FCF77FFF08B1FCF7F7FC002107489F
:103F5000FCF7A3FF08B1FCF7F0FCBDE810404FF4FC
:103F60000010FCF7C3BF00000058004048000020CC
:103F70002A16C310124810B5104901604FF482711F
:103F8000416000214FF4E062C0E902124FF4007278
:103F90000161C0E905121022C0E907210722416230
:103FA000C0E90A1201634163FDF71EFF002803D038
:103FB000BDE81040FCF7C1BC10BD0000003001405E
:103FC000FC000020124810B5104901604FF48271C6
:103FD000416000214FF4E062C0E902124FF4007228
:103FE0000161C0E905121022C0E9072107224162E0
:103FF000C0E90A1201634163FDF7F6FE002803D011
:10400000BDE81040FCF799BC10BD0000003C00402A
:104010006001002010B588B0002418480094019475
:104020000294039404940594134906940160A92111
:10403000C0E9011440F2E731C0E90314446184612E
:10404000FEF7C9FA08B1FCF778FC4FF480500090F5
:1040500069460A48FEF74AFB08B1FCF76EFC049477
:10406000059404A905480694FEF766FA002801D0D5
:10407000FCF763FC08B010BD002C0140C401002017
:10408000184810B5164901604FF4E1214160002144
:1040900081600C22C160C0E904128161C1610162CA
:1040A00041628162FEF7F6FE08B1FCF746FC002192
:1040B0000C48FEF738FD08B1FCF73FFC0021094829
:1040C000FEF70BFD08B1FCF738FC0648FEF79FFC35
:1040D000002803D0BDE81040FCF72FBC10BD000045
:1040E0000038014010040020FEE7FEE770472DE98C
:1040F000F843044640684FF48276154689464FF4EB
:1041000000474FF48068B04209D1A068B84201D09E
:10411000404504D12068016821F0400101604B4610
:10412000002280212046009500F0AEF880B960683A
:10413000B04214D1A068B84201D040450FD14B46DF
:1041400000224FF4C0612046009500F02FF830B1F6
:10415000206E40F0200020660320BDE8F883002098
:10416000FBE7F8B515460E460B46009204460022C2
:104170004FF4C05100F01AF888B93346002280216C
:104180002046009500F080F848B9334600224FF4ED
:10419000C0612046009500F009F8002804D0206E88
:1041A00040F0200020660320F8BD00002DE9FC5FF0
:1041B0004FF0000B984616460F4604460C9D8DF8AE
:1041C00004B0FCF739FE411BA8EB0105FCF734FEF7
:1041D0008246206800F10C092A480068C0EBC00044
:1041E00000EB8000000D684343E0B7F5C06F06D1D7
:1041F0002EB999F800008DF804009DF80400B8F17C
:10420000FF3F37D0FCF718FEA0EB0A00A84203D20C
:1042100015B1009858B32BE02068416821F0E00107
:1042200041606068B0F5827F0BD1A068B0F5004FA7
:1042300002D0B0F5806F04D12068016821F0400100
:104240000160A06AB0F5005F09D12068016821F41F
:10425000005101602068016841F4005101600120B3
:1042600084F85D0084F85CB00320BDE8FC9F002565
:10427000401E0090206880683840B042B5D10020D0
:10428000F3E700001C0000202DE9F8431E4691468C
:1042900088460446089DFCF7CFFD401B351AFCF705
:1042A000CBFD074625480068C0F3CB30684338E0B3
:1042B000701C37D0FCF7C0FDC01BA84203D215B15B
:1042C000009860B32CE02068416821F0E001416073
:1042D0006068B0F5827F0BD1A068B0F5004F02D0C6
:1042E000B0F5806F04D12068016821F040010160C1
:1042F000A06AB0F5005F09D12068016821F400517F
:1043000001602068016841F400510160012084F8D7
:104310005D00002084F85C000320BDE8F8830025E0
:10432000401E00902068816838EA010004D0002017
:104330004845BDD10020F0E70120F9E71C0000202E
:104340007047FCF7D7BF10B594B038216846FBF72B
:10435000ABFF14210EA8FBF7A7FF0020FDF760F8C4
:10436000012000900004032404210190CDE90841BC
:1043700002205521CDE90A1007900C900D90684657
:10438000FDF738FB08B172B6FEE70F20CDE90E0449
:10439000002010901190129004210EA8FDF7F4F95E
:1043A000002801D072B6FEE714B010BD02480168C3
:1043B00041F470010160704788ED00E00148FEF7AC
:1043C00016BA0000C40100202DE9F0430268264C13
:1043D000264D274E274B4FF08049A04207D0484535
:1043E00005D0A84203D0B04201D0984203D122F0B8
:1043F00070074A683A43204FDFF880C0DFF88080BA
:10440000A0420DD048450BD0A84209D0B04207D0F9
:10441000984205D0B84203D0604501D0404503D151
:1044200022F44075CA682A434D6922F080022A436B
:1044300002608A68C2620A688262A04207D098421B
:1044400005D0B84203D0604501D0404501D109698B
:104450000163012141610169C90703D0016921F0AC
:1044600001010161BDE8F083002C0140000400401F
:104470000008004000340140004001400044014079
:104480000048014010B5846842EA032224F47F44C6
:104490000A432243826010BD8268034B1A400A43DC
:1044A00042F00701816070478FFFCFFF10B5046AAB
:1044B000036A23F001030362836923F0F00343EAF4
:1044C000021324F00A020A438361026210BD10B590
:1044D000036A046A24F010040462846923F0A003D0
:1044E00024F4704444EA023243EA01118261016219
:1044F00010BD000030B5416EB9B102689168926894
:10450000C1F342610B4C520FA35CDD0004F10803C0
:104510009A5CB5FBF2F2A0F86A20625C595CD200AA
:10452000B2FBF1F1A0F8681030BD0121A0F86A10CB
:10453000F8E70000587C000890F82810090706D515
:1045400001684A68836B22F400421A434A6090F87B
:104550002810C90706D001684A68C36A22F40032ED
:104560001A434A6090F82810890706D501684A68FE
:10457000036B22F480321A434A6090F828104907EE
:1045800006D501684A68436B22F480221A434A60C8
:1045900090F82810C90606D501688A68C36B22F412
:1045A00080521A438A6090F82810890606D501685F
:1045B0008A68036C22F400521A438A6090F828102B
:1045C000490611D501684A68436C22F480121A43E7
:1045D0004A60416CB1F5801F06D101684A68836C5E
:1045E00022F4C0021A434A6090F82810090606D542
:1045F00001684A68C06C22F4002202434A60704796
:104600002DE9F84300250446C0F89050FCF714FC4F
:104610008046206800684FF0200600076FF07E4754
:1046200013D54346002231042046009700F0B8FA23
:1046300058B1206850E8001F21F0800140E80012C6
:10464000002AF6D1C4F8886021E02068006840079D
:1046500022D5434600224FF480012046009700F007
:104660009FFAC8B1206850E8001F21F4907140E81B
:104670000012002AF6D12068083050E8001F21F00F
:10468000010140E80012002AF5D1C4F88C6084F8DA
:1046900084500320BDE8F883C4F88860C4F88C60B7
:1046A00044F86C5F656025760020F3E710B5806AFA
:1046B0000021A0F85E10FEF75EFA10BD70B5846AA6
:1046C000D4F88800D4F88C50216889684FF000062F
:1046D000090606D5212804D1A4F85660204600F02A
:1046E000B9F820688068400606D5222D04D1A4F8C8
:1046F0005E60204600F084F8D4F8900040F010008E
:10470000C4F890002046FEF736FA70BD10B5014699
:10471000806A096809684FF0000389062DD4A0F863
:104720005E30016851E8002F22F4807241E80024D5
:10473000002CF6D10168083151E8002F22F0010267
:1047400041E80024002CF5D10168083151E8002F20
:1047500022F0400241E80024002CF5D12021C0F8CD
:104760008C10C16E012908D1016851E8002F22F098
:10477000100241E80024002CF6D10367C16E012924
:1047800002D0FEF737FC10BDB0F85C10FEF788F9D8
:1047900010BD10B5806A01210167C16E012902D0E8
:1047A000FEF729FC10BDB0F85C104908FEF778F957
:1047B00010BD10B50146806A09680968890616D4DB
:1047C0000021A0F856100168083151E8002F22F0AE
:1047D000800241E80023002BF5D1016851E8002F49
:1047E00042F0400241E80023002BF6D110BDFEF755
:1047F000A3FC10BD10B5806AFEF79FFC10BD000041
:1048000010B5016851E8002F22F4907241E80023AE
:10481000002BF6D10E4B0168083151E8002F1A40E9
:1048200041E80024002CF6D1C16E012908D10168AD
:1048300051E8002F22F0100241E80023002BF6D1AE
:104840002021C0F88C100021C166416710BD000016
:10485000FEFFFFEF016851E8002F22F0C00241E89F
:104860000023002BF6D10168083151E8002F22F413
:10487000000241E80023002BF5D12021C0F8881068
:10488000704700002DE9F041044600682269A168E4
:10489000E669114362690025324311438A4B02687D
:1048A0008A4E32400A43026020684168E26821F47F
:1048B0004051114341602168A069994201D0226AA8
:1048C00010438A68824E324002438A602068C16A7F
:1048D000626A21F00F011143C1627E4922687E485D
:1048E0008A420DD1D0F8880010F0030006D00128CC
:1048F00055D0022842D003283FD152E001203DE0AC
:1049000076498A420BD1D0F8880010F00C0035D0DF
:10491000042833D0082840D00C282ED141E070491B
:104920008A420BD1D0F8880010F0300026D0102831
:1049300035D0202831D030281FD132E069498A4251
:104940000BD1D0F8880010F0C00017D0402826D036
:10495000802822D0C02810D123E09A420DD1D0F86F
:10496000880010F4406009D0B0F5806F17D0B0F522
:10497000006F12D0B0F5406F13D010205A495B4E33
:1049800000274FF4004C9A423BD160B1022813D06B
:1049900004280BD0082872D10DE00220EEE7042095
:1049A000ECE70820EAE7FCF7D5FF01E0FCF7F6FFAB
:1049B000010001D17CE06146606A36F8102066682B
:1049C000B1FBF2F006EB4603834270D8B0EB063F32
:1049D0006DD8002308461946FBF71CFC090241EA82
:1049E0001061020270081018794132460023FBF76B
:1049F00011FC3F4AA0F54071914258D82168C86027
:104A000056E0E2694FF6EF7862452CD109284ED284
:104A1000DFE800F00508114D0D4D4D4D1000FCF77D
:104A200099FF01E0FCF7A8FF010004D140E0FCF78A
:104A3000B5FFF9E76146606A36F81000B1FBF0F0A7
:104A40004100606801EB5001B1FBF0F0A0F11001F2
:104A500041452CD84FF6F0710140C0F342000143AC
:104A60002068C16024E0092821D2DFE800F00509B0
:104A700012200E2020201100FCF76CFF02E016E04F
:104A8000FCF77AFF010004D112E0FCF787FFF9E799
:104A90006146606A36F81000B1FBF0F1606801EB26
:104AA0005001B1FBF0F0A0F1100141450AD90125F8
:104AB0000120A4F86A0024F8680F2846E7602761FF
:104AC000BDE8F08180B299E700800040F369FFCF34
:104AD000FFF4FF1100380140001002400044004084
:104AE00000480040004C00400024F400407C0008D6
:104AF000FFFC0F0070B58165A0F85C200021044622
:104B0000C0F890102220C4F88C00D4F88000F8B1CE
:104B1000204BC362D4F880301F481863D4F880302B
:104B20001E485863D4F8800013468163A06DD4F802
:104B300080502168024628462431FCF731F838B10C
:104B40001020C4F890002020C4F88C00012070BD13
:104B5000206940B1206850E8001F41F4807140E8AE
:104B60000012002AF6D12068083050E8001F41F0FA
:104B7000010140E80012002AF5D12068083050E811
:104B8000001F41F0400140E80012002AF5D100204A
:104B900070BD00000D47000893470008BD4600089F
:104BA0002DE9F0471F4690460D4604464FF0000998
:104BB000089E32E0701C30D0FCF73EF9C01BB042BA
:104BC00018D8BEB120680168490726D5802D24D0A9
:104BD000402D22D0C169C94309070DD408250562BB
:104BE0002046FFF70DFEC4F8905084F88490012011
:104BF000BDE8F0870320FBE7C069C04300050CD483
:104C000021684FF4006008622046FFF7F9FD20207C
:104C1000C4F8900084F88490ECE72068C06935EA15
:104C2000000004D000204045C4D00020E0E701206F
:104C3000F9E7000010B50548FDF79EFFBDE81040FC
:104C40004FF4007202490148FDF700BF1004002034
:104C500064050020FEE700000FB4054B10B503A962
:104C6000044A029800F0BEFD10BC5DF814FB000081
:104C7000D5660008380000207CB50C001D4616469D
:104C8000014601D0601E00E00020CDE90010064B77
:104C90006A462946304600F0A5FD002C02D0009A55
:104CA000002111707CBD0000EB5E0008410008028D
:104CB00018BF04200A0E18BF40F001004FF07F42D9
:104CC00032EA010108BF40F00200012808BF0520B8
:104CD00070470907090E002804DB00F1E02080F886
:104CE0000014704700F00F0000F1E02080F8141D60
:104CF0007047000070B54FF068422DED048BF0EE68
:104D0000408A18EE900AB0EE608A18EE101A02EB94
:104D10004003B3F1654F3CBF02EB4102B2F1654F76
:104D20007DD200BFC0F3C753C1F3C7529A1A1B2AE2
:104D300009DD10F0004F14BF9FED830A9FED830A39
:104D4000BDEC048B70BD12F11A0F36DA11F0004F72
:104D500009D010F0004F0CBF9FED7D0A9FED7D0A3A
:104D6000BDEC048B70BD88EE889A19EE100AFFF72F
:104D70009DFF042808BF00F0ABFB18EE900AFFF778
:104D800095FF054618EE100AFFF790FF044619EE4E
:104D9000100AFFF78BFF042D18BF052D08D1042C36
:104DA00018BF052C04D1002804BF022000F052FCDB
:104DB000B0EE490ABDEC048B70BD4200B2EB410F6E
:104DC0003AD910F0004F19BFDFED630A9FED630A77
:104DD000DFED630A9FED630AB0EE481A0A46B1EEB2
:104DE000688A80F00041F0EE418A10460A1A5200AB
:104DF000B2F1807F34D2484010F0004FDFED5A1AF4
:104E00009FED5A2A1DBFBEEE001A70EEE10A30EE89
:104E1000420AB6EE001A08BF70EEA10A00E040E0B8
:104E200008BF30EE020AB0EE682A01EE482A08EE0A
:104E3000818AC2EE081A15E011F0004F04BF9FED01
:104E40004C0AF0EE400AD1D010F0004F19BFDFED50
:104E5000490A9FED490ADFED490A9FED490AC5E776
:104E6000C8EE881A21EEA11A9FED462ADFED462AE8
:104E700041EE022A9FED452A01EE222ADFED442A67
:104E800041EE022A9FED432ABDEC048B01EE222A5B
:104E900021EE811A01EE020A30EE210A30EE200ADC
:104EA00070BD4FF07F42B2EB400F28BFB2EB410F15
:104EB00009D2F0EE480AB0EE680ABDEC048BBDE8FA
:104EC000704000F0F1BA40EA01035B0008BF41F016
:104ED000FF410BD0B2EB400F08BFB2EB410F08D13E
:104EE00020F0804008EE900A21F0804108EE101A70
:104EF00018E7B2EB400F12BF5FEA410340F0FF40FA
:104F000001F000413FF40EAFB2EB410F12BF5FEA78
:104F1000400200F0004041F0FF413FF403AF4A007F
:104F200092EA40033FF5FEAE002AACBF9FED1A0A9D
:104F30009FED1A0A68EE808A28EE008A18EE900A21
:104F400018EE101AEEE60000DB0FC9BFDB0FC93FF9
:104F5000DB0F4940DB0F49C00000C9BF22AAFDB9E1
:104F60000000C93F22AAFD390060ED3EC30ACE37DA
:104F700000000000000049C022AA7DBA000049409C
:104F800022AA7D3A2DAD65BD8FB8D53D0FB511BEB6
:104F900061C84C3EA8AAAABE0000804F0000802F26
:104FA00010EE101A08B5444A6846B2EB410F28D9F2
:104FB0004FF0E640B0EB410F94BF00204FF0FF30C0
:104FC00000900098002861DB60EE000A10F0010FED
:104FD00045D010F0020FDFED391A9FED391A00EEBF
:104FE000E11ADFED381A40EE811A21EEA01AF0EE38
:104FF000400A40EE010A08BFF1EE600AB0EE600A16
:1050000008BD314B21F0004293423CD911F0004FD2
:10501000DFED2E0A20EE201ADFED2D0A19BF31EE4A
:10502000601A71EE200A31EE201A71EE600ABDEEB0
:10503000E01A11EE100A9FED271A00F0030000EEAF
:10504000C10A9FED251A009000EEC10A9FED231AB8
:1050500000EEC10A9FED221A00EEC10AB1E79FEDF2
:10506000211A9FED210A10F0020F00EE810A9FED38
:105070001F1A00EE801AB7EE000A00EE810A18BF70
:10508000B1EE400A08BD00F02BFA9AE710EE100AC4
:105090004000B0F17F4F3CBFB7EE000A08BD07D11A
:1050A0004FF0010000F0D6FABDE8084000F000BA69
:1050B000BDE8084000F0F5B9B61F927E336D4C395B
:1050C000DA82083CA0AA2ABE490E494683F9223F4B
:1050D0000000004B0000C93F00A0FD390020A233B2
:1050E0001A61342CB93AB2BACA9F2A3DDDFFFFBE1D
:1050F00010B510EE104A4FF019406849002200EB3D
:1051000044002DED028B884257D8DFED650A14F07C
:10511000004F60EE200A14BFBEEE001AB6EE001A71
:1051200071EE200AFDEEE00A10EE900A00EE900A01
:10513000F8EEE00A9FED5B1A00EEC10A9FED5A1AE5
:1051400000EEC10ADFED590A9FED591A00EE201A50
:10515000DFED580A40EE010A9FED571A574B00F059
:10516000030100EE201A21EE000A7B4403EB8103C9
:10517000D3ED000A524B7B4403EB810393ED001AFD
:10518000504B41EE000A7B4403EB8101801091ED0E
:10519000000A70EE800AEABB00EE100AB8EEC01AF0
:1051A000DFED491A9FED490ABDEC028B01EE210AA1
:1051B000BCEEC00A20EE200A10BD4FF0FF40A04315
:1051C0001BD04FF0CE40B0EB440F82BFB7EE000AC9
:1051D000BDEC028B10BD3E48B0EB440F28BF01224E
:1051E00093D2022000F036FA14F0004F15D0BDEC37
:1051F000028BBDE8104000F06BB914F5000F02BF40
:105200009FED340ABDEC028B10BDBDEC028BBDE8F6
:10521000104000E007E000F044B9BDEC028BBDE8AF
:10522000104000F04DB900EBD07359104FF07E5292
:1052300002EBC15100EE101AA0EB630002EBC0506C
:1052400060EE200A00EE100A20EE208A18EE100A06
:1052500088B118EE100AB0F1FF4F15D018EE100A01
:10526000FFF724FD042808BF00F032F9B0EE480A29
:10527000BDEC028B10BD022000F0ECF9BDEC028BFE
:10528000BDE8104000F024B9022000F0E3F9BDECC5
:10529000028BBDE8104000F013B900000000501E62
:1052A0003BAAB8400070313EF4FD053712BB2A3DE1
:1052B00012BB2A3EFFFFFF3EFFFF7F3F422B000055
:1052C000462B0000162B00000000004B00007E4E15
:1052D0000000A0850000000000B510EE101A2DEDB2
:1052E000028B81B0524A6846B2EB410F2ED94FF083
:1052F000E640B0EB410F94BF00204FF0FF3000902C
:105300000098B0EE408A00286ADB10F0010F4BD005
:1053100068EE080A9FED471A9FED470A00EE810AE2
:105320009FED461A10F0020F00EE801AB7EE000A49
:1053300000EE810A02BF01B0BDEC028B00BD00BFD0
:1053400001B0B1EE400ABDEC028B00BD3C4B21F038
:105350000042934241D911F0004FDFED3A0A20EEAE
:10536000201ADFED390A19BF31EE601A71EE200AFA
:1053700031EE201A71EE600ABDEEE01A11EE100A4D
:105380009FED321A00F0030000EEC10A9FED301AC3
:10539000009000EEC10A9FED2F1A00EEC10A9FEDAA
:1053A0002E1A00EEC10AABE728EE080A9FED2B1A71
:1053B000DFED2B0A10F0020F40EE410A9FED291A93
:1053C00000EE201A61EE000AB0EE480A08EE200A4C
:1053D000B6D101B0BDEC028B00BD00F081F88FE7C3
:1053E00018EE100A4000B0F17F4F0DD218EE100AEF
:1053F000FFF75CFC042808BF00F06AF8B0EE480A2A
:1054000001B0BDEC028B00BD09D1012000F022F9F2
:1054100001B0BDEC028B5DF804EB00F049B801B0BF
:10542000B0EE480ABDEC028B5DF804EB00F039B831
:10543000B61F927EB93AB2BACA9F2A3DDDFFFFBEBF
:10544000490E494683F9223F0000004B0000C93F46
:1054500000A0FD390020A2331A61342C336D4C3981
:10546000DA82083CA0AA2ABE10B52DED028BB1EE5F
:10547000C08A18EE100A20F00040C0F1FF40C00FB3
:105480000AD010EE100A20F00040C0F1FF40C00F1B
:1054900004BF012000F0DEF8B0EE480ABDEC028B3C
:1054A00010BD30EE000A704730EE200A7047000051
:1054B000DFED020A80EEA00A704700000000000045
:1054C0009FED020A20EE000A704700000000007005
:1054D0009FED020A20EE000A704700000000001055
:1054E0002DE9F0014FF07F42B2EB410F9FBF4FF02B
:1054F000FF310160BDE8F00170474FF0004242EA21
:105500000123C1F3C752783A551112F01F0C434CD6
:10551000CCF120067C44C1F3C752A2F178024FEAD5
:10552000621204EB820254F8254008BFD2E901560A
:1055300012D0556804FA0CF425FA06F73C43976834
:1055400005FA0CF527FA06F8D26807FA0CFCF240C7
:1055500045EA08054CEA0206A4FB034CA5FB0352EE
:10556000A6FB03631D449D4234BF01260026131988
:10557000334416B1934202D903E0934201D201228F
:1055800000E00022624402F1200C9206DC0C42EAA8
:10559000443200EE102A5B03DFED210AF8EEC01A58
:1055A00000EE103A4FEA9C1C11F0004FB8EE400A92
:1055B000C0F800C020EE201A00EE105ADFED190AE4
:1055C000B8EE400A20EE200A71EE810A70EE800AE1
:1055D00010EE902A02F500626FF30B0200EE902AA3
:1055E00070EEE11A31EEC11ADFED101A30EE411AF9
:1055F0009FED0D0A20EE800A01EE210A9FED0C1AA4
:1056000000EE810A04BFBDE8F0017047CCF1805183
:105610000160BDE8F001B1EE400A7047B827000014
:10562000000000360000802C22AAFD29DB0FC92FC4
:105630000000C92F02E008C8121F08C1002AFAD1D1
:1056400070477047002001E001C1121F002AFBD102
:1056500070470000014908607047000044000020C6
:105660002DE9FF5F82B00021DDE90430020DDDF895
:1056700040B0034318D044F61050A2F2FF32424328
:105680001514119801281FD0A5EB0B00401C5FEAF0
:10569000000A4FF000064E4FDFF83891B0465046F2
:1056A00015D5CAF1000413E0119801244AA301287A
:1056B00001D16FEA0B010298119AC0E90031C0E9EB
:1056C000024206B0BDE8F09FCBF10000DFE70446E0
:1056D0000021404A491842EB0450CDE9001012E085
:1056E000E00707D032463B4640464946FBF707F8FD
:1056F0008046894632463B4610461946FAF7FFFF78
:1057000006460F466410002CEAD1DDE90401DDE90C
:105710000023BAF1000F06DAFAF7F1FF42464B46D2
:10572000FAF7EDFF05E0FAF771FE42464B46FAF74D
:105730006DFE04460E460022284BFBF76BF803D89B
:105740004FF0FF30014607E00022254B204631464E
:10575000FAF7B5FDFBF745F8102409E0002C0ADB49
:105760000A220023FAF756FD039B30321A55641EB5
:1057700050EA0102F2D1641C039AC4F111031444EB
:10578000119A012A03D0012208430DD10AE00843EF
:1057900004D000204FF0110B119072E7A3EB0B0522
:1057A0006D1E0DE05B4504DD4FF0000205F10105C3
:1057B00004E003DA4FF00002A5F10105002AECD065
:1057C00002981199C0E90231C0E9004579E700006B
:1057D000000014400000F03F300000000000F043E3
:1057E0000000E03F2DE9FF4F95B09A4688460646F7
:1057F0000025EEE1252877D100242746F94A01212A
:10580000039400E0044316F8013F203B01FA03F043
:105810001042F7D130782A2811D06FF02F0330785A
:10582000A0F13002092A16D8039A44F0020402EBD0
:10583000820203EB42021044761C0390EFE758F813
:10584000042B0392002A03DA504244F400540390DC
:1058500044F00204761C30782E2816D116F8010F79
:1058600044F004042A280DD06FF02F023078A0F104
:105870003003092B09D807EB870302EB4303C71852
:10588000761CF3E758F8047B761C30786C280FD030
:1058900006DC4C2817D068280DD06A2814D104E003
:1058A000742810D07A280FD10DE044F400140AE0D7
:1058B00044F4801401E044F440147278824202D12E
:1058C00004F58014761C761C307866280BD013DC27
:1058D000582877D009DC002875D04528F6D046280E
:1058E000F4D047281AD193E118E0632835D0642812
:1058F00079D0652812D18BE1702873D008DC672835
:10590000F1D069286FD06E280DD06F2806D1ACE099
:1059100073282CD0752874D0782853D05246179904
:1059200090476D1C54E1C4F30250022809D00328AB
:105930000DD0D8F8001004280DD00D6008F104082F
:1059400046E1D8F80010EA17C1E90052F6E7D8F8A6
:1059500000100D80F2E70D70F0E718F8041B8DF8C9
:10596000001000208DF80100EB46012003E058F8FC
:1059700004BB4FF0FF3061074FF0000102D40DE08F
:1059800009F101018946B9420FDA8145F8DB1BF8BC
:1059900009100029F4D108E009F10101894681428A
:1059A000FADB1BF809100029F6D103985346A0EB47
:1059B000090721463846179A00F080FA284400EB80
:1059C000090507E044E008E10DE01BF8010B524631
:1059D00017999047B9F10109F7D253462146384645
:1059E000179AF2E039E00A21C4F302524FF0000B9B
:1059F0000091022A06D058F8040BC117032A09D0D7
:105A00000AE023E008F1070020F00702F2E80201B3
:105A1000904605E000B2C117042A01D140B2C11777
:105A2000002906DA0A460021404261EB02012D22DC
:105A300002E0220504D52B228DF80420012203E088
:105A4000E20701D02022F7E7914657E00A2100E063
:105A500010214FF0000B00910BE010214FF0000BD4
:105A600044F004040827009103E008204FF0000BE5
:105A70000090C4F30252022A05D058F8040B00210A
:105A8000032A08D008E008F1070020F00702F2E836
:105A90000201904603E080B2042A00D1C0B24FF068
:105AA000000922072AD53278702A07D0DDF800C015
:105AB0008CF0100C5CEA0B0C05D00EE040228DF847
:105AC0000420012208E050EA010306D030238DF8BB
:105AD00004308DF8052002229146009B83F00803D4
