:020000040800F2
:10000000B8720020F101000887450008DD340008BF
:100010008545000885080008F5500008000000002C
:10002000000000000000000000000000E1470008A0
:10003000430900080000000089450008E347000864
:100040000B0200080B0200080B0200080B0200085C
:100050000B0200080B0200080B0200080B0200084C
:100060000B0200080B020008450900088908000877
:10007000950800080B0200080B0200080B0200089C
:100080000B020008000000000B0200080B02000831
:100090000B0200080B0200080B0200080B0200080C
:1000A0000B0200085D4800080B0200080B02000864
:1000B0000B0200080B0200080B0200080B020008EC
:1000C0000B0200080B0200080B0200080B020008DC
:1000D0000B020008D55000080B0200080B020008B4
:1000E0000B0200080B0200080B0200080B020008BC
:1000F0000B0200080B0200080B02000800000000C1
:10010000000000000B020008000000000B020008C5
:100110000B020008000000000B0200080B020008A0
:100120000B0200080B0200080B0200080B0200087B
:100130000B02000800000000000000000B02000895
:100140000B0200080B020008000000000000000085
:10015000000000000000000000000000000000009F
:100160000000000000000000000000000B0200087A
:100170000B0200080000000000000000000000006A
:10018000000000000B02000800000000000000005A
:10019000000000000000000000000000000000005F
:1001A00000000000000000000B0200080B02000825
:1001B0000B0200080B0200080B0200080000000000
:1001C000000000000B02000800000000000000001A
:1001D0000B0200080B020008DFF810D000F040FB13
:1001E00000480047E5760008AFF30080B8720020B1
:1001F0000648804706480047FEE7FEE7FEE7FEE7C1
:10020000FEE7FEE7FEE7FEE7FEE7FEE74D480008F3
:10021000D90100082DE9F05F0546002092469B4673
:1002200088460646814640241BE02846414647460C
:10023000224600F0BCF953465A46C01A914110D3E9
:1002400011461846224600F0A3F92D1A67EB010863
:100250004F4622460120002100F09AF917EB0009D1
:100260004E41201EA4F10104DFDC484631462A46F7
:100270004346BDE8F09F40EA01039B0703D009E035
:1002800008C9121F08C0042AFAD203E011F8013B82
:1002900000F8013B521EF9D27047D2B201E000F8DB
:1002A000012B491EFBD270470022F6E710B513461A
:1002B0000A4604461946FFF7F0FF204610BD10B568
:1002C000002200E0521C835C8C5CA34201D1002B15
:1002D000F8D1D8B2E1B2401A10BD2DE9FE4F8046E8
:1002E00081EA0300C00F0C46009021F0004123F08A
:1002F0000045B8EB0200A94105D240462146904690
:100300001C460B46024623F00040104347D0270D01
:10031000C7F30A00C3F30A510290401A0190402823
:100320006BDAC3F3130040F4801B0098924620B1AF
:100330000023D2EB030A63EB0B0B01985946C0F183
:100340004002504600F024F906460D4650465946F4
:10035000019A00F03CF910EB08006141002487EAA3
:10036000115284EAE7731A4340D0009A62B3019AAB
:10037000012A4FEA075215DC001B61EB02014FF026
:10038000004202EA0752CDE90042001C41F580110B
:1003900032462B4600F073F903B0BDE8F08F4046BB
:1003A0002146F9E7001B61EB0201001C41F58013B7
:1003B00000185B412018A2F5001747EB030140EA43
:1003C000D570B6196D4111E06D084FEA360645EA61
:1003D000C0754FEA0752001B61EB0201001C41F59A
:1003E000801149084FEA30000019514132462B462E
:1003F00003B0BDE8F04F00F033B90098012240008F
:100400000023D0EB020263EBE073009821464FEA31
:10041000E074B8EB000061EB0401E9E783F000430E
:100420005BE781F0004158E72DE9F04D81EA0304D4
:1004300004F0004B21F0004514464FF0000A23F071
:10044000004150EA050220D054EA01021DD0C5F354
:100450000A570246C5F31303C1F31300C1F30A564A
:1004600040F4801543F48013A7EB0608101BD64612
:1004700008F2FD3873EB050002D308F1010801E032
:1004800092185B41B8F1000F03DA00200146BDE885
:10049000F08D00204FF48011064684460EE0171BB5
:1004A00073EB050705D3121B63EB050306434CEA08
:1004B000010C49084FEA300092185B4150EA0107ED
:1004C000EDD152EA030012D082EA040083EA05016A
:1004D000084305D0101BAB4106D20122002306E0E1
:1004E00000224FF0004302E06FF0010253101AEBBC
:1004F00006004CEB085110EB0A0041EB0B01BDE884
:10050000F04D00F0ADB800F0004230F000400AD0ED
:10051000C10D01F56071C0F3160042EA0151C20835
:1005200040071143704700200146704701F0004327
:1005300030B421F0004150EA010206D00A0DA2F5C4
:100540006072C1F31301002A02DC30BC0020704746
:10055000440F44EAC104C100E01830BC00EBC250B3
:1005600000F047B830B50B46014600202022012498
:1005700009E021FA02F59D4205D303FA02F5491B71
:1005800004FA02F52844151EA2F10102F1DC30BD87
:10059000202A04DB203A00FA02F100207047914043
:1005A000C2F1200320FA03F3194390407047202A38
:1005B00004DB203A21FA02F00021704721FA02F30D
:1005C000D040C2F120029140084319467047202ACA
:1005D00006DBCB17203A41FA02F043EAE07306E06B
:1005E00041FA02F3D040C2F120029140084319467B
:1005F00070470029A8BF7047401C490008BF20F081
:100600000100704710B4B0FA80FC00FA0CF050EA18
:10061000010404BF10BC704749B1CCF1200421FA99
:1006200004F411FA0CF118BF012121430843A3EB94
:100630000C01CB1D4FEA00614FEA102042BF0020A1
:1006400010BC704700EBC35010440029A4BF10BC7D
:100650007047401C490008BF20F0010010BC7047E3
:1006600010B5141E73F1000408DA401C41F10001BA
:1006700092185B411A4301D120F0010010BD2DE911
:10068000F04D92469B4611B1B1FA81F202E0B0FA08
:1006900080F220329046FFF77BFF04460F4640EA87
:1006A0000A0041EA0B0153465A46084313D011464B
:1006B00053EA010019D0C8F140025046FFF777FF16
:1006C00005460E46504659464246FFF761FF08432D
:1006D00005D0012004E020463946BDE8F08D002019
:1006E000054346EAE0762C4337430A986305E40A5B
:1006F000A0EB08000022FD0A44EA47540A3002D564
:1007000000200146E9E7010510196941DDE90845C6
:1007100000196941BDE8F04DA2E72DE9FE4F81EADD
:10072000030404F0004421F0004100944FF0000B5A
:1007300023F0004350EA01045ED052EA03045BD088
:10074000C3F30A54C1F30A552C44A4F2F3340194C0
:10075000A0FB0254C1F3130141F48011C3F313034E
:1007600043F4801301FB024400FB034E840A970A02
:1007700044EA815447EA8357A4FB076802958D0A2F
:1007800005FB07854FEA932C04FB0C542705029DBB
:100790004FEA065847EA1637B5EB08056EEB070C2B
:1007A000870E920E47EA811742EA8312A7FB0201E5
:1007B000B6EB0B0164EB00042B0D43EA0C335E181F
:1007C00044EB1C50DA465146E7FB0201C5F3130423
:1007D0004FEA0B3343EA14534FEA0432019C43EAD5
:1007E0000603A4F10C040294009CCDE900B4FFF7C9
:1007F00046FF03B0BDE8F08F00200146F9E7C1F3E2
:100800000A52C1F3130140F2FF3341F480119A42BE
:1008100002DA00200146704740F233439A42A2F2C6
:10082000334202DC5242FFF7C2BEFFF7B1BE000006
:1008300030B5041E71F1000404DB4FF00044404267
:1008400064EB0101141E73F1000405DB1C464FF03C
:100850000043524263EB0403994208BF904230BD0B
:10086000064C074D06E0E06840F0010394E80700FD
:1008700098471034AC42F6D3FFF7B2FCF48F00086F
:1008800014900008FEE70000014800F079B900006C
:10089000C0040020014800F073B9000020050020CA
:1008A0000D4902688A4201D20C4901E00B4920310E
:1008B000D2B21423083AB2FBF3F2436C02F01F02E7
:1008C00023F003031944816404498031C164012188
:1008D0009140016570470000080402400008024092
:1008E0000179074A02EB81024265054A4432491EFA
:1008F000826501F01F0201219140C165704700002F
:10090000FC08024030B5D0E913456560446D14B170
:10091000D0E91645656090F8444004F01F050124B5
:10092000AC40056C6C60046863608368102B0368DE
:1009300003D099600068C26030BD9A600068C160F1
:1009400030BD7047102000F011BB72B6FEE700000A
:10095000144A117F1448012901D003290FD10368DB
:1009600023F400730360036843F4006303600368C7
:1009700023F400630360036843F4007303600229F7
:1009800001D003290BD1016841F480510160016855
:1009900021F480510160016841F480610160002010
:1009A000107770472000002000200240C107054852
:1009B00003D0416941F004014161416941F4803152
:1009C000416170470020024008494A69C0B222F4E0
:1009D000FC7242EAC0004861486940F00200486188
:1009E000486940F4803048617047000000200240B0
:1009F000054910B54C6944F001044C610260BFF335
:100A00006F8F436010BD000000200240094A10B5FE
:100A10005469402344F480245461EFF3108272B689
:100A200010C95B1E10C013F0FF03F9D182F31088C8
:100A300010BD00000020024070B5064600F0D4FB57
:100A40000546134C07E000BF00F0CEFB401BB04250
:100A500001D9032070BD2069C003F5D420694CF290
:100A6000FA3108400CD00B494A6802434A60810FB2
:100A700001D0A169A161810000D02061012070BD79
:100A80002069C00701D001202061002070BD000056
:100A9000002002402000002010B590F825300021F1
:100AA0000122022B03D00421C163012122E003684B
:100AB0001C6824F00E041C60836C1C6824F4807491
:100AC0001C6003681C6824F001041C6090F844302A
:100AD000046C03F01F0302FA03F36360D0E91334DC
:100AE0005C60436D33B11C6824F480741C60D0E9F1
:100AF00016345C6080F82520002280F82420084607
:100B000010BD70B590F82520002401212346022A4B
:100B100007D00422C26380F8251080F82430012415
:100B200029E00268156825F00E0515600268156851
:100B300025F001051560826C156825F48075156037
:100B400090F84420056C02F01F0201FA02F26A607C
:100B5000D0E913255560426D32B1156825F48075D2
:100B60001560D0E91625556080F8251080F82430EE
:100B7000816B01B18847204670BD90F82500704711
:100B8000F0B4016C0C6801680D6890F8442002F024
:100B90001F06042202FA06F3234211D06B070FD579
:100BA0000B689B0603D40B6823F004030B6090F8DA
:100BB000441001F01F018A40016C4A60016B1DE086
:100BC000022303FA06F727424FF0000C4FF0010210
:100BD00018D0AF0716D50C68A40605D40C6824F00D
:100BE0000A040C6080F8252090F8441001F01F01E1
:100BF0008B40016C4B6080F824C0C16A00291AD078
:100C0000F0BC08470823B340234214D02B0712D569
:100C10000B6823F00E030B6090F84410036C01F096
:100C20001F0102FA01F15960C26380F8252080F8A3
:100C300024C0416BE2E7F0BC7047000070B50400CF
:100C40000CD02B4A21681420914209D2294A0A4427
:100C5000B2FBF0F08000606427480AE0012070BD1C
:100C6000234A52420A44B2FBF0F0800060642048FC
:100C700008382064022084F825000A6847F6F070DE
:100C80008243D4E902031843D4E904352B431843C3
:100C9000A3691843E3691843236A184310430860A3
:100CA0002046FFF7FDFDA0680025B0F5804F00D17C
:100CB0006560A16C20790860D4E913014160606827
:100CC000401E032808D82046FFF70AFE606D056025
:100CD000D4E91601416002E06565A565E565E56357
:100CE000012084F8250084F82450002070BD000005
:100CF00008040240F8FFFDBF0000024070B5044642
:100D000090F82400002501280CD0012084F824004C
:100D100094F825600020012E06D084F824000225D6
:100D2000284670BD022070BD022684F82560E0636D
:100D30002068066826F0010606602046FFF7E2FDFF
:100D4000206B00282068016802D041F00E0106E007
:100D500021F0040101602068016841F00A0101608E
:100D6000A06C0168C90303D5016841F4807101607A
:100D7000606D18B1016841F48071016020680168FC
:100D800041F001010160CBE72DE9F05F05463148F4
:100D90008946017801290CD00126804606704FF45F
:100DA0007A7B5846FFF748FE07004FF0000A03D051
:100DB0004BE00220BDE8F09F51464046C8F804A031
:100DC000254C226892050AD52168490505D5216878
:100DD00021F480612160032109E0067708E02268A0
:100DE000520504D5216821F4806121600221017738
:100DF0002868012805D04FF0FF31C9F80010AE680F
:100E00001CE06868FFF7D2FD5846FFF715FE07465D
:100E1000606920F00400606115E030466968FFF702
:100E2000D3FD5846FFF708FE0700606920F4FD7007
:100E3000606102D0C9F8006005E0761CD5E90201C6
:100E40000844B042E9D8FFF783FD88F800A038468F
:100E5000B0E70000200000200020024005490120EA
:100E60004A6942F000424A614969002900DA0020DB
:100E700070470000002002402DE9FF5F254C064628
:100E8000904620789A4601280BD0012020704FF41C
:100E90007A7B5846FFF7D0FD07004FF0000904D0D9
:100EA0002AE0022004B0BDE8F09F4846C4F8049050
:100EB000194D2968490504D5286820F48060286008
:100EC0000220207726B1012E09D0022E07D00CE097
:100ED000424653460198FFF78BFD012612E041463A
:100EE0000198FFF793FD022E0AD05846FFF7A4FDA4
:100EF0004FEA0007FFF72CFD84F800903846D1E751
:100F00004FF480265846FFF797FD07466869B043BF
:100F10006861EFE720000020002002400649002021
:100F20004A69002A07DA054A8A60054A8A604969DF
:100F3000002900DA012070470020024023016745A4
:100F4000AB89EFCD10280BD1064890F88800012816
:100F500006D1054890F88800012801D102F06ABE48
:100F600070470000E807002078080020044910B509
:100F70000A68024202D00860FFF7E4FF10BD0000DB
:100F8000140401402DE9F04FDFF8209200230126E0
:100F90000324A9F1040B85B00F2709F1040AABF172
:100FA000040EFAE006FA03F52A407CD091F804C05A
:100FB0000CF0030CBCF1010F02D0BCF1020F26D1E2
:100FC000D0F808C0CDF800C04FEA430C04FA0CF882
:100FD000CDF810C0DDF800C02CEA080CCDF800C038
:100FE000D1F80C80DDF810C008FA0CF8DDF800C06C
:100FF00048EA0C08C0F80880D0F804C02CEA050CB8
:101000000D79C5F300159D4045EA0C0545600D7945
:10101000ED43AD070ED0C5684FEA430804FA08FC5B
:1010200025EA0C05D1F808C00CFA08FC4CEA050CBE
:10103000C0F80CC00D7905F00305022D16D1DD08AE
:1010400000EB850CCDF808C0DCF820805D074FEA86
:10105000D56C07FA0CF528EA05080D6905FA0CF5B8
:10106000DDF808C045EA0805CCF8205005684FEACD
:10107000430CCDF808C004FA0CFC25EA0C0591F8E5
:1010800004C00CF00308DDF808C008FA0CF848EAC0
:101090000508C0F800804D6815F4403F7CD0444DF1
:1010A000D5F860C000E077E04CF0010CC5F860C0F6
:1010B0002D6E23F0030C05F0010500953D4D6544B0
:1010C0000295AD684FEA837C4FEA1C7807FA08FC6A
:1010D00025EA0C05B0F1904F06D0DFF8DCC0604582
:1010E00005D14FF0010C20E04FF0000C1DE0DFF8BF
:1010F000CCC0604502D14FF0020C16E0DFF8C0C052
:10110000604502D14FF0030C0FE0DFF8B8C0604536
:1011100002D14FF0040C08E0DFF8ACC0604502D10A
:101120004FF0050C01E04FF0060C0CFA08FC4CEAFD
:10113000050C029DC5F808C0D9F80050CC46D1F87E
:10114000048095435FEAC82800D51543CCF80050C9
:10115000DAF80050D446D1F8048095435FEA882835
:1011600000D51543CCF80050DBF80050DC46D1F830
:10117000048095435FEA883800D51543CCF80050C9
:10118000DEF80050F446D1F8048095435FEAC83891
:1011900000D51543CCF800505B1C0A6832FA03F501
:1011A0007FF400AF05B0BDE8F08F000008040140F7
:1011B0000010024000000140000400480008004800
:1011C000000C00480010004800140048426921EA61
:1011D00002030A4043EA0241816170470AB181611A
:1011E00070478162704700000148806870470000C6
:1011F0001400002090F84120202A24D190F84020AB
:10120000012A20D0012280F84020242280F84120A9
:101210000268136823F0010313600268136823F463
:1012200080531360026813680B43136001680A68F7
:1012300042F001020A60202180F84110002180F86C
:101240004010084670470220704790F84120202A3D
:1012500022D190F84020012A1ED0012280F840209F
:10126000242280F841200268136823F001031360F0
:101270000268136823F4706343EA01211160016876
:101280000A6842F001020A60202180F84110002122
:1012900080F840100846704702207047074908B59B
:1012A0000A6E42F001020A66096E01F00101009126
:1012B00003494A6802434A6008BD0000001002402A
:1012C0000000014070B5040004D094F841000025EE
:1012D00010B106E0012070BD84F84050204600F0B7
:1012E00087F9242084F841002068016821F0010179
:1012F00001606068216820F0706008612068816882
:1013000021F400418160E0680128A06830D040F4F9
:10131000044021688860E0680228206841682AD07B
:1013200021F40061416020684168144A1143416022
:101330002068C16821F40041C160D4E90401084378
:10134000A16940EA01202168C860D4E90701084387
:10135000216808602068016841F00101016065644E
:10136000202084F84100256384F84250002070BD9D
:1013700040F40040CDE741F40061D3E70080000273
:101380002DE9F84F044690F84100DDF828A01F46EB
:1013900090468B4620287ED194F8400001287AD0D0
:1013A000012084F84000FFF71FFF0646012200904D
:1013B0001923D103204602F041F9E0BB222084F832
:1013C0004100102084F8420000256564C4F82480A0
:1013D00067856563618D3148FF274FF080784FF056
:1013E0000079FF2903D927853A46009039E0618DBD
:1013F000218500903AE05946204602F007F913E0B3
:1014000002F05AF9B8B92068406A616A0870606AE7
:10141000401C6062208D401E80B22085618D491E77
:101420006185618D01B168B1608D324600285146F9
:101430002046E5D100E002E002F092F9D0B10120AF
:10144000BDE8F88F5346002280212046009602F026
:10145000F5F80028F3D1608DFF2804D927853A4696
:1014600000954346C7E7608D2085009594F82820B5
:101470004B46C0E721682020C86121684A68084BB4
:101480001A404A6084F8410084F8425084F8405081
:101490000020D5E7FFE70220D2E70000002400800B
:1014A00000E800FE2DE9FF4F81B0044690F84100AE
:1014B000DDF838B01F46904620287BD194F84000D4
:1014C000012877D0012084F84000FFF78DFE064602
:1014D000012200901923D103204602F0AFF8002822
:1014E00053D1212084F84100102084F842000025C7
:1014F0006564C4F8248067856563608D3A49FF2779
:101500004FF080794FF0007AFF2802D927854B46AB
:1015100005E0608D208500045346000C10D0226841
:1015200098F800009062606A401C6062608D401E06
:101530006085208D401E2085401CC2B2009101E0D4
:10154000002200912046029902F060F814E000BFEA
:1015500002F031F9C8B9606A216800788862606A6F
:10156000401C6062608D401E6085208D401E80B2F0
:101570002085618D01B160B1608D324600285946E9
:101580002046E5D102F0ECF8E0B1012005B0BDE85D
:10159000F08F5B46002280212046009602F04EF834
:1015A0000028F2D1608DFF2805D927853A464B46A1
:1015B0000095C7E716E0608D2085009594F82820F7
:1015C0005346BFE721682020C86121684A68074B5D
:1015D0001A404A6084F8410084F8425084F8405030
:1015E0000020D3E70220D1E70020008000E800FEC1
:1015F00010B598B00446142111A8FEF755FE4421F9
:101600006846FEF751FE1849206888422AD180209A
:10161000009000200790684600F046F908B1FFF7F7
:1016200094F9124CE06C40F00100E064E06C11A908
:1016300000F0010016904FF44070119012201290AB
:101640000120139003201490042015904FF0904037
:10165000FFF798FCA06D40F48000A065A06D00F439
:101660008000169018B010BD0058004000100240D5
:10167000024881684268114481607047140000206C
:1016800010B50024032000F097F8072000F008F8B8
:1016900008B1012401E000F025F8204610BD00004B
:1016A00070B50E4E05460024706898B14FF47A71FB
:1016B000B1FBF0F00A490968B1FBF0F001F001F963
:1016C00040B9102D06D200222946501E00F054F8D1
:1016D000356000E00124204670BD000014000020A9
:1016E000400000201C4808B5016E41F00101016670
:1016F000016E01F001010091816D41F08051816521
:10170000806D00F080500090042000F055F8012218
:1017100000216FF00B0000F02FF8012200216FF084
:101720000A0000F029F8012200216FF0090000F002
:1017300023F800210122481F00F01EF80021012299
:10174000081F00F019F800210122881E00F014F88B
:10175000BDE8084000F0A0B800100240002809DBF6
:1017600000F01F02012191404009800000F1E020BB
:10177000C0F8001170470000F0B40E4B1B680C4617
:10178000C3F30223C3F10705042D00D90425191D55
:10179000072901D2002300E0DB1E012606FA05F12D
:1017A000491E214099409E40761E16403143F0BCB0
:1017B00003F0DFBC0CED00E0064900F0070208680A
:1017C0004FF6FF03184040EA0220034A1043086026
:1017D000704700000CED00E00000FA052B492C4B8F
:1017E0000A6832214A432B4940B1B0F5007F0868AE
:1017F00029D020F4C06040F480602CE00868C0F379
:101800004120022804D051F8800F20F4807022E09B
:10181000D1F8800020F48070C1F88000086820F4BE
:10182000C06040F400700860B2FBF3F0401C00E0C0
:10183000401E4A69520501D50028F9D14869400582
:101840000AD503207047C0F34120022806D051F882
:10185000800F40F48070086000207047D1F880004D
:1018600040F48070C1F88000086820F4C06040F443
:1018700000700860B2FBF3F0401C00E0401E4A69B3
:101880005205DBD50028F9D1D8E700004000002040
:1018900040420F00007000400248816841F48041DE
:1018A00081607047007000402DE9F84304460068ED
:1018B00000269D4D00035ED5A86D0027C00008D40A
:1018C000A86D40F08050A865A86D012700F08050F9
:1018D0000090DFF85892D9F8001041F48071C9F8EF
:1018E0000010FFF781FC804606E000BFFFF77CFC9C
:1018F000A0EB080002282BD8D9F80000C005F5D5C8
:10190000D5F8900010F4407014D0216C814211D0B1
:10191000D5F89000D5F8901020F4407041F4803153
:10192000C5F89010D5F8901021F48031C5F89010CA
:10193000C5F89000C00711D0FFF756FC804641F271
:10194000883907E0FFF750FCA0EB0801494501D9B1
:1019500003260BE0D5F890008007F3D5D5F890006A
:10196000216C20F440700843C5F890001FB1A86DA9
:1019700020F08050A8652078C00707D0D5F88800EF
:10198000616820F003000843C5F8880020788007CC
:1019900007D5D5F88800A16820F00C000843C5F8E9
:1019A00088002078400707D5D5F88800E16820F046
:1019B00030000843C5F888002078000707D5D5F81F
:1019C0008800216920F0C0000843C5F8880020780D
:1019D000800607D5D5F88800616920F44060084387
:1019E000C5F888002078400607D5D5F88800A16999
:1019F00020F440500843C5F888002078000607D539
:101A0000D5F88800E16920F440400843C5F8880013
:101A10002088C00507D5D5F88800216A20F4403019
:101A20000843C5F888002088800507D5D5F88800C8
:101A3000616A20F440200843C5F8880020884005EA
:101A40000FD5D5F88800A16A20F440100843C5F8E6
:101A50008800A06AB0F5801F03D1E86840F48010C8
:101A6000E860208800050FD5D5F88800E16A20F4E9
:101A700040000843C5F88800E06AB0F5800F03D144
:101A8000E86840F48010E8602088C0040FD5D5F8DD
:101A90008800216B20F040700843C5F88800206B57
:101AA000B0F1807F03D1E86840F48010E8602088BE
:101AB0004FF0006180040ED5D5F88800626B20F0ED
:101AC00040601043C5F88800606B884203D1E86825
:101AD00040F48010E860208840040ED5D5F88800D6
:101AE000A26B20F040601043C5F88800A06B8842CC
:101AF00003D1E86840F48010E860208800040FD526
:101B0000D5F88800E16B20F040500843C5F8880004
:101B1000E06BB0F1805F03D1E86840F48030E860AA
:101B20003046BDE8F883000000100240007000401D
:101B30002DE9F0470E4605004FF0000725D0DFF8ED
:101B40009C81D8F8000000F00F00B0420CD2D8F809
:101B5000001021F00F013143C8F80010D8F8000040
:101B600000F00F00B04210D129685D4CC80741F267
:101B7000883A52D06868DFF86C91032808D00228B0
:101B8000206826D04005002825DB0120BDE8F0872D
:101B900020688001F9D5E068E068534BC0F303107A
:101BA000401CB3FBF0F0E268C2F306225043E26847
:101BB000C2F34162521C5200B0FBF2F0484515D905
:101BC000A06810F0F00F0AD088070FD5A86830B1D0
:101BD0000CE08003D7E700F0B3F8484506D9A068C9
:101BE00020F0F00040F08000A0608027A0686968C5
:101BF00020F003000843A060FFF7F6FA814605E0F5
:101C0000FFF7F2FAA0EB090151453AD8A0686968DC
:101C100000F00C00B0EB810FF2D12868810714D5D9
:101C2000400703D5A06840F4E060A0602878000772
:101C300005D5A06820F4605040F4E060A060A06882
:101C4000A96820F0F000084304E0802F03D1A068C9
:101C500020F0F000A060D8F80010404601F00F011D
:101C6000B14216D9016821F00F0131430160FFF73D
:101C7000BBFA074607E000BFFFF7B6FAC11B5145A4
:101C800001D9032082E7D8F8000000F00F00B0422D
:101C9000F2D12878400705D5A068E96820F4E06013
:101CA0000843A0602878000706D5A068296920F4B9
:101CB000605040EAC100A06000F042F8A1680B4A01
:101CC000C1F30311515C01F01F01C84008490860CD
:101CD00008480068BDE8F047FFF7E2BC002002407A
:101CE0000010024000B4C4040024F400288F00084F
:101CF000400000201400002005480649006889685B
:101D0000054AC1F30221515C01F01F01C840704730
:101D10004000002000100240388F000805480649A6
:101D200000688968054AC1F3C221515C01F01F01B6
:101D3000C84070474000002000100240388F000863
:101D400013498868C0F381021248012A0AD08A68C0
:101D5000C2F38102022A05D08A68C2F38102032AF3
:101D600001D000207047CA6802F00303CA68C2F3BA
:101D70000312521CB0FBF2F0CA68C968C2F3062213
:101D80005043C1F34161491C4900B0FBF1F0704779
:101D9000001002400024F4002DE9F84304007AD03A
:101DA0002078F84DC00747D0A868E96800F00C001B
:101DB00001F003010C2802D0082817D001E0032904
:101DC00014D06068B0F5803F17D0B0F5A02F286818
:101DD00017D020F480302860286820F48020286004
:101DE0006068E0B1FFF700FA064614E02868800357
:101DF00022D560680028D2D01EE0286840F48030E8
:101E0000EDE740F480202860F7E700BFFFF7ECF92A
:101E1000801B642870D828688003F7D50CE0FFF792
:101E2000E3F9064605E000BFFFF7DEF9801B6428F2
:101E3000F0D828688003F7D4207880074CD5A868AC
:101E4000E96800F00C0001F003010C2802D004281E
:101E50000DD001E002290AD0E068002828682BD0C4
:101E600040F480702860FFF7BFF9064619E0286843
:101E7000400502D5E068002891D06868217C20F0F8
:101E8000FE4040EA01606860BF480068FFF708FC58
:101E9000002800D120E072E1FFF7A6F9801B02289C
:101EA000B8D828684005F7D56868217C20F0FE4046
:101EB00040EA016068600FE020F480702860FFF75E
:101EC00093F9064605E000BFFFF78EF9801B022854
:101ED000A0D828684005F7D42078000729D5606984
:101EE0000028D5F8940013D040F00100C5F8940004
:101EF000FFF77AF9064606E090E000BFFFF774F9B5
:101F0000801B022886D8D5F894008007F6D510E00B
:101F100020F00100C5F89400FFF766F9064604E0DA
:101F2000FFF762F9801B022878D8D5F89400800763
:101F3000F6D42078400761D5A86D0026C00008D4EB
:101F4000A86D40F08050A865A86D012600F0805073
:101F500000908E480168C90511D40168804641F49B
:101F600080710160FFF740F9074604E0FFF73CF994
:101F7000C01B022852D8D8F80000C005F6D5A068CA
:101F8000012815D00528D5F8900016D020F00100C2
:101F9000C5F89000D5F8900020F00400C5F8900036
:101FA000A06841F28838B8B1FFF71EF907460EE085
:101FB000D5F8900040F00100F0E740F00400C5F8CB
:101FC0009000F5E7FFF710F9C11B414526D8D5F879
:101FD00090008007F6D50CE0FFF706F9074604E00D
:101FE000FFF702F9C11B414518D8D5F890008007CA
:101FF000F6D41EB1A86D20F08050A8652078800628
:1020000029D5A0690028D5F8980013D040F0010028
:10201000C5F89800FFF7E8F8064606E075E000BF4F
:10202000FFF7E2F8801B02286FD8D5F898008007E8
:10203000F6D510E020F00100C5F89800FFF7D4F8BD
:10204000064604E0FFF7D0F8801B02285DD8D5F8DB
:1020500098008007F6D4E069F0B3A968C1F3810164
:1020600003295DD00228286820F08070286003D002
:10207000FFF7BAF804464BE0FFF7B6F8064604E06F
:10208000FFF7B2F8801B02283FD828688001F7D4F8
:10209000F4E908016FF00F0202EB01110843218AF5
:1020A0005204490802EB4151A26841EA0221084367
:1020B000217D4FF07E42490802EB41610843217BBC
:1020C00040EAC160E968324A11400843E860286884
:1020D00040F08070286000E05EE0E86840F08070CA
:1020E000E860FFF781F8044605E000BFFFF77CF8E1
:1020F000001B022809D828688001F7D54CE000BFF2
:10210000FFF772F8001B022802D90320BDE8F8830C
:1021100028688001F4D4E8681E490840E8603BE084
:102120000128F3D0E868226A00F00301914226D129
:10213000616A00F0F0020901103991421FD1A26AD0
:1021400000F4FE41B1EB022F19D194F82C2000F0DD
:102150007841B1EBC26F12D1218E00F4C002490860
:102160004905A1F50011914209D194F8341000F00D
:10217000C06049084906A1F1007181420CD00120DC
:10218000C4E700000010024014000020007000406E
:102190000C809F01FCFFEEFE0020B7E770B5040045
:1021A00009D0606A002540B125616561A56294F897
:1021B0005D0040B10CE0012070BD6068B0F5827F29
:1021C000F4D0E561F2E784F85C50204600F05CF85A
:1021D000022084F85D002068016821F04001016060
:1021E000E1684FF4E062914201D9002001E04FF430
:1021F0008050B1F5706F02D0914200D0A562A188E5
:10220000228901F4827102F404421143227C02F01B
:1022100002021143227D02F001021143228B02F4DB
:1022200000721143227F02F03802114394F82020FB
:1022300002F080021143228D02F400521143226801
:102240001160A169042202EA114194F8242000F4EB
:10225000805002F01002114394F8342002F008027A
:102260001143A28902F47062114301432068416066
:102270002068C16921F40061C1612566012084F8EC
:102280005D00002070BD000010B586B0044614212A
:102290006846FEF709F82368204C002120480222F6
:1022A000A3421AD1036E43F480530366036E03F412
:1022B00080530593C36C43F00103C364C06C00F00A
:1022C00001000590E0200090CDE901210520CDE935
:1022D000031069464FF090401CE0124CA3421BD102
:1022E000836D43F400438365836D03F400430593DA
:1022F000C36C43F00203C364C06C00F0020005909D
:102300003820CDE900020320CDE902100620049018
:1023100069460548FEF736FE06B010BD00300140A4
:1023200000100240003C0040000400482DE9F84F36
:10233000044690F85D001D4616460F4601283FD121
:10234000002F75D0002E73D060684FF00408B0F5F0
:10235000827F01D1A06848B3FEF746FF824694F819
:102360005C0001282CD04FF0010984F85C9084F8BF
:102370005D804FF00008C4F860802764A4F84460D2
:10238000A4F84660C4F83880A4F83C80A4F83E80E5
:10239000C4F84C80C4F85080E0684FF4E061884293
:1023A000206842680ED922F480520DE084F85D80E6
:1023B000009313460A46204600F03EF9BDE8F88F28
:1023C0000220FBE742F480524260A068B0F5004F63
:1023D00009D12068026822F0400202602068026889
:1023E00022F48042026020680268520603D4026828
:1023F00042F040020260E06888421BD939E0206860
:102400008168C9070BD0017B206C0170206C401CD7
:102410002064B4F84600401EA4F846000AE0FEF727
:10242000E3FEA0EB0A00A84203D3681C02D036E00A
:1024300032E09DB3B4F846000028E0D11DE02068EA
:102440008168C9070BD0C068216C0880206C801C93
:102450002064B4F84600401EA4F8460009E0FEF7E8
:10246000C3FEA0EB0A00A84202D3681C01D016E00C
:10247000A5B1B4F846000028E1D1524629462046CD
:1024800002F083F808B12020206684F85D9084F87B
:102490005C80206E002891D001208FE7FFE784F850
:1024A0005D9084F85C80032088E72DE9F84F98461A
:1024B00016468A460446FEF797FE814694F85D006C
:1024C000012820D1BAF1000F6FD0002E6DD094F802
:1024D0005C00012817D0012784F85C70032084F881
:1024E0005D0000252566C4F838A0A687E687256428
:1024F000A4F84450A4F846502565E564A068B0F5FA
:10250000004F03D00CE00220BDE8F88F206801687E
:1025100021F0400101602068016841F480410160C0
:1025200020680168490603D4016841F04001016058
:10253000E068B0F5E06F606826D908B1012E1FD1C0
:10254000A06B21680088C86006E020688168890760
:1025500009D5A16B0988C160A06B801CA063E08FC6
:10256000401EE0870CE0FEF73FFEA0EB090141456D
:1025700003D3B8F1FF3F03D04BE0B8F1000F48D0D0
:10258000E08F0028E1D139E008B1012E33D1E08F8E
:102590000128A06B03D921680088C86010E0216879
:1025A0000078087314E0E08725E043E02068816844
:1025B000890713D5E18F0129A16B07D90988C1606B
:1025C000A06B801CA063E08F801EECE7097801738C
:1025D000A06B401CA063E08F401EE4E7FEF704FE02
:1025E000A0EB0901414503D3B8F1FF3F03D010E050
:1025F000B8F1000F0DD0E08F0028D7D14A464146F0
:10260000204601F0FCFF08B120202066A06830B110
:1026100009E084F85D7084F85C50032074E720685A
:10262000C1688068009084F85D7004F85C5F606841
:102630000028F3D0012067E72DE9FF5F1D46934690
:1026400004464FF001090E9EFEF7CEFD074694F8B2
:102650005D006168012806D0B1F5827F39D1A1689B
:10266000B1BB042835D1019800287CD0BBF1000F04
:10267000FBD0002DF9D094F85C00012829D04FF050
:10268000010A84F85CA094F85D00042802D00520BB
:1026900084F85D004FF00008C4F86080C4F840B0D2
:1026A000A4F84650A4F844500199A163E587A58792
:1026B000C4F84C80C4F85080E0684FF4E061884270
:1026C00001D8012D09D92068426822F4805208E01F
:1026D000FFE7022004B0BDE8F09F2068426842F4A2
:1026E0008052426020680268520603D4026842F0B9
:1026F00040020260E0688842606846D908B1012D56
:102700003BD1A06B01882068C160A06B801CA063D6
:10271000E08F401EE08730E02068816889070FD590
:10272000E18F69B1B9F1010F0AD1A16B0988C160CC
:10273000A06B801CA063E08F401EE0874FF0000973
:1027400020688168C90711D0B4F8461071B1C0681B
:10275000216C0880206C801C2064B4F84600401E68
:10276000A4F8460000E09EE04FF00109FEF73CFDB2
:10277000C01BB04201D3701C74D1E08F0028CBD1B4
:10278000B4F846000028C7D175E008B1012D6BD11F
:10279000E08F0128A06B08D921680088C860A06B71
:1027A000801CA063E08F801E07E02168007808731A
:1027B000A06B401CA063E08F401EE08754E02068BF
:1027C000816889071AD5E18FC1B1B9F1010F15D11F
:1027D000E18F0129A16B07D90988C160A06B801C1A
:1027E000A063E08F801E06E009780173A06B401C97
:1027F000A063E08F401EE0874FF0000920688168E9
:10280000C90728D0B4F8461029B3B4F846100129F6
:1028100014D9C068216C0880206C801C2064B4F836
:102820004600801EA4F84600B4F84600012810D8DF
:102830002068416841F4805141600AE0007B216CCE
:102840000870206C401C2064B4F84600401EA4F8B8
:1028500046004FF00109FEF7C7FCC01BB04202D38F
:10286000701C01D012E08EB1E08F0028A7D1B4F81F
:1028700046000028A3D13A463146204601F0BFFE6B
:1028800050B12020206684F85C800CE084F85DA0C4
:1028900084F85C8003201DE784F85DA084F85C80E8
:1028A000206E0028F7D0012014E74FF0E021042823
:1028B000086903D020F004000861704740F004006C
:1028C000FAE710B5401EB0F1807F01D3012010BDA2
:1028D0004FF0E02460610F21601702F04AFC0020F5
:1028E000A06107202061002010BD7047704770472D
:1028F0007047704770470000F0B590F83C20012AFF
:102900003AD0012580F83C50022280F83D2003682F
:102910005A689C68194E1A4FB34201D0BB4204D189
:1029200022F4700C4A6842EA0C02DFF858C002EA4E
:102930000C02D1F800C04CEA020CC3F804C00268D3
:10294000B2420DD0B2F1804F0AD00F4B9A4207D05D
:102950000E4B9A4204D0BA4202D00D4B9A4204D197
:10296000896824F080031943916080F83D5000216C
:1029700080F83C100846F0BD0220F0BD002C01405C
:10298000003401408FFFFFFD0004004000080040BC
:1029900000400140704710B5040003D094F83D009A
:1029A00010B107E0012010BD002084F83C00204653
:1029B00000F022F8022084F83D00211D206801F07B
:1029C00053FF012084F8480084F83E0084F83F005B
:1029D00084F8400084F8410084F8420084F8430001
:1029E00084F8440084F8450084F8460084F84700E1
:1029F00084F83D00002010BD08B500680B498842EE
:102A000012D10B48016E41F400610166006E002294
:102A100000F40060009011461920FEF7ADFEBDE8FD
:102A200008401920FEF79ABE08BD0000002C0140A6
:102A30000010024090F83D10012901D0012070479C
:102A4000022180F83D100168CA6842F00102CA60A4
:102A50000068104988420ED0B0F1804F0BD00E496B
:102A6000884208D00D49884205D00D49884202D0DD
:102A70000C49884207D181680B4A1140062906D0CB
:102A8000B1F5803F03D0016841F0010101600020F1
:102A900070470000002C0140000400400008004086
:102AA00000340140004001400700010070B50446B9
:102AB00090F83C000025012814D0012684F83C60E1
:102AC000022084F83D0022689068364B184020F4BC
:102AD0007F409060086870282ED010DC10F00F0F37
:102AE00003D021E04FF0020070BD4FEA2012072A08
:102AF0001AD2DFE802F0525252524A3840002A4BB2
:102B0000C21A984249D009DCB0F5805F0DD0B0F50B
:102B1000005F1CD0B0F1101F06D13EE0102A3CD05F
:102B2000202A3AD0502A38D0012584F83D60002070
:102B300084F83C00284670BDCB68D1E901212068AB
:102B400001F0F0FE2068816841F0770109E0CB6870
:102B5000D1E90121206801F0E5FE2068816841F497
:102B600080418160E1E7CA684968206801F0EEFEB3
:102B70005021206806E0CA684968206801F0F7FE25
:102B80006021206801F0D8FECFE7CA684968206854
:102B900001F0DCFE40212068F4E72268014610467F
:102BA000F0E7000088FFCEFF2000100070472DE9FD
:102BB000F04104460068C66805694FF00007A907A0
:102BC00013D5B10711D5F91E0161012020772068C6
:102BD00080698007204602D0FFF7E8FF04E000F09C
:102BE000B7F8204600F0B5F82777680716D57007C4
:102BF00014D521686FF00400086102202077206856
:102C0000806910F4407F204602D0FFF7CFFF04E038
:102C100000F09EF8204600F09CF82777280715D58D
:102C2000300713D521686FF0080008610420207771
:102C30002068C0698007204602D0FFF7B7FF04E094
:102C400000F086F8204600F084F82777E80616D5CD
:102C5000F00614D521686FF0100008610820207775
:102C60002068C06910F4407F204602D0FFF79EFF25
:102C700004E000F06DF8204600F06BF82777E807D5
:102C800008D0F00706D021686FF0010008612046E7
:102C900000F060F8280601D4A80408D5300606D54F
:102CA00021686FF4025008612046FFF71FFEE80517
:102CB00008D5300606D521686FF48070086120467B
:102CC000FFF713FE680608D5700606D521686FF079
:102CD00040000861204600F06DF8A80608D5B0064F
:102CE00006D521686FF0200008612046FFF7FFFD40
:102CF000E80208D5F00206D521686FF4801008615B
:102D00002046FFF7F6FDA80208D5B00206D52168D7
:102D10006FF4001008612046FFF7EAFD680208D54D
:102D2000700206D521686FF4800008612046FFF725
:102D3000E1FD28020AD5300208D521686FF40000B1
:102D400008612046BDE8F041FFF724BEBDE8F081F0
:102D50007047704770B500681349884223D19FEDD2
:102D6000130A01F03BF805F0EDFB114C002520683B
:102D7000022800D325606068052800D36560A0683C
:102D8000B0F5FA7F06D34FF400614FF09040FEF7A4
:102D90001DFAA5602068401C20606068401C6060CF
:102DA000A068401CA06070BD002C01406F12833AE7
:102DB00000000020704790F88410012918D00121EC
:102DC00080F884102421C0F8881001680A680B6814
:102DD00023F001030B6022F00051002242660368D9
:102DE00019602021C0F8881080F8842010467047B0
:102DF0000220704710B50446D0F88C00202801D07E
:102E0000022010BD61B15AB10120E06600202067A8
:102E1000204602F0C1F80028F3D1E16E012901D06B
:102E2000012010BD226810211162226852E8001FA3
:102E300041F0100142E80013002BF6D110BD000054
:102E400010B500680A49884210D10A4800684068F5
:102E50004042C4B207482146C03005F097FA2146E7
:102E60000448BDE81040C030FDF71EBA10BD000098
:102E700000380140C0040020704770B5044690F847
:102E8000840001281DD0012084F884002420C4F887
:102E9000880020680568026822F00102026020684C
:102EA000826822F060620A438260204601F072FD6F
:102EB000206805602020C4F88800002084F8840081
:102EC00070BD022070BD70B5044690F884000128E2
:102ED0001DD0012084F884002420C4F888002068D4
:102EE0000568026822F0010202602068826822F010
:102EF00060420A438260204601F04CFD2068056074
:102F00002020C4F88800002084F8840070BD0220CE
:102F100070BD7047704770472DE9F0410368044663
:102F2000D86919689A6840F60F0528424FF00005E5
:102F30004FF002060AD187067ED501F0200702F085
:102F4000805C57EA0C0777D0616F42E1B64FDFF83B
:102F5000DCC2174001EA0C0C57EA0C0C6CD05FEA9B
:102F6000C07C0CD05FEAC15C09D54FF0010CC3F8FE
:102F700020C0D4F8903043F00103C4F890308307A8
:102F800009D5D30707D023681E62D4F8903043F0E8
:102F90000403C4F8903043070AD5D30708D0266845
:102FA00004233362D4F8903043F00203C4F8903025
:102FB00003070CD501F020033B4308D02668082303
:102FC0003362D4F8903043F00803C4F8903003051E
:102FD0000BD54B0109D526684FF400633362D4F852
:102FE000903043F02003C4F89030D4F89030002B98
:102FF0003DD0800609D501F0200002F08051084341
:1030000003D0616F09B120468847D4F89000216849
:103010008968490602D410F0280F2AD0204601F012
:103020003FFE2068806840061ED52068083050E8C2
:10303000001F21F0400100E021E040E80012002ADA
:10304000F3D1D4F8800078B179498163D4F8800055
:10305000FDF757FD00280AD0D4F88000816B00E00E
:103060002046BDE8F04108472046FFF754FFBDE881
:10307000F0812046FFF74FFFC4F89050F7E7D4F8EF
:103080006CC02027BCF1010F7ED15FEAC06C7BD5FC
:103090005FEAC16C78D5102018622068806840060D
:1030A00051D5D4F880100A6850680004000C3ED056
:1030B000B4F85C3083423AD9A4F85E00086800682E
:1030C00080062CD4216851E8000F20F4807041E87C
:1030D0000002002AF6D12068083050E8001F21F0D5
:1030E000010140E80012002AF5D12068083050E8BC
:1030F000001F21F0400140E80012002AF5D1C4F879
:103100008C70E566216851E8000F20F0100041E85E
:103110000002002AF6D1D4F88000FDF7BDFC266736
:10312000B4F85C00B4F85E10401A81B207E0B4F85D
:103130005C1081429BD11068800698D52667204696
:10314000FFF77EFE93E7B4F85C00B4F85E10401A17
:1031500081B2B4F85E00002889D0002987D02268A7
:1031600052E8000F20F4907042E80003002BF6D1E3
:103170002D4BDB432068083050E8002F1A4040E810
:10318000002CBCF1000F00E00EE0F3D1C4F88C700D
:10319000E5666567206850E8002F22F0100240E8DD
:1031A0000023002BF6D1C9E7C60209D5560207D580
:1031B0004FF4801018622046BDE8F041FFF7AABE28
:1031C00003060AD501F0800302F40002134304D081
:1031D000A16F00297FF444AF49E7420611D54A06A2
:1031E0000FD52046016851E8002F22F0400241E847
:1031F0000023002BF6D1C0F88870856700F06CF9C9
:1032000035E7020206D54A0004D52046BDE8F04164
:10321000FFF77FBEC00195D5002993DA2046BDE8AF
:10322000F041FFF729BE000001000010200100045A
:103230004D4B000810B5040003D0D4F8880010B13D
:1032400007E0012010BD002084F88400204600F033
:1032500027F82420C4F888002068016821F00101C3
:103260000160A06A10B1204601F0B6FB204601F0D3
:1032700059FD0128E6D02068416821F49041416061
:103280002068816821F02A0181602068016841F08E
:10329000010101602046BDE8104001F001BC0000C2
:1032A000F0B597B00646142111A8FCF7FDFF4421A4
:1032B0006846FCF7F9FF3249306888425ED1012048
:1032C0000024CDE900046846FEF7EEFA08B1FDF7E8
:1032D0003CFB2C48016E41F480410166016E01F413
:1032E00080411691C16C41F00201C164C06C11A90A
:1032F00000F002001690C02011900220CDE91204C7
:1033000003201490072015901F48FDF73BFE204D29
:103310001E48802728601820C5E90104C5E9034735
:103320006C61AC61EC6128462C62FDF787FC08B14A
:10333000FDF70BFBC6F88050AE62154D13486035A3
:10334000143028601920686005F10801102081E818
:1033500091006C614002AC61C5E907402846FDF769
:103360006DFC08B1FDF7F1FAF56701220521252072
:10337000AE62FEF701FA2520FEF7F0F917B0F0BDB6
:1033800000380140001002400004004808000240DC
:10339000C0040020704770472DE9F8430446D0F878
:1033A0008800984616460D46202802D00220BDE827
:1033B000F883A5B19EB10020C4F890002120C4F884
:1033C00088001834FDF710FFA6878146E68754F879
:1033D000100C2027183CB0F5805F02D003E00120DC
:1033E000E5E7206910B12E46002510E000260EE02A
:1033F0008021204601F024FEC0B9DEB116F8010B91
:1034000021688862B4F85600401EA4F85600B4F84B
:1034100056004B464FF00002CDF800800028E7D15F
:103420004FF04001204601F00BFE40B1C4F8887017
:103430000320BCE735F8020BC0F30800E0E7C4F84E
:1034400088700020B3E7000070B50446D0F888000B
:10345000202801D0022070BD39B332B32165A4F811
:103460005420A4F856200021C4F890102120C4F85C
:103470008800E06FD8B1154BC362E36F144818633E
:10348000E36F14485863E06F134681632068E56F6B
:1034900000F128022846216DFDF730FC38B11020DC
:1034A000C4F890002020C4F88800012070BD216875
:1034B000402008622068083050E8001F41F0800179
:1034C00040E80012002AF5D1002070BD534C0008DE
:1034D000954C00085D4B000870477047FEE7016897
:1034E0008A69D243920701D400228A620068816906
:1034F000C943C90703D0816941F001018161704767
:103500002DE9F04704460068894600268169354662
:103510001746C9064FF0200841D51021C1612FE0A0
:10352000B9F1FF3F2CD0FDF75FFEC11B494502D822
:10353000B9F1000F24D12068416894F8422001F4C9
:1035400080418369DB431B0415D4B1F5804F12D051
:10355000202A10D0416841F480414160FDF744FECB
:10356000074608E0FDF740FEC01B192803D945F0C7
:103570002005012604E020688069C0438006F1D45C
:1035800020688069C043800602D5002EC8D003E0C1
:1035900016B92168C1F81C8045F004050126216890
:1035A0008869C20505D54FF4807245F00105CA61EE
:1035B0000126410509D522684FF4806145F00805D0
:1035C000D1610126800502D40AE0800507D5216873
:1035D0004FF4007045F00205C861012600E086B195
:1035E0002046FFF77CFF54F8240B4168064A11403F
:1035F0004160206A2843206284F81D800020A07763
:1036000020773046BDE8F08700E800FE10B5C1F332
:10361000090141EA02410268029C194321435068B2
:1036200021F000414FF4806303EA5453024C2343DA
:1036300098430843506010BDFF63FF032DE9F0413C
:103640001D4617460E460446DDF8188027E0424620
:1036500029462046FFF754FF10B10120BDE8F08154
:10366000681C1CD0FDF7C0FDA0EB0800A84200D8E4
:10367000ADB92068806936EA00000ED00020B8425B
:103680000DD154F8440F40F0200044F804092020E4
:1036900060700020A0702070DFE70120EFE7206855
:1036A000806936EA000004D00020B842CFD0002064
:1036B000D4E70120F9E700002DE9F0470025914605
:1036C000884604462E4620273DE04A46414620468D
:1036D000FFF716FF00B1012520688169C9438906FB
:1036E00019D4C5B981698169C943C90612D41021A9
:1036F000C161042060642068C76120684168174A7E
:103700001140416084F8417084F8426084F8406060
:10371000012500E06664FDF767FDA0EB0901414566
:1037200002D8B8F1000F0ED16DB920688069C0438E
:10373000400708D5606C40F02000606484F8417058
:1037400084F84060012520688069C043400701D5A6
:10375000002DBAD02846BDE8F087000000E800FE42
:1037600070B516460D4604461EE0324629462046F0
:10377000FFF7C6FE08B1012070BDFDF735FD801BC7
:10378000A84200D885B920688069C04380060BD55F
:1037900054F8440F40F0200044F8040920206070E1
:1037A0000020A0702070E6E720688069C043800692
:1037B000DBD4002070BD70B516460D46044620E0EF
:1037C000324629462046FFF79BFE08B1012070BD16
:1037D000681C16D0FDF708FD801BA84200D885B9EB
:1037E00020688069C04380070BD554F8440F40F02F
:1037F000200044F80409202060700020A070207090
:10380000E4E720688069C0438007D9D4002070BDF8
:103810002DE9F05F2DED108BADF5E25DDFEDDBEA1C
:103820009FEDDBFADFF86C93DFF86CA3DFF86CB385
:10383000F0EE6ECACAED0AEACAED0BEACAED0CEA6E
:10384000B0EE6EDAF0EE6CDAB0EE6C9AB0EE6C8A36
:10385000F0EE6C8AD046B0EE6CCAF0EE6CBAB0EE08
:103860006CBAF0EE6C9AB0EE6CAAF0EE6CAACAEDEF
:103870000DEA00264C4604AD4FF4FA7703F0D0F978
:10388000B4F9000000EE100A06EB460005EB8000DC
:10389000B8EEC00A20EE0F1A80ED001AB4F902103B
:1038A0003DEE01DA00EE101AB8EEC00A20EE0F0A63
:1038B00080ED010AB4F904107CEE80CA00EE901A83
:1038C000F8EEE00A60EE8F0AC0ED020A7DEEA0DAA3
:1038D000012003F0F5F8761CB6B2BE42CED39FEDC0
:1038E000B00A0026A1468DEE00EA8CEE80DACDEE1D
:1038F00080CADFEDACDA0DF5BC5400BF03F090F9DF
:10390000B9F9061000EE101A06EB460104EB81012E
:10391000B8EEC00A20EE2D0A81ED000AB9F90820A0
:103920003CEE00CA00EE902AF8EEE00A60EEAD0A26
:10393000C1ED010AB9F90A007BEEA0BA01EE100A46
:103940000120B8EEC11A21EE2D1A81ED021A3BEECC
:1039500001BA03F0B5F8761CB6B2642ECED39FED53
:10396000920A0020CCEE00DA8BEE80CACBEE00BAD1
:103970009FED8E0A00EB400105EB8101F0EE4E0A4F
:1039800091ED001A401C80B271EE600AB84220EE40
:10399000801A01EE209A91ED011AF0EE4D0A71EEB7
:1039A000600A20EE801A01EE208A91ED021AF0EEF4
:1039B0006C0A71EE600A20EE801A41EE208AD9D39B
:1039C00000209FED7B0A00BF00EB400104EB81016A
:1039D000F0EE6D0A91ED001A401C80B271EE600AA3
:1039E000642820EE801A41EE209A91ED011AF0EE43
:1039F0004C0A71EE600A20EE801A01EE20AA91EDC9
:103A0000021AF0EE6B0A71EE600A20EE801A41EEA7
:103A100020AAD9D388ED179A88ED188AC8ED198A9B
:103A200008F16801444618EE900AC1EC039AFCF7CD
:103A30006AFD0746884618EE100AFCF764FD054645
:103A40000E4619EE100AFCF75EFD8DE8E00141EC30
:103A5000100B58A053EC102B01F04EFB206FFCF71D
:103A600052FD07468846E06EFCF74DFD05460E46C2
:103A7000A06EFCF748FD8DE8E00141EC100B54A06E
:103A800053EC102B01F038FB19EE101A5846814206
:103A900077DA18EE101A814273DA18EE901A594547
:103AA0006FDA19EE900A504988426ADA1AEE100A63
:103AB000884266DA1AEE900A884262DA2DEEAD0A82
:103AC000F0EE4C0A8AED0AEA8AED0BDA00EE8C0A77
:103AD000F0EE6B0A5446CAED0CCA00EEAB0A03F0D6
:103AE000BDFBB7EE008AC8EE000AC4ED0D0A206BDC
:103AF000FCF709FD07468846E06AFCF704FD054629
:103B00000E46A06AFCF7FFFC8DE8E00141EC100BCB
:103B100036A053EC102B01F0EFFA606BFCF7F3FCCE
:103B200041EC100B39A053EC102B01F0E5FA012009
:103B300084F8900084ED208AC4ED21EAC4ED22EAE5
:103B40009FED360AC4ED23EA84ED110A9FED340A95
:103B500084ED120A9FED330A84ED130A9FED320AB9
:103B600084ED0E0A9FED310A84ED0F0A9FED300AB5
:103B700084ED100A0DF5E25DBDEC108BBDE8F09F01
:103B8000FFE74FF47A7002F09BFF51E6000000005F
:103B90000C007A3D0809002024120020CDCC4C3DB9
:103BA0000000FA434201003A0000C842AD55033B11
:103BB000B57E253C6779726F5F7661720A783A2527
:103BC000660A793A25660A7A3A25660A00000000F4
:103BD0006163635F7661720A783A25660A793A25ED
:103BE000660A7A3A25660A000AD7233C6779726F1B
:103BF0005F6F66667365743A7825660A20207925BA
:103C0000660A20207A25660D0A0000006163635F62
:103C10006F66667365743A25660D0A0060AD5ABC1E
:103C20003FAD223C9E62553A76C37E3F4415803FAD
:103C300060727F3F2DE9F04102F0F2FF624F614C6C
:103C4000B7F9000094ED0A0A00EE900AB8EEE01A07
:103C5000DFED5E0A5E4DA4F1240611EE200AA4F108
:103C6000180884ED000AB7F9020094ED0B1A01EE72
:103C7000900AF8EEE11A11EEA01A84ED011AB7F9D4
:103C8000040094ED0C1A01EE900A2846F8EEE11AB1
:103C900011EEA01A84ED021AD4ED170AC5ED050A3B
:103CA000D4ED180AC5ED0C0AD4ED190AC5ED130AB6
:103CB000D6ED000A98ED001A70EEC10AC5ED020AB1
:103CC000D6ED010A98ED011A70EEC10AC5ED090A98
:103CD000D6ED020A98ED021A70EEC10AC5ED100A7F
:103CE00003F0D6FC95ED000A05F11C0084ED000AF6
:103CF00094ED010A03F0CCFC95ED070A05F13800BC
:103D000084ED010A94ED020A03F0C2FC95ED0E0A5F
:103D100084ED020AD6ED000AC8ED000AD4ED000ACF
:103D2000C6ED000AD6ED010AC8ED010AD4ED010A7C
:103D3000C6ED010AD6ED020AC8ED020A86ED020AB6
:103D4000B7F90600D4ED110A00EE100AB8EEC01A59
:103D50009FED200A51EE000A94ED0E1A60EE810AE2
:103D6000C4ED030AB7F90800D4ED120A01EE100AF7
:103D7000B8EEC11A51EE000A94ED0F1A60EE810AF6
:103D8000C4ED040AB7F90A00D4ED130A01EE100AD3
:103D9000B8EEC11A51EE000A94ED100A9FED0E1A0A
:103DA00020EE800A84ED050AB7F90C0000EE100A37
:103DB000F8EEC00AB3EE090A00EE810A84ED060AA5
:103DC000BDE8F08124120020080900200C007A3D93
:103DD0004C0000204201003A0000003C10B5F6EE15
:103DE000000A2DED0A8BF0EE408A8CB028EEA09AE6
:103DF0009FEDFECA9FEDFEBADFEDFEBAFE4CB7EEB8
:103E0000008A94ED030AB5EEC00AF1EE10FA0DD166
:103E100094ED041AB5EEC01AF1EE10FA06D194ED45
:103E2000051AB5EEC01AF1EE10FA7CD094ED211A05
:103E3000D4ED231A94ED222A21EE211AD4ED201A72
:103E400001EEC21A8DED041A94ED201AD4ED211A58
:103E500094ED232A21EE211AD4ED221A01EE821AC2
:103E60008DED051A94ED211AD4ED211A94ED222A34
:103E700021EE211AD4ED221A01EE821A70EEC10A47
:103E8000CDED060A04F032F9F0EE409A94ED040A02
:103E900004F02CF979EE809A94ED050A04F026F9E5
:103EA00039EE800A03F0DAF9D4ED030AC8EE00CA4D
:103EB00060EE800ACDED070AD4ED040A60EE800AB8
:103EC000CDED080AD4ED050A60EE800ACDED090AB1
:103ED000D4ED0D9A19EE900AFCF715FB3CEEE90AB9
:103EE00041EC1A0BB0EEC00A10EE100AFCF70BFB07
:103EF00081F0004153EC1A2BFCF796FAFCF716FB05
:103F000000EE100A01F044FB20EE0C0A9DED081AA9
:103F1000DDED061A60EE2B0A60EE800A20EE0B0A39
:103F200060EEA80A00E065E021EE211ADDED091A35
:103F30009DED052AB04801EEC21A0C388DED021A2B
:103F40009DED091ADDED041A9DED062A21EE211AD8
:103F5000DDED071A01EEC21A8DED031A9DED071A69
:103F6000DDED051A9DED042A21EE211ADDED081A7A
:103F700001EEC21A8DED041AD0ED001A9DED021A61
:103F800041EE201AC0ED001A90ED011A9DED032AB2
:103F900002EE201A80ED011A90ED022ADDED042ACE
:103FA00002EEA02A80ED022AD4ED002ADFED930A6A
:103FB0009DED023A62EEA02A40EE032A72EEA11AAB
:103FC000CDED011AD4ED011ADDED032A61EEA01A40
:103FD00040EE221A31EE811A8DED021A94ED021A8A
:103FE00061EE200A9DED041A40EE010A30EE820ACD
:103FF0008DED030A94ED210ADDED010A9DED021A13
:10400000DDED021A20EEC00AD4ED220A9DED022A4F
:10401000DDED012A00EEC10AD4ED230A9DED031A5D
:1040200000EEC10ADDED010A20EE091A94ED200A26
:1040300020EE200AD4ED230A00EEE10AD4ED220A94
:10404000DDED031A00EEA10ADDED011A60EE090AAA
:1040500094ED230A20EE210AD4ED201A01EE820A03
:10406000D4ED211A9DED032A01EEC20A9DED022A2C
:1040700060EE091A94ED210A20EE020A94ED222A3C
:1040800002EE620A94ED202ADDED032A02EE220AF6
:1040900094ED202A32EE011A20EE090A84ED201A4E
:1040A00094ED211A71EE200AC4ED210AD4ED220A02
:1040B00070EEA10AC4ED220AD4ED230A30EE800A84
:1040C00084ED230A94ED200A04F010F8B0EE409A33
:1040D00094ED210A04F00AF839EE009A94ED220AD0
:1040E00004F004F839EE009A94ED230A03F0FEFF81
:1040F00039EE000A03F0B2F8D4ED200AF0EE009A8F
:1041000060EE800AC4ED200AD4ED210A60EE800A38
:10411000C4ED210AD4ED220A60EE800AC4ED220A21
:10412000D4ED230A20EE800A84ED230A94ED210ABF
:10413000D4ED230A94ED211A20EE20AA94ED200A52
:10414000D4ED220A00EE60AA94ED220AD4ED230AEF
:1041500020EE200AD4ED200A00EE810AD4ED210AD7
:1041600094ED221A20EE299A94ED210A20EE200ADD
:10417000D4ED220A00EE810A00EE698A29EE090ACE
:1041800008EE080A01F0C0FBF0EE400A2AEE690AC8
:1041900001F000F8DFED1A9AF0EE480A20EE290A45
:1041A00084ED1E0AB0EE490A00F0F4FF20EE290A61
:1041B000144884ED1D0A4068B8B1134890F8E01027
:1041C00001290DD190ED370AB5EEC00AF1EE10FAD3
:1041D00006D00E48017819B984ED1F0A012101703B
:1041E00094ED1F0ADDED030A12E02EE09A99193EC4
:1041F00010580941C05E13412412002039FA8E3C48
:10420000E12E6542DC07002018090020480000204C
:1042100060EEA90A164900EEA80ADFED160A10EEB4
:10422000100A84ED1F0A884202DD30EE600A06E0C3
:10423000B5EEC00AF1EE10FA03D230EE200A84ED9A
:104240001F0A0CB0BDEC0A8B10BD9DED030A0A4994
:10425000B0EEC00A10EE100A8842F2DDDDED030A6E
:1042600094ED1F0A60EEA90A00EEA80AE7E7000035
:104270000000B4430000B4430AD7233C114808B5FA
:10428000816C41F004018164816C01F004010091B2
:10429000816C41F001018164806C002200F001001A
:1042A000009005210B20FDF767FA0B20FDF756FA69
:1042B000012205210C20FDF75FFABDE808400C2023
:1042C000FDF74CBA001002402DE9F04387B01421ED
:1042D0006846FBF7E9FF3448C16C41F02001C16436
:1042E000C16C01F020010591C16C41F00101C16474
:1042F000C16C01F001010591C16C41F00201C16482
:10430000C06CDFF8A88000F00200059000220121B7
:104310004046FCF763FF4FF0904900224FF41841EC
:104320004846FCF75BFF12204FF48817CDE90007E1
:104330000226694602964846FCF724FE0125002421
:104340000095CDE90154694640460394FCF71AFEF6
:10435000A802CDE90007694602944846FCF712FE20
:10436000E80203948DE8610069464846FCF70AFEBE
:1043700028030090CDE90154694648460394FCF7B0
:1043800001FEE8038DE86100694648460396FCF7A4
:10439000F9FD002201210A20FDF7EEF90A20FDF7C0
:1043A000DDF907B0BDE8F0830010024000040048CA
:1043B000154810B5134901601449416000210122DC
:1043C000C0E90212016141618161C1610162FCF7D2
:1043D00079FF08B1FCF7B9FA4FF480510A48FCF7AD
:1043E00009FF08B1FCF7B1FA00210748FCF72DFFDF
:1043F00008B1FCF7AAFABDE810404FF40010FCF732
:104400004DBF000000580040B00000202A16C31025
:10441000124810B5104901604FF4827141600021CB
:104420004FF4E062C0E902124FF400720161C0E98A
:1044300005121022C0E9072107224162C0E90A12D1
:1044400001634163FDF7AAFE002803D0BDE81040D8
:10445000FCF77BBA10BD00000030014004010020D1
:10446000124810B5104901604FF48271416000217B
:104470004FF4E062C0E902124FF400720161C0E93A
:1044800005121022C0E9072107224162C0E90A1281
:1044900001634163FDF782FE002803D0BDE81040B0
:1044A000FCF753BA10BD0000003C0040680100203A
:1044B00010B588B000241848059406940394049419
:1044C00000940194134902940160A921C0E90114E8
:1044D00040F2E731C0E9031444618461FEF75BFAFE
:1044E00008B1FCF732FA4FF48050039003A90A4850
:1044F000FEF7DCFA08B1FCF728FA0094019469464B
:1045000005480294FEF7F8F9002801D0FCF71DFADF
:1045100008B010BD002C0140CC010020184810B597
:10452000164901604FF4E1214160002181600C22B5
:10453000C160C0E904128161C161016241628162AE
:10454000FEF778FE08B1FCF700FA00210C48FEF7F0
:10455000BAFC08B1FCF7F9F900210948FEF78DFC17
:1045600008B1FCF7F2F90648FEF725FC002803D055
:10457000BDE81040FCF7E9B910BD0000003801406B
:104580002C040020FEE7FEE770472DE9F8430446BF
:1045900040684FF48276154689464FF400474FF441
:1045A0008068B04209D1A068B84201D0404504D12A
:1045B0002068016821F0400101604B460022802103
:1045C0002046009500F0B0F880B96068B04214D180
:1045D000A068B84201D040450FD14B4600224FF4AD
:1045E000C0612046009500F02FF830B1206E40F0F9
:1045F000200020660320BDE8F8830020FBE7F8B523
:1046000015460E460B460092044600224FF4C05158
:1046100000F01AF888B93346002280212046009520
:1046200000F082F848B9334600224FF4C0612046BA
:10463000009500F009F8002804D0206E40F020001A
:1046400020660320F8BD00002DE9FE4F4FF0000A60
:10465000984617460E4604460C9D8DF804A0FCF7BC
:10466000C3FD411BA8EB0105FCF7BEFD8146206898
:104670004FF4C06B0C3002902A480068C0EBC000B9
:1046800000EB8000000D6843009043E05E4506D1DA
:104690002FB9029800788DF804009DF80400B8F155
:1046A000FF3F37D0FCF7A0FDA0EB0900A84203D2E2
:1046B00015B1009858B32BE02068416821F0E00163
:1046C00041606068B0F5827F0BD1A068B0F5004F03
:1046D00002D0B0F5806F04D12068016821F040015C
:1046E0000160A06AB0F5005F09D12068016821F47B
:1046F000005101602068016841F40051016001200F
:1047000084F85D0084F85CA00320BDE8FE8F0025DE
:10471000401E0090206880683040B842B6D100202A
:10472000F3E70000400000202DE9F8431E469146C3
:1047300088460446089DFCF757FD401B351AFCF7D8
:1047400053FD074625480068C0F3CB30684338E086
:10475000701C37D0FCF748FDC01BA84203D215B12E
:10476000009860B32CE02068416821F0E0014160CE
:104770006068B0F5827F0BD1A068B0F5004F02D021
:10478000B0F5806F04D12068016821F0400101601C
:10479000A06AB0F5005F09D12068016821F40051DA
:1047A00001602068016841F400510160012084F833
:1047B0005D00002084F85C000320BDE8F88300253C
:1047C000401E00902068816838EA010004D0002172
:1047D0004945BDD10020F0E70121F9E74000002064
:1047E0007047FCF745BF10B594B038216846FBF719
:1047F0005BFD14210EA8FBF757FD0020FCF7EEFF30
:10480000012000900004032404210190CDE9084117
:1048100002205521CDE90A1007900C900D906846B2
:10482000FDF7BAFA08B172B6FEE70F20CDE90E0423
:10483000002010901190129004210EA8FDF778F935
:10484000002801D072B6FEE714B010BD024801681E
:1048500041F470010160704788ED00E00148FEF707
:10486000A6B90000CC0100202DE9F0430268264BD8
:10487000264D274E274C4FF08049984207D0484597
:1048800005D0A84203D0B04201D0A04203D122F00B
:1048900070074A683A43204FDFF880C0DFF8808015
:1048A00098420DD048450BD0A84209D0B04207D05D
:1048B000A04205D0B84203D0604501D0404503D1A5
:1048C00022F44075CA682A434D6922F080022A43C7
:1048D00002608A68C2620A688262984207D0A04277
:1048E00005D0B84203D0604501D0404501D10969E7
:1048F0000163012141610169C90703D0016921F008
:1049000001010161BDE8F083002C0140000400407A
:1049100000080040003401400040014000440140D4
:104920000048014010B5846842EA032224F47F4421
:104930000A432243826010BD8268034B1A400A4337
:1049400042F00701816070478FFFCFFF10B5036A07
:10495000046A24F001040462846924F0F00444EA47
:10496000021423F00A020A438461026210BD10B5EA
:10497000036A046A24F010040462846923F0A0032B
:1049800024F4704444EA023243EA01118261016274
:1049900010BD000030B5416EB9B1026891689268EF
:1049A000C1F342610B4B520F9C5CE50003F108041C
:1049B000A25CB5FBF2F2A0F86A205A5C615CD200FE
:1049C000B2FBF1F1A0F8681030BD0121A0F86A1027
:1049D000F8E70000188F000890F82810090706D59E
:1049E00001684A68836B22F400421A434A6090F8D7
:1049F0002810C90706D001684A68C36A22F4003249
:104A00001A434A6090F82810890706D501684A6859
:104A1000036B22F480321A434A6090F82810490749
:104A200006D501684A68436B22F480221A434A6023
:104A300090F82810C90606D501688A68C36B22F46D
:104A400080521A438A6090F82810890606D50168BA
:104A50008A68036C22F400521A438A6090F8281086
:104A6000490611D501684A68436C22F480121A4342
:104A70004A60416CB1F5801F06D101684A68836CB9
:104A800022F4C0021A434A6090F82810090606D59D
:104A900001684A68C06C22F4002202434A607047F1
:104AA0002DE9F84300260446C0F89060FCF79CFB13
:104AB0008046206800684FF0200500076FF07E47B1
:104AC00013D54346002229042046009700F0B8FA87
:104AD00058B1216851E8000F20F0800041E8000241
:104AE000002AF6D1C4F8885021E020680068400709
:104AF00022D5434600224FF480012046009700F063
:104B00009FFAC8B1216851E8000F20F4907041E885
:104B10000002002AF6D12068083050E8001F21F07A
:104B2000010140E80012002AF5D1C4F88C5084F845
:104B300084600320BDE8F883C4F88850C4F88C5022
:104B400044F86C6F666026760020F3E710B5806A43
:104B50000021A0F85E10FEF7DEF910BD70B5846A82
:104B6000D4F88800D4F88C50216889684FF000068A
:104B7000090606D5212804D1A4F85660204600F085
:104B8000B9F820688068400606D5222D04D1A4F823
:104B90005E60204600F084F8D4F8900040F01000E9
:104BA000C4F890002046FEF7B6F970BD10B5014676
:104BB000806A096809684FF0000289062DD4A0F8C0
:104BC0005E20036853E8001F21F4807143E800145D
:104BD000002CF6D10168083151E8003F23F00103B1
:104BE00041E80034002CF5D10168083151E8003F5C
:104BF00023F0400341E80034002CF5D12021C0F817
:104C00008C10C16E012908D1016851E8003F23F0E2
:104C1000100341E80034002CF6D10267C16E01296F
:104C200002D0FEF7B7FB10BDB0F85C10FEF708F934
:104C300010BD10B5806A01210167C16E012902D043
:104C4000FEF7A9FB10BDB0F85C104908FEF7F8F8B4
:104C500010BD10B50146806A09680968890616D436
:104C60000021A0F856100168083151E8002F22F009
:104C7000800241E80023002BF5D1026852E8001FB2
:104C800041F0400142E80013002BF6D110BDFEF7C1
:104C900023FC10BD10B5806AFEF71FFC10BD00009C
:104CA00010B5026852E8001F21F4907142E8001329
:104CB000002BF6D10E4B0268083252E8001F194053
:104CC00042E80014002CF6D1C16E012908D1016818
:104CD00051E8002F22F0100241E80023002BF6D10A
:104CE0002021C0F88C100021C166416710BD000072
:104CF000FEFFFFEF026852E8001F21F0C00142E80A
:104D00000013002BF6D10168083151E8002F22F47E
:104D1000000241E80023002BF5D12021C0F88810C3
:104D2000704700002DE9F04104460168806822695F
:104D3000E3691043626900251A431043DFF82CC26F
:104D40000A688B4B1A4002430A6020684168E26897
:104D500021F44051114341602168A069614501D0AF
:104D6000226A10438A68834B1A4002438A60206893
:104D7000C16A626A21F00F011143C1627E49236852
:104D80007E488B420DD1D0F8880010F0030006D089
:104D9000012855D0022842D003283FD152E00120FB
:104DA0003DE077498B420BD1D0F8880010F00C0021
:104DB00035D0042833D0082840D00C282ED141E02B
:104DC00070498B420BD1D0F8880010F0300026D00B
:104DD000102835D0202831D030281FD132E06A4940
:104DE0008B420BD1D0F8880010F0C00017D04028BB
:104DF00026D0802822D0C02810D123E063450DD1D1
:104E0000D0F8880010F4406009D0B0F5806F17D05A
:104E1000B0F5006F12D0B0F5406F13D010205B4991
:104E20005B4F00264FF4004263453BD160B102283E
:104E300013D004280BD0082872D10DE00220EEE731
:104E40000420ECE70820EAE7FCF756FF01E0FCF756
:104E500077FF010001D17CE01146606A37F810202D
:104E60006768B1FBF2F007EB4703834270D8B0EB01
:104E7000073F6DD8002308461946FBF7CBF9090216
:104E800041EA106102027808101871413A46002385
:104E9000FBF7C0F93F4AA0F54071914258D821680C
:104EA000C86056E0E3694FF6EF7893422CD10928A9
:104EB0004ED2DFE800F00508114D0D4D4D4D1000AC
:104EC000FCF71AFF01E0FCF729FF010004D140E0E4
:104ED000FCF736FFF9E71146606A37F81000B1FBBE
:104EE000F0F04100606801EB5001B1FBF0F0A0F17F
:104EF000100141452CD84FF6F0710140C0F342003B
:104F000001432068C16024E0092821D2DFE800F0D5
:104F1000050912200E2020201100FCF7EDFE02E012
:104F200016E0FCF7FBFE010004D112E0FCF708FFDD
:104F3000F9E71146606A37F81000B1FBF0F16068DC
:104F400001EB5001B1FBF0F0A0F1100141450AD98D
:104F500001250120A4F86A0024F8680F2846E660BD
:104F60002661BDE8F08180B299E700000080004032
:104F7000F369FFCFFFF4FF11003801400010024039
:104F80000044004000480040004C00400024F40071
:104F9000008F0008FFFC0F0070B58165A0F85C2051
:104FA00000210446C0F890102220C4F88C00D4F8E8
:104FB0008000F0B11F4BC362D4F880301E481863E4
:104FC000D4F880301D485863D4F8800013468163BC
:104FD000A56D21682A462431D4F88000FBF78EFEA7
:104FE00038B11020C4F890002020C4F88C000120B3
:104FF00070BD206940B1216851E8000F40F4807015
:1050000041E80002002AF6D12068083050E8001F6D
:1050100041F0010140E80012002AF5D12068083073
:1050200050E8001F41F0400140E80012002AF5D18D
:10503000002070BDAD4B0008334C00085D4B0008EC
:105040002DE9F047994617460D4604464FF00008F3
:10505000089E33E0701C31D0FCF7C6F8A0EB0900C5
:10506000B04218D8BEB120680168490726D5802D06
:1050700024D0402D22D0C169C94309070DD4082589
:1050800005622046FFF70CFEC4F8905084F8848037
:105090000120BDE8F0870320FBE7C069C04300059D
:1050A0000CD421684FF4006008622046FFF7F8FD39
:1050B0002020C4F8900084F88480ECE72068C06960
:1050C00035EA000004D00020B842C3D00020E0E759
:1050D0000120F9E710B50548FDF71EFFBDE81040B7
:1050E0004FF4007202490148FDF784BE2C040020F1
:1050F00080050020FEE700000FB4054B10B503A9A2
:10510000044A029800F0BEFD10BC5DF814FB0000DC
:10511000B96B0008A00000207CB50C001D461646A7
:10512000014601D0601E00E00020CDE90010064BD2
:105130006A462946304600F0A5FD002C02D0009AB0
:10514000002111707CBD00008B6300084100080243
:1051500018BF04200A0E18BF40F001004FF07F4234
:1051600032EA010108BF40F00200012808BF052013
:1051700070470907090E002804DB00F1E02080F8E1
:105180000014704700F00F0000F1E02080F8141DBB
:105190007047000070B54FF068422DED048BF0EEC3
:1051A000408A18EE900AB0EE608A18EE101A02EBF0
:1051B0004003B3F1654F3CBF02EB4102B2F1654FD2
:1051C0007DD200BFC0F3C753C1F3C7529A1A1B2A3E
:1051D00009DD10F0004F14BF9FED830A9FED830A95
:1051E000BDEC048B70BD12F11A0F36DA11F0004FCE
:1051F00009D010F0004F0CBF9FED7D0A9FED7D0A96
:10520000BDEC048B70BD88EE889A19EE100AFFF78A
:105210009DFF042808BF00F0ABFB18EE900AFFF7D3
:1052200095FF054618EE100AFFF790FF044619EEA9
:10523000100AFFF78BFF042D18BF052D08D1042C91
:1052400018BF052C04D1002804BF022000F052FC36
:10525000B0EE490ABDEC048B70BD4200B2EB410FC9
:105260003AD910F0004F19BFDFED630A9FED630AD2
:10527000DFED630A9FED630AB0EE481A0A46B1EE0D
:10528000688A80F00041F0EE418A10460A1A520006
:10529000B2F1807F34D2484010F0004FDFED5A1A4F
:1052A0009FED5A2A1DBFBEEE001A70EEE10A30EEE5
:1052B000420AB6EE001A08BF70EEA10A00E040E014
:1052C00008BF30EE020AB0EE682A01EE482A08EE66
:1052D000818AC2EE081A15E011F0004F04BF9FED5D
:1052E0004C0AF0EE400AD1D010F0004F19BFDFEDAC
:1052F000490A9FED490ADFED490A9FED490AC5E7D2
:10530000C8EE881A21EEA11A9FED462ADFED462A43
:1053100041EE022A9FED452A01EE222ADFED442AC2
:1053200041EE022A9FED432ABDEC048B01EE222AB6
:1053300021EE811A01EE020A30EE210A30EE200A37
:1053400070BD4FF07F42B2EB400F28BFB2EB410F70
:1053500009D2F0EE480AB0EE680ABDEC048BBDE855
:10536000704000F0F1BA40EA01035B0008BF41F071
:10537000FF410BD0B2EB400F08BFB2EB410F08D199
:1053800020F0804008EE900A21F0804108EE101ACB
:1053900018E7B2EB400F12BF5FEA410340F0FF4055
:1053A00001F000413FF40EAFB2EB410F12BF5FEAD4
:1053B000400200F0004041F0FF413FF403AF4A00DB
:1053C00092EA40033FF5FEAE002AACBF9FED1A0AF9
:1053D0009FED1A0A68EE808A28EE008A18EE900A7D
:1053E00018EE101AEEE60000DB0FC9BFDB0FC93F55
:1053F000DB0F4940DB0F49C00000C9BF22AAFDB93D
:105400000000C93F22AAFD390060ED3EC30ACE3735
:1054100000000000000049C022AA7DBA00004940F7
:1054200022AA7D3A2DAD65BD8FB8D53D0FB511BE11
:1054300061C84C3EA8AAAABE0000804F0000802F81
:1054400010EE101A08B5444A6846B2EB410F28D94D
:105450004FF0E640B0EB410F94BF00204FF0FF301B
:1054600000900098002861DB60EE000A10F0010F48
:1054700045D010F0020FDFED391A9FED391A00EE1A
:10548000E11ADFED381A40EE811A21EEA01AF0EE93
:10549000400A40EE010A08BFF1EE600AB0EE600A71
:1054A00008BD314B21F0004293423CD911F0004F2E
:1054B000DFED2E0A20EE201ADFED2D0A19BF31EEA6
:1054C000601A71EE200A31EE201A71EE600ABDEE0C
:1054D000E01A11EE100A9FED271A00F0030000EE0B
:1054E000C10A9FED251A009000EEC10A9FED231A14
:1054F00000EEC10A9FED221A00EEC10AB1E79FED4E
:10550000211A9FED210A10F0020F00EE810A9FED93
:105510001F1A00EE801AB7EE000A00EE810A18BFCB
:10552000B1EE400A08BD00F02BFA9AE710EE100A1F
:105530004000B0F17F4F3CBFB7EE000A08BD07D175
:105540004FF0010000F0D6FABDE8084000F000BAC4
:10555000BDE8084000F0F5B9B61F927E336D4C39B6
:10556000DA82083CA0AA2ABE490E494683F9223FA6
:105570000000004B0000C93F00A0FD390020A2330D
:105580001A61342CB93AB2BACA9F2A3DDDFFFFBE78
:1055900010B510EE104A4FF019406849002200EB98
:1055A00044002DED028B884257D8DFED650A14F0D8
:1055B000004F60EE200A14BFBEEE001AB6EE001ACD
:1055C00071EE200AFDEEE00A10EE900A00EE900A5D
:1055D000F8EEE00A9FED5B1A00EEC10A9FED5A1A41
:1055E00000EEC10ADFED590A9FED591A00EE201AAC
:1055F000DFED580A40EE010A9FED571A574B00F0B5
:10560000030100EE201A21EE000A7B4403EB810324
:10561000D3ED000A524B7B4403EB810393ED001A58
:10562000504B41EE000A7B4403EB8101801091ED69
:10563000000A70EE800AEABB00EE100AB8EEC01A4B
:10564000DFED491A9FED490ABDEC028B01EE210AFC
:10565000BCEEC00A20EE200A10BD4FF0FF40A04370
:105660001BD04FF0CE40B0EB440F82BFB7EE000A24
:10567000BDEC028B10BD3E48B0EB440F28BF0122A9
:1056800093D2022000F036FA14F0004F15D0BDEC92
:10569000028BBDE8104000F06BB914F5000F02BF9B
:1056A0009FED340ABDEC028B10BDBDEC028BBDE852
:1056B000104000E007E000F044B9BDEC028BBDE80B
:1056C000104000F04DB900EBD07359104FF07E52EE
:1056D00002EBC15100EE101AA0EB630002EBC050C8
:1056E00060EE200A00EE100A20EE208A18EE100A62
:1056F00088B118EE100AB0F1FF4F15D018EE100A5D
:10570000FFF724FD042808BF00F032F9B0EE480A84
:10571000BDEC028B10BD022000F0ECF9BDEC028B59
:10572000BDE8104000F024B9022000F0E3F9BDEC20
:10573000028BBDE8104000F013B900000000501EBD
:105740003BAAB8400070313EF4FD053712BB2A3D3C
:1057500012BB2A3EFFFFFF3EFFFF7F3F6239000082
:1057600066390000363900000000004B00007E4E14
:105770000000A0850000000000B510EE101A2DED0D
:10578000028B81B0524A6846B2EB410F2ED94FF0DE
:10579000E640B0EB410F94BF00204FF0FF30009087
:1057A0000098B0EE408A00286ADB10F0010F4BD061
:1057B00068EE080A9FED471A9FED470A00EE810A3E
:1057C0009FED461A10F0020F00EE801AB7EE000AA5
:1057D00000EE810A02BF01B0BDEC028B00BD00BF2C
:1057E00001B0B1EE400ABDEC028B00BD3C4B21F094
:1057F0000042934241D911F0004FDFED3A0A20EE0A
:10580000201ADFED390A19BF31EE601A71EE200A55
:1058100031EE201A71EE600ABDEEE01A11EE100AA8
:105820009FED321A00F0030000EEC10A9FED301A1E
:10583000009000EEC10A9FED2F1A00EEC10A9FED05
:105840002E1A00EEC10AABE728EE080A9FED2B1ACC
:10585000DFED2B0A10F0020F40EE410A9FED291AEE
:1058600000EE201A61EE000AB0EE480A08EE200AA7
:10587000B6D101B0BDEC028B00BD00F081F88FE71E
:1058800018EE100A4000B0F17F4F0DD218EE100A4A
:10589000FFF75CFC042808BF00F06AF8B0EE480A85
:1058A00001B0BDEC028B00BD09D1012000F022F94E
:1058B00001B0BDEC028B5DF804EB00F049B801B01B
:1058C000B0EE480ABDEC028B5DF804EB00F039B88D
:1058D000B61F927EB93AB2BACA9F2A3DDDFFFFBE1B
:1058E000490E494683F9223F0000004B0000C93FA2
:1058F00000A0FD390020A2331A61342C336D4C39DD
:10590000DA82083CA0AA2ABE10B52DED028BB1EEBA
:10591000C08A18EE100A20F00040C0F1FF40C00F0E
:105920000AD010EE100A20F00040C0F1FF40C00F76
:1059300004BF012000F0DEF8B0EE480ABDEC028B97
:1059400010BD30EE000A704730EE200A70470000AC
:10595000DFED020A80EEA00A7047000000000000A0
:105960009FED020A20EE000A704700000000007060
:105970009FED020A20EE000A7047000000000010B0
:105980002DE9F0014FF07F42B2EB410F9FBF4FF086
:10599000FF310160BDE8F00170474FF0004242EA7C
:1059A0000123C1F3C752783A551112F01F0C434C32
:1059B000CCF120067C44C1F3C752A2F178024FEA31
:1059C000621204EB820254F8254008BFD2E9015666
:1059D00012D0556804FA0CF425FA06F73C43976890
:1059E00005FA0CF527FA06F8D26807FA0CFCF24023
:1059F00045EA08054CEA0206A4FB034CA5FB03524A
:105A0000A6FB03631D449D4234BF012600261319E3
:105A1000334416B1934202D903E0934201D20122EA
:105A200000E00022624402F1200C9206DC0C42EA03
:105A3000443200EE102A5B03DFED210AF8EEC01AB3
:105A400000EE103A4FEA9C1C11F0004FB8EE400AED
:105A5000C0F800C020EE201A00EE105ADFED190A3F
:105A6000B8EE400A20EE200A71EE810A70EE800A3C
:105A700010EE902A02F500626FF30B0200EE902AFE
:105A800070EEE11A31EEC11ADFED101A30EE411A54
:105A90009FED0D0A20EE800A01EE210A9FED0C1AFF
:105AA00000EE810A04BFBDE8F0017047CCF18051DF
:105AB0000160BDE8F001B1EE400A7047D835000042
:105AC000000000360000802C22AAFD29DB0FC92F20
:105AD0000000C92F02E008C8121F08C1002AFAD12D
