:020000040800F2
:10000000F0470020F1010008FD4300088934000892
:10001000F9430008C3070008E5520008000000008B
:100020000000000000000000000000002147000860
:100030009108000800000000014400082347000860
:100040000B0200080B0200080B0200080B0200085C
:100050000B0200080B0200080B0200080B0200084C
:100060000B0200080B02000893080008C9070008EB
:10007000D90700080B0200080B0200080B02000859
:100080000B020008000000000B0200080B02000831
:100090000B0200080B0200080B0200080B0200080C
:1000A0000B020008A94700080B0200080B02000819
:1000B0000B0200080B0200080B0200080B020008EC
:1000C0000B0200080B0200080B0200080B020008DC
:1000D0000B020008C55200080B0200080B020008C2
:1000E0000B0200080B0200080B0200080B020008BC
:1000F0000B0200080B0200080B02000800000000C1
:10010000000000000B020008000000000B020008C5
:100110000B020008000000000B0200080B020008A0
:100120000B0200080B0200080B0200080B0200087B
:100130000B02000800000000000000000B02000895
:100140000B0200080B020008000000000000000085
:10015000000000000000000000000000000000009F
:100160000000000000000000000000000B0200087A
:100170000B0200080000000000000000000000006A
:10018000000000000B02000800000000000000005A
:10019000000000000000000000000000000000005F
:1001A00000000000000000000B0200080B02000825
:1001B0000B0200080B0200080B0200080000000000
:1001C000000000000B02000800000000000000001A
:1001D0000B0200080B020008DFF810D000F070FAE4
:1001E000004800474D690008AFF30080F047002049
:1001F0000648804706480047FEE7FEE7FEE7FEE7C1
:10020000FEE7FEE7FEE7FEE7FEE7FEE795470008AC
:10021000D90100082DE9F05F0546002092469B4673
:1002200088460646814640241BE02846414647460C
:10023000224600F094F853465A46C01A914110D312
:1002400011461846224600F07BF82D1A67EB01088C
:100250004F4622460120002100F072F817EB0009FA
:100260004E41201EA4F10104DFDC484631462A46F7
:100270004346BDE8F09F40EA01039B0703D009E035
:1002800008C9121F08C0042AFAD203E011F8013B82
:1002900000F8013B521EF9D27047D2B201E000F8DB
:1002A000012B491EFBD270470022F6E710B513461A
:1002B0000A4604461946FFF7F0FF204610BD00F03D
:1002C000004230F000400AD0C10D01F56071C0F36A
:1002D000160042EA0151C20840071143704700204E
:1002E0000146704730B5041E71F1000404DB4FF085
:1002F0000044404264EB0101141E73F1000405DB6D
:100300001C464FF00043524263EB0403994208BF7E
:10031000904230BD30B50B4601460020202201241A
:1003200009E021FA02F59D4205D303FA02F5491BC3
:1003300004FA02F52844151EA2F10102F1DC30BDD9
:10034000202A04DB203A00FA02F100207047914095
:10035000C2F1200320FA03F3194390407047202A8A
:1003600004DB203A21FA02F00021704721FA02F35F
:10037000D040C2F1200291400843194670472DE950
:10038000FE4F804681EA0300C00F0C46009021F02A
:10039000004123F00045B8EB0200A94105D24046D8
:1003A000214690461C460B46024623F0004010436F
:1003B00047D0270DC7F30A00C3F30A510290401A31
:1003C000019040286BDAC3F3130040F4801B0098BF
:1003D000924620B10023D2EB030A63EB0B0B01988A
:1003E0005946C0F140025046FFF7AAFF06460D46A7
:1003F00050465946019A00F075F910EB080061412A
:10040000002487EA115284EAE7731A4340D0009A25
:1004100062B3019A012A4FEA075215DC001B61EB17
:1004200002014FF0004202EA0752CDE90042001CEF
:1004300041F5801132462B4600F075F903B0BDE856
:10044000F08F40462146F9E7001B61EB0201001CDA
:1004500041F5801300185B412018A2F5001747EB07
:10046000030140EAD570B6196D4111E06D084FEAFD
:10047000360645EAC0754FEA0752001B61EB0201E0
:10048000001C41F5801149084FEA30000019514124
:1004900032462B4603B0BDE8F04F00F035B9009866
:1004A000012240000023D0EB020263EBE0730098CE
:1004B00021464FEAE074B8EB000061EB0401E9E784
:1004C00083F000435BE781F0004158E72DE9FE4FE0
:1004D00081EA030404F0004421F0004100944FF04D
:1004E000000B23F0004350EA01045ED052EA0304FB
:1004F0005BD0C3F30A54C1F30A552C44A4F2F3347D
:100500000194A0FB0254C1F3130141F48011C3F321
:10051000130343F4801301FB024400FB034E840ADF
:10052000970A44EA815447EA8357A4FB0768029577
:100530008D0A05FB07854FEA932C04FB0C54270515
:10054000029D4FEA065847EA1637B5EB08056EEBF1
:10055000070C870E920E47EA811742EA8312A7FB27
:100560000201B6EB0B0164EB00042B0D43EA0C33E4
:100570005E1844EB1C50DA465146E7FB0201C5F316
:1005800013044FEA0B3343EA14534FEA0432019C3D
:1005900043EA0603A4F10C040294009CCDE900B4E4
:1005A00000F0C1F803B0BDE8F08F00200146F9E784
:1005B0002DE9F04D81EA030404F0004B21F00045E1
:1005C00014464FF0000A23F0004150EA050220D003
:1005D00054EA01021DD0C5F30A570246C5F31303BE
:1005E000C1F31300C1F30A5640F4801543F480139D
:1005F000A7EB0608101BD64608F2FD3873EB050082
:1006000002D308F1010801E092185B41B8F1000F34
:1006100003DA00200146BDE8F08D00204FF4801180
:10062000064684460EE0171B73EB050705D3121B25
:1006300063EB050306434CEA010C49084FEA30001E
:1006400092185B4150EA0107EDD152EA030012D043
:1006500082EA040083EA0501084305D0101BAB4180
:1006600006D20122002306E000224FF0004302E000
:100670006FF0010253101AEB06004CEB085110EB1F
:100680000A0041EB0B01BDE8F04D00F03DB8C1F3AD
:100690000A52C1F3130140F2FF3341F480119A4230
:1006A00002DA00200146704740F233439A42A2F238
:1006B000334202DC5242FFF752BEFFF741BE000058
:1006C000064C074D06E0E06840F0010394E807009F
:1006D00098471034AC42F6D3FFF782FDF46E000861
:1006E000146F0008202A06DBCB17203A41FA02F0EB
:1006F00043EAE07306E041FA02F3D040C2F120027F
:10070000914008431946704710B5141E73F1000458
:1007100008DA401C41F1000192185B411A4301D1F3
:1007200020F0010010BD2DE9F04D92469B4611B11D
:10073000B1FA81F202E0B0FA80F220329046FFF77F
:10074000FFFD04460F4640EA0A0041EA0B0153460A
:100750005A46084313D0114653EA010019D0C8F194
:1007600040025046FFF7FBFD05460E4650465946EF
:100770004246FFF7E5FD084305D0012004E020468E
:100780003946BDE8F08D0020054346EAE0762C436B
:1007900037430A986305E40AA0EB08000022FD0A2B
:1007A00044EA47540A3002D500200146E9E7010532
:1007B00010196941DDE9084500196941BDE8F04DAE
:1007C000A2E700BFFEE7000010B5024800F0F2F813
:1007D00010BD0000F003002010B5024800F0EAF858
:1007E00010BD00005004002030B50E4D0468AC422E
:1007F00001D20D4901E00C4920310B460478083C38
:100800001425B4FBF5F2446CA40803EB840484645F
:10081000054C8034C46402F01F050124AC4004651B
:1008200030BD0000080402400008024001794A1E61
:10083000064B03EB82024265044A403282654A1E3F
:1008400002F01F0301229A40C2657047000902406E
:1008500030B5D0E913546C60446D14B1D0E916542E
:100860006C6090F8444004F01F050124AC40056C16
:100870006C60046863608468102C04D10468A26012
:100880000468E16003E00468A1600468E26030BDD0
:10089000704710B5102000F0EDF910BD72B600BF22
:1008A000FEE70146002091F82520022A03D0042209
:1008B000CA63012027E00A68126822F00E020B6862
:1008C0001A608A6C126822F480728B6C1A600A6853
:1008D000126822F001020B681A6091F8442002F0BD
:1008E0001F0301229A400B6C5A60D1E913325A60FF
:1008F0004A6D42B14A6D126822F480724B6D1A60E3
:10090000D1E916325A60012281F8252000BF002269
:1009100081F8242000BF704770B50446002594F884
:10092000250002280BD00420E063012084F8250074
:1009300000BF002084F8240000BF012534E02068B7
:10094000006820F00E00216808602068006820F030
:10095000010021680860A06C006820F48070A16C20
:10096000086094F8440000F01F0101208840216CC9
:100970004860D4E913104860606D40B1606D006854
:1009800020F48070616D0860D4E916104860012081
:1009900084F8250000BF002084F8240000BFA06B6D
:1009A00010B12046A16B8847284670BD014691F8DA
:1009B0002500704770B50446206C056820680668FD
:1009C00094F8440000F01F01042088402840E0B162
:1009D00006F00400C8B12068006800F0200028B9C3
:1009E0002068006820F004002168086094F8440042
:1009F00000F01F0104208840216C4860206B002813
:100A000056D02046216B884752E094F8440000F00D
:100A10001F0102208840284018B306F0020000B3EE
:100A20002068006800F0200040B92068006820F0CD
:100A30000A0021680860012084F8250094F8440029
:100A400000F01F0102208840216C486000BF002098
:100A500084F8240000BFE06A50B32046E16A88476A
:100A600026E094F8440000F01F0108208840284048
:100A7000F0B106F00800D8B12068006820F00E0040
:100A80002168086094F8440000F01F0101208840AC
:100A9000216C48600120E06384F8250000BF00203D
:100AA00084F8240000BF606B10B12046616B88475A
:100AB00070BD000070B504460CB9012070BD2F490F
:100AC000206888420BD22E492068401A1421B0FBBE
:100AD000F1F0800060642A48083820640AE0274961
:100AE0002068401A1421B0FBF1F0800060642348B4
:100AF00008382064022084F825002068056847F63D
:100B0000F0708543D4E90201084321690843616913
:100B10000843A1690843E1690843216A0843054382
:100B2000206805602046FFF75FFEA068B0F5804FA3
:100B300001D1002060602079A16C0860D4E9131015
:100B40004860606860B16068042809D82046FFF7F3
:100B50006DFE0020616D0860D4E91610486003E066
:100B600000206065A065E0650020E063012084F856
:100B70002500002084F8240000BF9FE708040240FD
:100B8000080002402DE9F04104460D4616461F4676
:100B90004FF0000800BF94F82400012802D1022081
:100BA000BDE8F081012084F8240000BF94F82500FE
:100BB00001283FD1022084F825000020E06320684E
:100BC000006820F00100216808603B463246294653
:100BD0002046FFF73DFE206B30B12068006840F0F2
:100BE0000E00216808600BE02068006820F0040017
:100BF000216808602068006840F00A0021680860E9
:100C0000A06C006800F4803028B1A06C006840F44B
:100C10008070A16C0860606D28B1606D006840F460
:100C20008070616D08602068006840F001002168F4
:100C3000086006E000BF002084F8240000BF4FF0E9
:100C400002084046ACE7000010B50446102C0BD15A
:100C5000064890F85600012806D1054890F856003D
:100C6000012801D102F080FF10BD0000E80600203D
:100C70004007002010B5044604480068204020B119
:100C8000024804602046FFF7DFFF10BD1404014056
:100C900078B502460B460021CAE001268E401D6849
:100CA00005EA0604002C73D01D7905F00305012D1B
:100CB00004D01D7905F00305022D13D190684E0074
:100CC0000325B540A8434E00DD68B5402843906039
:100CD000506801258D40A8431D79C5F300158D404E
:100CE000284350601D7905F00305032D09D0D06815
:100CF0004E000325B540A8434E009D68B5402843EB
:100D0000D0601D7905F00305022D13D1CE0802F144
:100D1000200555F826004D07EE0E0F25B540A843D7
:100D20004E07F60E1D69B5402843CE0802F1200596
:100D300045F8260010684E000325B540A8431D79EC
:100D400005F003054E00B540284310605D6805F4CA
:100D50004035002D6BD000BF384D2D6E45F001059C
:100D6000364E356635462D6E05F00105009500BFFF
:100D700000BF4FEAB6358E0855F826008D072E0FB6
:100D80000F25B540A843B2F1904F02D100251AE0DB
:100D90004DE02B4DAA4201D1012514E0294DAA4274
:100DA00001D102250FE0284DAA4201D103250AE016
:100DB000264DAA4201D1042505E0254DAA4201D1C4
:100DC000052500E006258E07360FB5402843214D46
:100DD0008E0845F82600204D2868A0435D6805F47C
:100DE000801505B120431C4D28602D1D2868A043A7
:100DF0005D6805F4001505B12043174D2D1D2860D1
:100E0000154D2D1F2868A0435D6805F4003505B118
:100E10002043114D2D1F28602D1F2868A0435D68B9
:100E200005F4803505B120430B4D083D2860491C71
:100E30001D68CD40002D7FF430AF78BD001002401A
:100E40000004004800080048000C0048001000485A
:100E500000140048080001400804014010B5426930
:100E600021EA020302EA010443EA0443836110BD5C
:100E70000AB1816100E081627047000001480068AA
:100E80007047000014000020034800680349096807
:100E90000844014908607047140000201C0000202D
:100EA00010B50024032000F0ADF8072000F008F88A
:100EB00008B1012401E000F02FF8204610BD000029
:100EC00070B50446002511480068D8B10F48006885
:100ED0004FF47A71B1FBF0F00D490968B1FBF0F6FF
:100EE000304601F069FB58B9102C07D20022214688
:100EF000501E00F049F80748046004E0012502E0B4
:100F0000012500E00125284670BD00001C000020DE
:100F1000200000201800002008B500BF0F48006E18
:100F200040F001000D4908660846006E00F001001F
:100F3000009000BF00BF00BF0846806D40F08050A9
:100F400088650846806D00F08050009000BF00BFAB
:100F5000042000F057F800F0F5F808BD001002403A
:100F60000146084600280DDB00BF00BF00F01F034C
:100F700001229A4043099B0003F1E023C3F80021BA
:100F800000BF00BF00BF70472DE9F05F80460D46EF
:100F9000164604F0E7F9074639462A46334601F07B
:100FA0000700C0F1070ABAF1040F02D94FF0040A92
:100FB00001E0C0F1070AD14600F1040ABAF1070FB7
:100FC00002D24FF0000A01E0A0F1030AD4464FF02C
:100FD000010A0AFA09FAAAF1010A0AEA020A0AFA55
:100FE0000CFA4FF0010B0BFA0CFBABF1010B0BEA07
:100FF000030B4AEA0B042146404604F0BBF9BDE866
:10100000F09F000000BF00F00702064B19684FF682
:10101000FF031940044B0B4343EA0221014B1960C3
:1010200000BF70470CED00E00000FA0502468ABBE5
:101030004148006800F4C060B0F5806F2BD13E4895
:101040008030006820F480703B4BC3F88000184665
:10105000006820F4C06040F40070186037480068F1
:1010600032235843364BB0FBF3F0411C00E0491EDD
:101070003148406900F48060B0F5806F01D10029EB
:10108000F5D12D48406900F48060B0F5806F51D1F2
:101090000320704708E028488030006820F4807002
:1010A000254BC3F8800045E0B2F5007F3AD12248D5
:1010B000006800F4C060B0F5806F2AD11E4880300F
:1010C000006840F480701C4BC3F88000184600682C
:1010D00020F4C06040F400701860184800683223A3
:1010E0005843174BB0FBF3F0411C00E0491E124877
:1010F000406900F48060B0F5806F01D10029F5D11E
:101100000D48406900F48060B0F5806F12D1032073
:10111000BFE709488030006840F48070064BC3F890
:10112000800007E00448006820F4C06040F480605C
:10113000014B18600020ACE7007000402000002048
:1011400040420F000348806840F4804001498860B5
:1011500070470000007000402DE9F8430446002766
:10116000B846206800F40020B0F5002F73D1B946CE
:10117000D348806D00F0805078B900BFD048806DB2
:1011800040F08050CE4988650846806D00F0805060
:10119000009000BF00BF4FF00109CA48006840F44A
:1011A0008070C8490860FFF769FE064606E0FFF751
:1011B00065FE801B022801D9032705E0C1480068AD
:1011C00000F480700028F2D000BF002F46D1BC4848
:1011D0009030006800F44075CDB1206CA84216D064
:1011E000B7489030006820F44075B548D0F89000BA
:1011F00040F48030B249C1F890000846D0F8900021
:1012000020F48030C1F890000846C0F8905005F0F6
:101210000100A0B1FFF732FE064608E0FFF72EFE00
:10122000801B41F28831884201D9032706E0A44897
:101230009030006800F002000028EFD000BF5FB9D6
:101240009F489030006820F44070216C08439C490E
:10125000C1F8900003E00CE0B84600E0B846B9F1F0
:10126000010F05D19648806D20F080509449886523
:1012700000BF207800F0010048B191488830006834
:1012800020F00300616808438D49C1F88800207888
:1012900000F00200022809D189488830006820F057
:1012A0000C00A16808438649C1F88800207800F046
:1012B0000400042809D182488830006820F03000FA
:1012C000E16808437E49C1F88800207800F00800F2
:1012D000082809D17A488830006820F0C0002169C8
:1012E00008437749C1F88800207800F020002028C2
:1012F00009D173488830006820F440606169084370
:101300006F49C1F88800207800F04000402809D1DA
:101310006B488830006820F44050A1690843684950
:10132000C1F88800207800F08000802809D1644846
:101330008830006820F44040E16908436049C1F802
:101340008800208800F48070B0F5807F09D15C4867
:101350008830006820F44030216A08435849C1F8B9
:101360008800208800F40070B0F5007F09D154484F
:101370008830006820F44020616A08435049C1F871
:101380008800208800F48060B0F5806F13D14C484D
:101390008830006820F44010A16A08434849883129
:1013A0000860A06AB0F5801F05D14548C06840F4C8
:1013B00080104349C860208800F40060B0F5006FD9
:1013C00013D13F488830006820F44000E16A0843A8
:1013D0003B4988310860E06AB0F5800F05D1384894
:1013E000C06840F480103649C860208800F48050FE
:1013F000B0F5805F13D132488830006820F040702B
:10140000216B08432E4988310860206BB0F1807F42
:1014100005D12B48C06840F480102949C860208855
:1014200000F40050B0F5005F13D125488830006803
:1014300020F04060616B0843214988310860606B8F
:10144000B0F1006F05D11E48C06840F480101C49FF
:10145000C860208800F48040B0F5804F13D1184850
:101460008830006820F04060A16B0843144988313F
:101470000860A06BB0F1006F05D11148C06840F45E
:1014800080100F49C860208800F40040B0F5004F7C
:1014900013D10B488830006820F04050E16B0843BE
:1014A000074988310860E06BB0F1805F05D10448DE
:1014B000C06840F480300249C8604046BDE8F88307
:1014C00000100240007000402DE9F04104460D4636
:1014D0004FF0000814B90120BDE8F0817D48006894
:1014E00000F00F00A8420ED27A48006820F00F00EA
:1014F0002843784908600846006800F00F00A842B9
:1015000001D00120E8E7207800F00100002864D035
:101510006068032823D17048006800F0007008B9A3
:101520000120D9E702F06EFF06466C48864237D9A3
:101530006948806800F0F00030B1207800F00200C7
:1015400002282DD1A06858BB6348806820F0F000C5
:1015500040F08000604988604FF0800820E06068BB
:10156000022806D15C48006800F4003040B9012030
:10157000B2E75948006800F4806008B90120ABE781
:1015800000F0DEF806465548864209D95248806880
:1015900020F0F00040F080004F4988604FF0800854
:1015A0004D48806820F00300616808434A4988601C
:1015B000FFF764FC074608E0FFF760FCC01B41F240
:1015C0008831884201D9032086E74348806800F0CB
:1015D0000C006168B0EB810FEED1207800F00200C2
:1015E000022820D1207800F00400042805D13A48D0
:1015F000806840F4E06038498860207800F0080096
:10160000082807D13448806820F4605040F4E06036
:10161000314988603048806820F0F000A1680843B4
:101620002D49886008E0B8F1800F05D12A4880680C
:1016300020F0F000284988602648006800F00F007C
:10164000A84219D92348006820F00F0028432149F7
:101650000860FFF713FC074608E0FFF70FFCC01B0C
:1016600041F28831884201D9032035E719480068E2
:1016700000F00F00A842F0D1207800F00400042808
:1016800007D11548806820F4E060E16808431249FA
:101690008860207800F00800082808D10E4880688B
:1016A00020F46050216940EAC1000B49886000F0D5
:1016B00047F809498968C1F30311094A515C01F0EF
:1016C0001F01C8400749086007480068FFF7F8FB9A
:1016D00002E70000002002400010024000B4C404F1
:1016E000DC6E00082000002018000020014800687F
:1016F000704700002000002000B5FFF7F7FF054904
:101700008968C1F30221044A515C01F01F01C840FD
:1017100000BD000000100240EC6E000800B5FFF7AD
:10172000E5FF05498968C1F3C221044A515C01F013
:101730001F01C84000BD000000100240EC6E000810
:1017400070B5224DAD6805F00C05042D01D120487F
:101750003AE01E4DAD6805F00C05082D01D11C487E
:1017600032E01A4DAD6805F00C050C2D2BD1174D4C
:10177000ED6805F00304154DED68C5F303156A1C0B
:10178000022C0CD0032C09D1114DB5FBF2F50F4EF4
:10179000F668C6F3062605FB06F10AE000BF0C4D0D
:1017A000B5FBF2F5094EF668C6F3062605FB06F111
:1017B00000BF00BF054DED68C5F341656D1C6B00B2
:1017C000B1FBF3F000E0002070BD0000001002400B
:1017D0000024F4002DE9F843044614B90120BDE8C3
:1017E000F883207800F00100002865D0FC4880686C
:1017F00000F00C07FA48C06800F003060C2F01D176
:10180000032E01D0082F0AD1F548006800F40030FB
:10181000002851D0606800284ED10120DFE700BFCA
:101820006068B0F5803F06D1ED48006840F4803034
:10183000EB4908601AE06068B0F5A02F0BD1E848CA
:10184000006840F48020E64908600846006840F4DB
:10185000803008600AE0E248006820F48030E04907
:1018600008600846006820F48020086000BF6068B7
:1018700088B1FFF703FB054606E0FFF7FFFA401BC0
:10188000642801D90320AAE7D548006800F4003095
:101890000028F2D010E0FFF7F1FA054606E0FFF766
:1018A000EDFA401B642801D9032098E7CC48006872
:1018B00000F400300028F2D1207800F00200022865
:1018C00060D1C748806800F00C07C548C06800F0C8
:1018D00003060C2F01D1022E01D0042F18D1C048CD
:1018E000006800F4806018B1E06808B9012076E76C
:1018F000BB48406820F0FE40217C40EA0160B849C6
:101900004860B8480068FFF7DBFA18B3012066E7C3
:10191000E06800B3B248006840F48070B0490860E5
:10192000FFF7ACFA054606E0FFF7A8FA401B0228CD
:1019300001D9032053E7AA48006800F4806000281A
:10194000F2D0A748406820F0FE40217C40EA0160C8
:10195000A349486016E0A248006820F48070A049BE
:101960000860FFF78BFA054606E0FFF787FA401B91
:10197000022801D9032032E79948006800F480600A
:101980000028F2D1207800F00800082836D16069DC
:10199000D0B193489430006840F001009049C1F8FC
:1019A0009400FFF76BFA054606E0FFF767FA401B65
:1019B000022801D9032012E789489430006800F01A
:1019C00002000028F1D019E085489430006820F02A
:1019D00001008349C1F89400FFF750FA054606E07C
:1019E000FFF74CFA401B022801D90320F7E67C4898
:1019F0009430006800F002000028F1D1207800F057
:101A00000400042872D14FF000087548806D012150
:101A100021EA107078B100BF7148806D40F08050AD
:101A20006F4988650846806D00F08050009000BFC7
:101A300000BF4FF001086C48006800F48070B0B936
:101A40006948006840F4807067490860FFF716FA3B
:101A5000054606E0FFF712FA401B022801D90320D1
:101A6000BDE66148006800F480700028F2D000BF35
:101A7000A068012808D15A489030006840F0010061
:101A80005749C1F8900021E0A06805280FD15448BB
:101A90009030006840F004005149C1F890000846B9
:101AA000D0F8900040F00100C1F890000EE04C48E2
:101AB0009030006820F001004949C1F890000846C4
:101AC000D0F8900020F00400C1F8900000BFA0689A
:101AD000A8B1FFF7D3F9054609E0FFF7CFF9401B9E
:101AE00041F28831884202D9032078E625E03C485B
:101AF0009030006800F002000028EED013E0FFF7FD
:101B0000BDF9054608E0FFF7B9F9401B41F28831FD
:101B1000884201D9032062E631489030006800F025
:101B200002000028EFD1B8F1010F05D12C48806DDB
:101B300020F080502A49886500BF207800F02000FE
:101B4000202836D1A069D0B125489830006840F0EF
:101B500001002349C1F89800FFF790F9054606E017
:101B6000FFF78CF9401B022801D9032037E61C48F7
:101B70009830006800F002000028F1D019E0184801
:101B80009830006820F001001549C1F89800FFF76F
:101B900075F9054606E0FFF771F9401B022801D9E7
:101BA00003201CE60E489830006800F00200002870
:101BB000F1D1E069002860D00948806800F00C008D
:101BC0000C287AD0E069022858D10548006820F036
:101BD000807003490860FFF751F905460DE00000E9
:101BE000001002401800002000700040FFF746F986
:101BF000401B022801D90320F1E54A48006800F0A3
:101C000000700028F2D1D4E90810401E41EA00110A
:101C1000A06A41EA0021208E0122C2EB500041EA75
:101C200040513420005DC2EB500041EA40612C205D
:101C3000005D41EAC0603B49C9683B4A1140084326
:101C40003849C8600846006840F08070086008465F
:101C5000C06840F08070C860FFF710F9054606E0E4
:101C6000FFF70CF9401B022801D90320B7E52D48E6
:101C7000006800F000700028F2D051E029480068A8
:101C800020F0807027490860FFF7F8F8054606E065
:101C9000FFF7F4F8401B022801D903209FE52148F3
:101CA000006800F000700028F2D11E48C0681F498B
:101CB00008401C49C86033E0FFE7E069012800D113
:101CC0008DE51848C66806F00301206A814225D1D7
:101CD00006F0F001606A401EB1EB001F1ED106F451
:101CE000FE41A06AB1EB002F18D106F078412C20FC
:101CF000005DB1EBC06F11D106F4C001208E01224E
:101D0000C2EB5000B1EB405F08D106F0C061342057
:101D1000005DC2EB5000B1EB406F01D001205EE5E9
:101D200000205CE5001002400C809F01FCFFEEFEED
:101D300070B504460CB9012070BD606A38B960689E
:101D4000B0F5827F00D105E00021E16102E00021D1
:101D5000216161610021A16294F85D0028B9002031
:101D600084F85C00204600F061F8022084F85D00F1
:101D70002068006820F0400021680860E068B0F545
:101D8000E06F01D9002501E04FF48055E068B0F51F
:101D9000706F05D0E068B0F5E06F01D00021A1625E
:101DA000A08800F48270218901F404410843217C59
:101DB00001F002010843217D01F001010843218B5C
:101DC00001F400710843217F01F03801084320210C
:101DD000095D01F080010843218D01F400510843A1
:101DE000216808600421A06901EA104094F82410D9
:101DF00001F01001084394F8341001F00801084381
:101E0000A18901F47061084305F4805108432168F9
:101E100048602068C06920F400602168C861002023
:101E20002066012084F85D00002085E710B586B0AB
:101E30000446142101A8FEF737FA2E49206888428B
:101E400029D100BF2C48006E40F480502A49086612
:101E50000846006E00F48050009000BF00BF00BF35
:101E60000846C06C40F00100C8640846C06C00F031
:101E70000100009000BF00BFE0200190022002900E
:101E80000020039004900520059001A94FF0904098
:101E9000FEF7FEFE2CE019492068884228D100BFD9
:101EA0001548806D40F40040134988650846806DF0
:101EB00000F40040009000BF00BF00BF0846C06CA7
:101EC00040F00200C8640846C06C00F002000090B8
:101ED00000BF00BF38200190022002900020039034
:101EE000032004900620059001A90548FEF7D0FEC6
:101EF00006B010BD0030014000100240003C004020
:101F0000000400482DE9F8430446884616461D465D
:101F100094F85D00012802D00220BDE8F883B8F1F2
:101F2000000F00D00EB90120F7E76068B0F5827F9E
:101F30000CD1A06850B9042084F85D0033464246B5
:101F400041462046009500F0B6F9E6E7FEF796FF19
:101F5000074600BF94F85C00012801D10220DCE7AD
:101F6000012084F85C0000BF042084F85D0000209C
:101F70002066C4F84080A4F84460A4F84660A063DA
:101F8000A087E087E0642065E068B0F5E06F06D9DF
:101F90002068406820F480502168486005E020688F
:101FA000406840F4805021684860A068B0F5004F58
:101FB0000BD12068006820F040002168086020688C
:101FC000006820F48040216808602068006800F004
:101FD0004000402805D02068006840F0400021689B
:101FE0000860E068B0F5E06F29D823E020688068D9
:101FF00000F0010060B12068007B216C0870206C4B
:10200000401C2064B4F84600401EA4F8460011E0CD
:10201000FEF734FFC01BA84201D3681C00B94DB9BC
:10202000012084F85D0000BF002084F85C0000BF40
:10203000032072E7B4F846000028D7D128E023E057
:102040002068806800F0010060B12068C068216CE1
:102050000880206C801C2064B4F84600401EA4F860
:10206000460011E0FEF70AFFC01BA84201D3681C1E
:1020700000B94DB9012084F85D0000BF002084F84C
:102080005C0000BF032048E7B4F846000028D7D121
:102090003A462946204602F0E7F908B1202020669A
:1020A000012084F85D0000BF002084F85C0000BFC0
:1020B000206E08B1012030E700202EE72DE9F8431B
:1020C00004460F4616461D46FEF7D8FE8046B1462A
:1020D00094F85D00012802D00220BDE8F88307B122
:1020E0000EB90120F9E700BF94F85C00012801D186
:1020F0000220F2E7012084F85C0000BF032084F88E
:102100005D0000202066A763A687E6872064A4F808
:102110004400A4F846002065E064A068B0F5004FD4
:102120000BD12068006820F040002168086020681A
:10213000006840F48040216808602068006800F072
:102140004000402805D02068006840F04000216829
:102150000860E068B0F5E06F37D9606810B1B9F198
:10216000010F09D1A06B00882168C860A06B801C9A
:10217000A063E08F401EE08723E02068806800F0C5
:10218000020002280AD1A06B00882168C860A06BF9
:10219000801CA063E08F401EE08712E0FEF76EFE19
:1021A000A0EB0800A84201D3681C00B94DB901207A
:1021B00084F85D0000BF002084F85C0000BF0320AD
:1021C0008BE7E08F0028D8D152E0606810B1B9F1F8
:1021D000010F17D1E08F01280AD9A06B0088216870
:1021E000C860A06B801CA063E08F801EE08709E0C0
:1021F000A06B007821680873A06B401CA063E08F7F
:10220000401EE08731E02068806800F0020002286C
:1022100018D1E08F01280AD9A06B00882168C86016
:10222000A06B801CA063E08F801EE0871DE0A06B88
:10223000007821680873A06B401CA063E08F401EEB
:10224000E08712E0FEF71AFEA0EB0800A84201D3D7
:10225000681C00B94DB9012084F85D0000BF002062
:1022600084F85C0000BF032037E7E08F0028CAD164
:1022700042462946204602F038F908B1202020665F
:10228000A06850B900BF002000902068C06800908E
:1022900020688068009000BF00BF012084F85D00C6
:1022A00000BF002084F85C0000BF206E08B1012050
:1022B00013E7002011E72DE9FE4F04460F46904634
:1022C0001D460C9E01200090FEF7D8FD824694F832
:1022D0005DB060680190A9460295BBF1010F0BD07B
:1022E0000198B0F5827F04D1A06810B9BBF1040F4A
:1022F00002D00220BDE8FE8F1FB1B8F1000F00D060
:102300000DB90120F6E700BF94F85C00012801D167
:102310000220EFE7012084F85C0000BF94F85D0024
:10232000042802D0052084F85D0000202066C4F84F
:102330004080A4F84650A4F84450A763E587A587D9
:10234000E0642065E068B0F5E06F02D802980128EB
:1023500006D92068406820F480502168486005E074
:102360002068406840F48050216848602068006818
:1023700000F04000402805D02068006840F0400090
:1023800021680860E068B0F5E06F56D9606810B168
:10239000B9F1010F09D1A06B00882168C860A06B5A
:1023A000801CA063E08F401EE0873EE020688068CC
:1023B00000F00200022810D1E08F70B100980128CF
:1023C0000BD1A06B00882168C860A06B801CA06343
:1023D000E08F401EE087002000902068806800F0B9
:1023E000010080B1B4F8460068B12068C068216C73
:1023F0000880206C801C2064B4F84600401EA4F8BD
:10240000460001200090FEF739FDA0EB0A00B04223
:102410000BD3701C48B1012084F85D0000BF002080
:1024200084F85C0000BF032064E7E08F0028BDD182
:10243000B4F846000028B9D18DE0606810B1B9F158
:10244000010F17D1E08F01280AD9A06B00882168FD
:10245000C860A06B801CA063E08F801EE08709E04D
:10246000A06B007821680873A06B401CA063E08F0C
:10247000401EE08768E02068806800F002000228C3
:102480001ED1E08FE0B10098012819D1E08F01281A
:102490000AD9A06B00882168C860A06B801CA0636B
:1024A000E08F801EE08709E0A06B00782168087348
:1024B000A06B401CA063E08F401EE08700200090CE
:1024C0002068806800F0010058B3B4F8460040B3BB
:1024D000B4F84600012816D92068C068216C08802D
:1024E000206C801C2064B4F84600801EA4F84600CE
:1024F000B4F84600012812D82068406840F48050A3
:10250000216848600BE02068007B216C0870206C1B
:10251000401C2064B4F84600401EA4F84600012088
:102520000090FEF7ABFCA0EB0A00B04201D3701C98
:1025300000B94EB9012084F85D0000BF002084F886
:102540005C0000BF0320D5E6E08F002893D1B4F8EB
:10255000460000288FD152463146204601F0C5FF83
:1025600040B12020206600BF002084F85C0000BF3E
:102570000120BFE6012084F85D0000BF002084F840
:102580005C0000BF206E08B10120B3E60020B1E678
:10259000042808D14FF0E021096941F004014FF00F
:1025A000E022116107E04FF0E021096921F0040108
:1025B0004FF0E0221161704770B504462546681E51
:1025C000B0F1807F01D301200FE0681E4FF0E021C1
:1025D00048610F214FF0FF3002F0CCFE00204FF099
:1025E000E021886107200861002070BD70477047B6
:1025F000704770477047704730B502460B4600BFC2
:1026000092F83C00012801D1022030BD012082F85F
:102610003C0000BF022082F83D001068416810684D
:1026200084681D4D1068A84203D01C4D1068A84254
:1026300003D121F47001586801431948014018681A
:10264000014310684160144D1068A84213D010680F
:10265000B0F1804F0FD0134D1068A8420BD0124D2F
:102660001068A84207D00D4D1068A84203D00F4D46
:102670001068A84205D124F08004986804431068CB
:102680008460012082F83D0000BF002082F83C00F9
:1026900000BF00BFB9E70000002C0140003401403A
:1026A0008FFFFFFD00040040000800400040014093
:1026B000704710B504460CB9012010BD94F83D00D8
:1026C00028B9002084F83C00204600F029F80220B8
:1026D00084F83D00211D206802F06EF8012084F886
:1026E000480000BF84F83E0001213F2001554020F2
:1026F000015541200155422001554320015500BF9D
:1027000000BF012084F844004520015546200155B2
:102710004720015500BF012084F83D000020CCE790
:1027200038B504460D492068884215D100BF0C48D1
:10273000006E40F400600A4908660846006E00F426
:102740000060009000BF00BF002211461920FEF774
:102750001BFC1920FEF704FC38BD0000002C0140D2
:1027600000100240014691F83D00012801D00120EF
:102770007047022081F83D000868C06840F0010001
:102780000B68D860184B0868984213D00868B0F1FD
:10279000804F0FD0154B086898420BD0144B086837
:1027A000984207D0134B0868984203D0124B086830
:1027B000984210D108688068104B00EA0302062A8C
:1027C0000FD0B2F5803F0CD00868006840F00100DF
:1027D0000B68186005E00868006840F001000B68AD
:1027E00018600020C4E70000002C014000040040F5
:1027F0000008004000340140004001400700010093
:102800002DE9F04104460D46002700BF94F83C0036
:10281000012802D10220BDE8F081012084F83C00AB
:1028200000BF022084F83D00206886683F480640CB
:1028300026F47F46206886602868702824D00CDC47
:1028400000F00F01002964D10011072861D2DFE8F0
:1028500000F05354555649353F00354A811A90428D
:102860004FD009DCB0F5805F0DD0B0F5005F18D017
:10287000B0F1101F4DD143E0102943D0202942D0A0
:10288000502946D140E046E0D5E902136A68206845
:1028900001F0F8FF2068866846F0770620688660B9
:1028A00039E0D5E902136A68206801F0EBFF20687F
:1028B000806840F48040216888602CE0EA6869689C
:1028C000206801F0F7FF5021206801F0E7FF22E0C7
:1028D000EA686968206802F000F86021206801F069
:1028E000DDFF18E0EA686968206801F0E3FF402135
:1028F000206801F0D3FF0EE000BF00BF00BF00BFA3
:1029000000BF00BF00BF00BF2968206801F0C6FFFC
:1029100001E0012700BF00BF012084F83D0000BF97
:10292000002084F83C0000BF384674E788FFCEFFE3
:1029300020001000704770B504462068C668206803
:10294000056905F00200022819D106F002000228EC
:1029500015D1401F21680861012020772068806917
:1029600000F0030018B12046FFF7E4FF05E0204621
:1029700000F0F1F8204600F0EFF80020207705F095
:102980000400042819D106F00400042815D1C0431E
:1029900021680861022020772068806900F4407077
:1029A00018B12046FFF7C6FF05E0204600F0D3F837
:1029B000204600F0D1F80020207705F00800082814
:1029C00019D106F00800082815D1C0432168086114
:1029D000042020772068C06900F0030018B1204669
:1029E000FFF7A8FF05E0204600F0B5F8204600F00C
:1029F000B3F80020207705F01000102819D106F058
:102A00001000102815D1C0432168086108202077E4
:102A10002068C06900F4407018B12046FFF78AFFB3
:102A200005E0204600F097F8204600F095F80020D9
:102A3000207705F0010048B106F0010030B16FF0D9
:102A4000010021680861204600F088F805F0800048
:102A5000802804D005F40050B0F5005F0AD106F0DC
:102A60008000802806D16FF402502168086120465A
:102A7000FFF7BDFD05F48070B0F5807F0AD106F048
:102A80008000802806D16FF480702168086120469C
:102A9000FFF7ACFD05F04000402809D106F04000EA
:102AA000402805D1C04321680861204600F0A8F8FD
:102AB00005F02000202809D106F02000202805D1AB
:102AC000C043216808612046FFF792FD05F480109D
:102AD000B0F5801F0BD106F48010B0F5801F06D131
:102AE0006FF48010216808612046FFF783FD05F42C
:102AF0000010B0F5001F0BD106F40010B0F5001F58
:102B000006D16FF40010216808612046FFF771FDBF
:102B100005F48000B0F5800F0BD106F48000B0F50D
:102B2000800F06D16FF48000216808612046FFF70E
:102B300062FD05F40000B0F5000F0BD106F40000B3
:102B4000B0F5000F06D16FF400002168086120463F
:102B5000FFF7AEFD70BD70477047000010B504462A
:102B60002149206888423ED19FED200A01F058F8A3
:102B70001F48006802280AD31E480078022803D1A3
:102B80001C48007804F09EF80020194908601A4893
:102B9000006805280AD317480078012803D1154892
:102BA000007804F08FF8002013490860134800688B
:102BB000B0F5FA7F08D34FF400614FF09040FEF774
:102BC0004DF900200D49086009480068401C08497B
:102BD000086009480068401C074908600748006809
:102BE000401C0649086010BD002C01406F12833A5A
:102BF0000000002010000020040000200C00002035
:102C00007047014600BF91F88400012801D10220DD
:102C10007047012081F8840000BF2420C1F888009B
:102C2000086802680868006820F001000B681860F6
:102C300022F0005200204866086802602020C1F897
:102C4000880000BF002081F8840000BF00BFDFE7DC
:102C50002DE9F04104460E461746D4F88C00202892
:102C600025D106B117B90120BDE8F0810120E06649
:102C7000002020673A463146204602F069FA0546B0
:102C80009DB9E06E01280FD110202168086200BFB5
:102C900000BF216851E8001F41F01000226842E89F
:102CA00000010029F5D100E001252846DCE70220DB
:102CB000DAE7000070B504460E46094920688842EC
:102CC0000DD10848006840684042C5B22946064810
:102CD00003F0B0FF29460448FDF7E6FA00BF70BDD7
:102CE00000380140F0030020B0040020704770B5A8
:102CF00004460D4600BF94F88400012801D102204B
:102D000070BD012084F8840000BF2420C4F888002E
:102D1000206806682068006820F0010021680860CB
:102D20002068806820F06060284321688860204621
:102D300001F0E8FD206806602020C4F8880000BF8C
:102D4000002084F8840000BF00BFD9E770B50446B6
:102D50000D4600BF94F88400012801D1022070BD07
:102D6000012084F8840000BF2420C4F88800206873
:102D700006682068006820F001002168086020686B
:102D8000806820F06040284321688860204601F078
:102D9000B9FD206806602020C4F8880000BF00202C
:102DA00084F8840000BF00BFD9E7704770477047C0
:102DB0002DE9F04704462068C56920680668206848
:102DC000876840F60F0005EA0009B9F1000F0FD13E
:102DD00005F0200060B106F0200010B907F0805027
:102DE00030B1606F10B12046616F8847BDE8F08751
:102DF000B9F1000F7ED0DF48384018B9DE483040C6
:102E00000028F7D005F0010058B106F4807040B1F9
:102E1000012021680862D4F8900040F00100C4F855
:102E2000900005F0020058B107F0010040B1022007
:102E300021680862D4F8900040F00400C4F89000C3
:102E400005F0040058B107F0010040B104202168EA
:102E50000862D4F8900040F00200C4F8900005F039
:102E6000080070B106F0200010B9C248384040B1E7
:102E7000082021680862D4F8900040F00800C4F8E7
:102E8000900005F4006060B106F0806048B14FF436
:102E9000006021680862D4F8900040F02000C4F877
:102EA0009000D4F89000002852D005F0200050B1D6
:102EB00006F0200010B907F0805020B1606F10B10B
:102EC0002046616F8847D4F890A02068806800F0A1
:102ED0004000402802D00AF0280070B3204601F0DC
:102EE00007FF2068806800F04000402826D100BF1E
:102EF00000BF00E02DE02168083151E8001F21F0FB
:102F000040002168083141E80002002AF1D100BFE9
:102F1000D4F8800068B19948D4F880108863D4F858
:102F20008000FDF7F9FC98B1D4F88000816B8847E8
:102F30000EE02046FFF73BFF0AE003E02046FFF7E4
:102F400036FF05E02046FFF732FF0020C4F890006E
:102F50004CE7E06E012865D105F01000002861D033
:102F600006F010000028FAD01020216808622068BE
:102F7000806800F0400040287AD1D4F880000068D2
:102F800040681FFA80F8B8F1000F5CD0B4F85C001C
:102F9000404558DDA4F85E80D4F8800000680068E1
:102FA00000F02000E8BB00BF00BF216851E8001F0F
:102FB00021F48070226842E800010029F5D100BFA9
:102FC00000BF00BF2168083151E8001F21F0010057
:102FD0002168083141E80002002AF3D100BF00BF98
:102FE00000BF2168083151E8001F21F0400021682E
:102FF000083141E80002002AF3D100BF2020C4F8C4
:103000008C000020E06600BF00BF216851E8001F6F
:1030100021F01000226842E800010029F5D100BF2C
:1030200001E004E068E0D4F88000FDF73AFC0220FB
:103030002067B4F85C00B4F85E20801A81B22046A4
:10304000FFF738FE12E0B4F85C0040450ED1D4F82A
:1030500080000068006800F02000202806D10220CF
:103060002067B4F85C102046FFF724FEBEE6FFE7B9
:1030700034F85C0F6188401A1FFA80F860885C3C65
:10308000C8B3B8F1000F36D000BF00BF216851E8C7
:10309000001F21F49070226842E800010029F5D158
:1030A00000BF00BF00BF2168083151E8001F314A4E
:1030B000D24301EA02002168083141E80002002AF7
:1030C000F1D100BF2020C4F88C000020E0666067CA
:1030D00000BF00BF216851E8001F21F010002268E6
:1030E00042E800010029F5D100BF022020674146D7
:1030F0002046FFF7DFFD79E605F4801050B107F4B4
:10310000800038B14FF48010216808622046FFF734
:103110004DFE6BE605F0800058B106F0800010B956
:1031200007F4000028B1A06F10B12046A16F8847B6
:103130005CE605F0400030B106F0400018B12046D2
:1031400001F00CFE52E605F4000030B106F08040BC
:1031500018B12046FFF729FE48E605F0807030B12F
:1031600006F0004018B12046FFF7C0FD3EE600BF64
:103170003CE6000001000010200100043F4B000865
:1031800010B504460CB9012010BDA06900B100E0E3
:1031900000BFD4F8880028B9002084F884002046B5
:1031A00000F02AF82420C4F888002068006820F085
:1031B000010021680860A06A10B1204601F0CEFB32
:1031C000204601F003FE012800D1DDE720684068B9
:1031D00020F49040216848602068806820F02A0030
:1031E000216888602068006840F00100216808605C
:1031F000204601F02FFCC7E710B598B00446142113
:1032000013A8FDF751F8442102A8FDF74DF83D49F8
:103210002068884273D1012002900020039002A808
:10322000FDF79AFF08B1FDF739FB00BF3648006E85
:1032300040F48040344908660846006E00F480403F
:10324000019000BF00BF00BF0846C06C40F0020004
:10325000C8640846C06C00F00200019000BF00BFC7
:10326000C020139002201490002015900320169087
:103270000720179013A92548FDF70AFD2448254982
:10328000086018204860002122488160C1608021C8
:103290000161002141618161C1610162FDF70AFCA8
:1032A00008B1FDF7FBFA00BF1A48C4F88000846239
:1032B00000BF1748143018490860192048601021D1
:1032C000154881600021C1608021016100214161B8
:1032D0008161C1614FF400510162FDF7EBFB08B160
:1032E000FDF7DCFA00BF0C48E067846200BF0122F2
:1032F00003212520FDF748FE2520FDF731FE18B0FB
:1033000010BD0000003801400010024000040048D9
:1033100008000240F003002050040020704770476E
:103320002DE9F84F04460E4617469946D4F8880012
:10333000202854D106B117B90120BDE8F88F00202C
:103340005434E06321206063FDF798FD82462780B6
:103350006780543CA068B0F5805F04D1206910B943
:103360000025B04602E035464FF0000820E0534605
:10337000002280212046CDF8009001F04DFF20B1C1
:103380002020C4F888000320D7E745B9B8F800002A
:10339000C0F308002168886208F1020803E0287879
:1033A000216888626D1CB4F85600401EA4F85600CF
:1033B000B4F856000028DAD15346002240212046B6
:1033C000CDF8009001F028FF20B12020C4F888003B
:1033D0000320B2E72020C4F888000020ADE70220D7
:1033E000ABE7000070B504460E461546D4F88800D9
:1033F00020283FD106B10DB9012070BD44F8506FAF
:10340000A580E580002020642120A063E06A503C74
:10341000E0B11948E16FC8621848E16F08631848C5
:10342000E16F48630020E16F8863236803F128029D
:103430002B46216DE06FFDF7A5FB38B11020C4F8D5
:1034400090002020C4F888000120D6E740202168A1
:10345000086200BF00BF2168083151E8001F41F039
:1034600080002168083141E80002002AF3D100BF42
:103470000020C2E70220C0E78B4C0008E14C0008A6
:10348000534B00087047704700BFFEE710B52DEDA5
:10349000068BADF5505D00240021CDF81415CDF854
:1034A0001815CDF81C15CDF80815CDF80C15CDF86C
:1034B000101513911491159110911191129100BF53
:1034C0009FEDFE0A0DF5806080ED450A9FEDFB0A39
:1034D00080ED460A9FEDF90A80ED470A9FEDF70A55
:1034E00080ED420A9FEDF50A80ED430A9FEDF30A55
:1034F00080ED440A0020F24948840021F04881848C
:10350000C1849FEDEE0A8DED130A9FEDEC0A8DED5F
:10351000140A9FEDEA0A8DED150A9FEDE80A8DED7C
:10352000100A9FEDE60A8DED110A9FEDE40A8DED7C
:10353000120A0020E24988830021E148C183018406
:1035400000245BE002F02AFEDE48B0F9000000EE45
:10355000100AB8EEC00A04EB44000DF5A46101EBBB
:10356000800080ED000AD748B0F9020000EE100A92
:10357000B8EEC00A04EB440001EB800080ED010AC4
:10358000D048B0F9040000EE100AB8EEC00A04EB0F
:10359000440001EB800080ED020A0DF5806090EDA3
:1035A000450A04EB440001EB8000D0ED000A30EE48
:1035B000200A0DF5806080ED450A90ED460A04EB87
:1035C000440001EB8000D0ED010A30EE200A0DF539
:1035D000806080ED460A90ED470A04EB440001EB61
:1035E0008000D0ED020A30EE200A0DF5806080EDFB
:1035F000470A012002F086FD601C84B2B4F57A7F90
:10360000A0DB0DF5806090ED450ADFEDAF0A80EE9E
:10361000201A80ED451A90ED460ADFEDAB0A80EEE8
:10362000201A80ED461A90ED470ADFEDA70A80EEDA
:10363000201A80ED471A002452E002F0AFFDA148A5
:10364000B0F9060000EE100AB8EEC00A04EB440020
:1036500016A901EB800080ED000A9A48B0F9080035
:1036600000EE100AB8EEC00A04EB440001EB800043
:1036700080ED010A9348B0F90A0000EE100AB8EE96
:10368000C00A04EB440001EB800080ED020A9DEDCE
:10369000130A04EB440001EB8000D0ED000A30EE89
:1036A000200A8DED130A9DED140A04EB440001EB92
:1036B0008000D0ED010A30EE200A8DED140A9DED58
:1036C000150A04EB440001EB8000D0ED020A30EE55
:1036D000200A8DED150A0A2002F014FD601C84B248
:1036E000642CAADB9DED130ADFED780A80EE201A28
:1036F0008DED131A9DED140ADFED740A80EE201A89
:103700008DED141A9DED150ADFED700A80EE201A7A
:103710008DED151A002469E004EB44000DF5A46159
:1037200001EB800090ED000A0DF58060D0ED450AB8
:1037300030EE600ADFED660A60EE200A04EB44001A
:1037400001EB800090ED000A0DF5806090ED451AC8
:1037500030EE411A90ED420A00EE810A80ED420AF5
:1037600004EB440001EB800090ED010A0DF5806050
:10377000D0ED460A30EE600ADFED550A60EE200A11
:1037800004EB440001EB800090ED010A0DF5806030
:1037900090ED461A30EE411A90ED430A00EE810A90
:1037A00080ED430A04EB440001EB800090ED020A37
:1037B0000DF58060D0ED470A30EE600ADFED440A77
:1037C00060EE200A04EB440001EB800090ED020A59
:1037D0000DF5806090ED471A30EE411A90ED440AE5
:1037E00000EE810A80ED440A601C84B2B4F57A7F51
:1037F00092DB00245CE004EB440016A901EB80009E
:1038000090ED000ADDED130A30EE600ADFED310ABB
:1038100060EE200A04EB440001EB800090ED000A0A
:103820009DED131A30EE411A9DED100A00EE810A4B
:103830008DED100A04EB440001EB800090ED010ACD
:10384000DDED140A30EE600ADFED220A60EE200A98
:1038500004EB440001EB800090ED010A9DED141A89
:1038600030EE411A9DED110A00EE810A8DED110A2C
:1038700004EB440001EB800090ED020ADDED150A37
:1038800030EE600ADFED130A60EE200A04EB44001C
:1038900001EB800090ED020A9DED151A30EE411A01
:1038A0009DED120A00EE810A8DED120A601C84B2B1
:1038B000642CA0DB0DF580600EE00000000000002D
:1038C000A80700209807002000007A440000C842A2
:1038D0000534833AB57E253C90ED440A10EE101A6B
:1038E0000846FCF7ECFC41EC180B0DF5806090ED00
:1038F000430A10EE101A0846FCF7E1FC41EC190BE4
:103900000DF5806090ED420A10EE101A0846FCF7A3
:10391000D6FC41EC1A0B8DED028B8DED009B53EC28
:103920001A2B64A001F0E0FC9DED120A10EE101AB3
:103930000846FCF7C4FC41EC180B9DED110A10EE93
:10394000101A0846FCF7BBFC41EC190B9DED100A60
:1039500010EE101A0846FCF7B2FC41EC1A0B8DED84
:10396000028B8DED009B53EC1A2B59A001F0BCFC8F
:103970000DF5806090ED420A5FED2C0AB4EEE00A8E
:10398000F1EE10FA7BD290ED430A5FED300AB4EE0F
:10399000E00AF1EE10FAF5D290ED440A5FED350A37
:1039A000B4EEE00AF1EE10FAECD29DED100ADFED74
:1039B0004E0AB4EEE00AF1EE10FA79D29DED110A4A
:1039C000DFED490AB4EEE00AF1EE10FA70D29DED97
:1039D000120ADFED450AB4EEE00AF1EE10FA67D202
:1039E00090ED450ABDEEC00A10EE100A00B23F4944
:1039F00048840DF5806090ED460ABDEEC00A10EED9
:103A0000100A01B2394881840DF5806090ED470AB3
:103A1000BDEEC00A10EE100A01B23448C1849DED1B
:103A2000130ABDEEC00A10EE100A00B22F498883B7
:103A30009DED140ABDEEC00A10EE100A01B22B482B
:103A4000C1839DED150ABDEEC00A10EE100A01B249
:103A500026480184B0F9221025A001F045FC234836
:103A6000B0F9241027A001F03FFC2048B0F926103F
:103A700029A001F039FC1D48B0F91C1000E017E046
:103A80002AA001F031FC1948B0F91E102CA001F059
:103A90002BFC1648B0F920102EA001F025FC4FF4A5
:103AA0007A7002F02FFB0DF5505DBDEC068B10BD5A
:103AB00006E500006779726F5F7661720A783A25D1
:103AC000660A793A25660A7A3A25660A00000000F5
:103AD0006163635F7661720A783A25660A793A25EE
:103AE000660A7A3A25660A0000004843A8070020C3
:103AF0006779726F5F6F66667365742E783A2564B6
:103B00000D0A00006779726F5F6F66667365742EC9
:103B1000793A25640D0A00006779726F5F6F6666F7
:103B20007365742E7A3A25640D0A00006163635F41
:103B30006F66667365742E783A25640D0A0000007E
:103B40006163635F6F66667365742E793A25640DF1
:103B50000A0000006163635F6F66667365742E7AA6
:103B60003A25640D0A00000010B502F017FB294841
:103B7000B0F900002849B1F92210401A00EE100AED
:103B8000B8EEC00ADFED250A20EE200ABDEEC00A1D
:103B900010EE100A00B2204908801E48B0F9021049
:103BA0001D48B0F92400081A00EE100AB8EEC00A49
:103BB000DFED1A0A20EE200ABDEEC00A10EE100A50
:103BC00000B2154948801348B0F904101248B0F902
:103BD0002600081A00EE100AB8EEC00ADFED0F0A40
:103BE00020EE200ABDEEC00A10EE100A00B20A490B
:103BF00088800848C088C880064801890648018135
:103C000004484189044841810248808902498881E9
:103C100010BD000098070020A80700200C007A3D86
:103C200000B52DED0E8B8DB0B0EE409AB6EE000AC9
:103C300029EE000AF0EE408AFE4890ED010AD0ED30
:103C4000030A20EE200AD0ED000A90ED021A00EEE1
:103C5000C10AF0EE000A20EE200A8DED0A0A90ED6E
:103C6000000AD0ED010A20EE200AD0ED020A90ED04
:103C7000031A00EE810AF0EE000A20EE200A8DED14
:103C80000B0A90ED010AD0ED010A20EE200AD0EDDA
:103C9000020A90ED021A00EE810AF7EE000AB0EE79
:103CA000001A41EE400ACDED0C0AE348B0F90600D7
:103CB00000EE900AF8EEE00AB0EE600A02F096FF1D
:103CC000F0EE40BADC48B0F9080000EE900AF8EED9
:103CD000E00AB0EE600A02F089FF7BEE80BAD648B7
:103CE000B0F90A0000EE900AF8EEE00AB0EE600AC1
:103CF00002F07CFF3BEE800AB0EE40BA02F056FBC9
:103D0000B0EE408ACC48B0F9060000EE100AB8EEDA
:103D1000C00A20EE080A8DED070AC748B0F908006E
:103D200000EE100AB8EEC00A20EE080A8DED080A6F
:103D3000C148B0F90A0000EE100AB8EEC00A20EE41
:103D4000080A8DED090A9DED080ADDED0C0A20EE4A
:103D5000200ADDED090A9DED0B1A00EEC10A8DED7A
:103D6000010A9DED090ADDED0A0A20EE200ADDEDCB
:103D7000070A9DED0C1A00EEC10A8DED020A9DEDB9
:103D8000070ADDED0B0A20EE200ADDED080A9DEDA5
:103D90000A1A00EEC10A8DED030AA84890ED000A48
:103DA000DDED010AA64890ED001A00EE810AA34855
:103DB00080ED000A90ED010ADDED020AA04890EDC9
:103DC000001A00EE810A9D4880ED010A90ED020A7A
:103DD000DDED030A9A4890ED001A00EE810A97483B
:103DE00080ED020A9448B0F9000000EE100AB8EE27
:103DF000C00ADFED940A20EE200ADDED010A9248A8
:103E000090ED001A01EE200A8C48D0ED000A30EE49
:103E1000200A8DED040A8848B0F9020000EE100A6D
:103E2000B8EEC00ADFED870A20EE200ADDED020AB7
:103E3000854890ED001A01EE200A8048D0ED010A75
:103E400030EE200A8DED050A7B48B0F9040000EE43
:103E5000100AB8EEC00ADFED7B0A20EE200ADDED85
:103E6000030A794890ED001A01EE200A7348D0ED5C
:103E7000020A30EE200A8DED060A6E4890ED010A26
:103E8000B1EE400ADDED040A20EE200AD0ED020A70
:103E90009DED051A00EEC10AD0ED030A9DED061A4C
:103EA00000EEC10A20EE280AF0EE409A90ED000ADA
:103EB000DDED040A20EE200AD0ED030A9DED051A7F
:103EC00000EEC10AD0ED020A9DED061A00EE810A4D
:103ED00020EE280AB0EE40AA90ED030ADDED040AB8
:103EE00020EE200AD0ED000A9DED051A00EE810AB1
:103EF000D0ED010A9DED061A00EEC10A20EE280A57
:103F0000F0EE40AA90ED020AB1EE400ADDED040A9F
:103F100020EE200AD0ED010A9DED051A00EE810A7F
:103F2000D0ED000A9DED061A00EE810A20EE280A67
:103F3000B0EE40DA90ED000A30EE290A80ED000A7A
:103F400090ED010A30EE0A0A80ED010A90ED020AB6
:103F500030EE2A0A80ED020A90ED030A30EE0D0AD7
:103F600080ED030AD0ED000AB0EE600A02F03EFEDA
:103F7000F0EE40BA2F48D0ED010AB0EE600A02F030
:103F800035FE7BEE80BA2B48D0ED020AB0EE600A17
:103F900002F02CFE7BEE80BA2648D0ED030AB0EE8C
:103FA000600A02F023FE3BEE800AB0EE40BA02F057
:103FB000FDF9B0EE408A1F4890ED000A20EE080A95
:103FC00080ED000A90ED010A20EE080A80ED010A5A
:103FD00090ED020A20EE080A80ED020A90ED030A35
:103FE00020EE080A80ED030A90ED000AF0EE000AC8
:103FF00020EE200AD0ED020A20EE200AD0ED010AC0
:10400000B0EE001A60EE810A90ED031A00EEC10ACC
:10401000F0EE40DA90ED020AF0EE000A20EE200AFF
:10402000D0ED030A20EE200AD0ED000AB0EE001A0F
:104030000CE0000030000020A8070020E40700206A
:104040002C00002039FA8E3C2800002060EE810A06
:1040500090ED011A00EE810AB0EE40EA90ED010AFF
:10406000F0EE000A60EE200A90ED011AB7EE000AA9
:1040700000EEC10AD0ED020AB0EE001A60EE810A2D
:1040800090ED021A00EEC10AF0EE40EA9DED060A3C
:1040900010EE101A0846FCF712F941EC1C0BB0EEBA
:1040A0004C0AF0EE6C0A01F065FBB0EE40BAF0EE9F
:1040B00060BA9FED190B53EC102B51EC1B0BFCF766
:1040C00011F90CD2164890ED020ADDED060A9FEDBB
:1040D000151A60EE810A00EE890A80ED020AB0EE40
:1040E0006D0A01F05BF9DFED0F0A20EE200A0C48A3
:1040F00080ED010AF0EE6E0AB0EE4E0A01F0E4F92E
:10410000DFED080A20EE200A054880ED000A0DB018
:10411000BDEC0E8B00BD000000000040E17A743F52
:10412000D8070020E12E654208B500BF1548806C15
:1041300040F00400134988640846806C00F00400D5
:10414000009000BF00BF00BF0846806C40F0010037
:1041500088640846806C00F00100009000BF00BF3A
:10416000002205210B20FCF70FFF0B20FCF7F8FEC7
:10417000012205210C20FCF707FF0C20FCF7F0FEC4
:1041800008BD00000010024000B587B0142102A84D
:10419000FCF78AF800BF3648C06C40F02000344974
:1041A000C8640846C06C00F02000019000BF00BF4A
:1041B00000BF0846C06C40F00100C8640846C06CEF
:1041C00000F00100019000BF00BF00BF0846C06CB6
:1041D00040F00200C8640846C06C00F00200019084
:1041E00000BF00BF002201212248FCF741FE00224F
:1041F0004FF4C0514FF09040FCF73AFE122002906D
:104200004FF4881003900220049002A94FF09040D0
:10421000FCF73EFD012002900390002004900590E1
:1042200002A91448FCF734FD4FF40060029001200D
:10423000039004900020059002A94FF09040FCF7F5
:1042400027FD4FF48050029001200390002004903D
:10425000059002A94FF09040FCF71AFD01220021C1
:104260000A20FCF791FE0A20FCF77AFE07B000BD99
:10427000001002400004004810B5114811490860C0
:104280004FF48270486000210E4881604FF4E06175
:10429000C1600021016141614FF400718161102111
:1042A000C16100210162416281620721C162002176
:1042B00001634163FDF73CFD08B1FCF7EFFA10BD67
:1042C000003001404800002010B511481149086035
:1042D0004FF48270486000210E4881604FF4E06125
:1042E000C1600021016141614FF4007181611021C1
:1042F000C16100210162416281620721C162002126
:1043000001634163FDF714FD08B1FCF7C7FA10BD66
:10431000003C0040AC00002000B587B000200390B6
:10432000049005900690009001900290154816495F
:104330000860A920486000211348816040F2E731FD
:10434000C1600021016141618161FEF7B2F908B1EC
:10435000FCF7A4FA4FF48050039003A90A48FEF733
:104360004FFA08B1FCF79AFA0020009001900290F1
:1043700069460548FEF740F908B1FCF78FFA07B027
:1043800000BD0000002C01401001002010B51848AD
:10439000184908604FF4E120486000211548816009
:1043A000C16001610C21416100218161C161016233
:1043B000416200200F4988620846FEF7E1FE08B11D
:1043C000FCF76CFA00210B48FEF7C0FC08B1FCF7C3
:1043D00065FA00210748FEF78AFC08B1FCF75EFA8F
:1043E0000448FEF70EFC08B1FCF758FA10BD0000B7
:1043F000003801405C03002000BFFEE700BFFEE77D
:104400007047000070B5164DED6805F00304144DBB
:10441000ED68C5F303156B1C022C0CD0032C09D1DD
:10442000104DB5FBF3F50E4EF668C6F3062605FBF8
:1044300006F10AE000BF0B4DB5FBF3F5084EF66838
:10444000C6F3062605FB06F100BF00BF044DED686C
:10445000C5F341656D1C6A00B1FBF2F070BD000050
:10446000001002400024F400F8B504460E4615463C
:104470006068B0F5827F0DD1A068B0F5004F03D021
:10448000A068B0F5806F05D12068006820F040007A
:10449000216808603346002280212046009500F004
:1044A000D3F828B1206E40F0200020660320F8BD2C
:1044B0006068B0F5827F16D1A068B0F5004F03D0D8
:1044C000A068B0F5806F0ED1334600224FF4C06172
:1044D0002046009500F03CF828B1206E40F0200006
:1044E00020660320E3E70020E1E7F8B504460E4626
:1044F0001546334600224FF4C0512046009500F087
:1045000027F828B1206E40F0200020660320F8BD77
:104510003346002280212046009500F095F828B10E
:10452000206E40F0200020660320F0E73346002292
:104530004FF4C0612046009500F00AF828B1206EC3
:1045400040F0200020660320E1E70020DFE70000C4
:104550002DE9FC5F04460D4616461F46DDF83090F7
:1045600000200090FCF78AFCA0EB0900A7EB0008F4
:10457000FCF784FC8246206800F10C0B314800688F
:10458000C0EBC00000EB8000000D00FB08F00190C4
:1045900050E0B5F5C06F05D126B99BF8000000903A
:1045A0009DF80000781C002844D0FCF767FCA0EBC5
:1045B0000A00404502D2B8F1000F34D120684068AB
:1045C00020F0E000216848606068B0F5827F0DD17E
:1045D000A068B0F5004F03D0A068B0F5806F05D19A
:1045E0002068006820F0400021680860A06AB0F5EB
:1045F000005F0DD100BF2068006820F400502168E2
:1046000008602068006840F400502168086000BF1E
:10461000012084F85D0000BF002084F85C0000BF2A
:104620000320BDE8FC9F019808B94FF000080198ED
:10463000401E0190206880682840B042A9D1002027
:10464000EFE70000200000202DE9F84F04460D465A
:1046500090461E46DDF82890FCF710FCA0EB090000
:10466000371AFCF70BFC82462C480068C0F3CB30AD
:104670007843009045E0701C002842D0FCF7FEFB18
:10468000A0EB0A00B84200D2A7BB2068406820F027
:10469000E000216848606068B0F5827F0DD1A068B5
:1046A000B0F5004F03D0A068B0F5806F05D1206849
:1046B000006820F0400021680860A06AB0F5005F43
:1046C0000DD100BF2068006820F400502168086008
:1046D0002068006840F400502168086000BF012095
:1046E00084F85D0000BF002084F85C0000BF032058
:1046F000BDE8F88FFFE7009800B900270098401E3A
:104700000090206880682840A84201D1012000E084
:1047100000204045AFD10020EAE700002000002043
:10472000704710B5FCF7B0FB10BD00B593B0382151
:1047300005A8FBF7B9FD14216846FBF7B5FD00207D
:10474000FCF774FC012005900004069002200C90F8
:1047500003210D9104210E9155210F9102211091F9
:104760001191129105A8FDF735F808B1FCF796F8FC
:104770000F200090032001900020029003900490ED
:1047800004216846FCF7A0FE08B1FCF787F813B0D7
:1047900000BD00000348006840F470000149086053
:1047A0007047000088ED00E010B50248FEF7C3F83E
:1047B00010BD00001001002010B502682A4B98427D
:1047C0000BD0B0F1804F08D0284B984205D0284B31
:1047D000984202D0274B984203D122F070024B68D6
:1047E0001A43214B984214D0B0F1804F11D01F4B87
:1047F00098420ED01E4B98420BD01E4B984208D0C8
:104800001D4B984205D01D4B984202D01C4B98423C
:1048100003D122F44072CB681A4322F080034C6922
:1048200043EA040202608B68C3620B6883620E4B2A
:1048300098420BD00F4B984208D00F4B984205D0AE
:104840000E4B984202D00E4B984201D10B69036384
:1048500001234361036903F001031BB1036923F0E2
:104860000103036110BD0000002C01400004004062
:104870000008004000340140004001400044014075
:104880000048014030B50C46816821F47F4142EA7E
:10489000032525432943816030BD00000A46816815
:1048A000034B194042F00703194381607047000031
:1048B0008FFFCFFF30B50B461446026A056A25F01C
:1048C00001050562816921F0F00141EA041122F03D
:1048D0000A021A438161026230BD30B50B461446AC
:1048E000026A056A25F010050562816921F47041AC
:1048F00041EA043122F0A00242EA0312816102621D
:1049000030BD000070B5456E2DB90125A0F86A5084
:10491000A0F868501CE0082308240568AD68C5F3BA
:1049200042610568AD686A0F0A4DAD5C15FB04F580
:10493000094EB65C95FBF6F5A0F86A50054D6D5C26
:1049400015FB03F5044E765C95FBF6F5A0F8685070
:1049500070BD0000CC6E0008D46E000890F82810DE
:1049600001F00801082907D10168496821F40041D4
:10497000826B11430268516090F8281001F0010128
:1049800039B10168496821F40031C26A11430268F3
:10499000516090F8281001F00201022907D1016846
:1049A000496821F48031026B11430268516090F82C
:1049B000281001F00401042907D10168496821F495
:1049C0008021426B11430268516090F8281001F079
:1049D0001001102907D10168896821F48051C26B48
:1049E00011430268916090F8281001F020012029FD
:1049F00007D10168896821F40051026C11430268F3
:104A0000916090F8281001F04001402913D101680D
:104A1000496821F48011426C114302685160416C75
:104A2000B1F5801F07D10168496821F4C001826C8B
:104A300011430268516090F8281001F0800180292C
:104A400007D10168496821F40021C26C1143026852
:104A50005160704738B504460020C4F89000FCF758
:104A60000DFA05462068006800F00800082821D1EA
:104A70006FF07E402B4600224FF40011009020463C
:104A800000F0CAFBB0B100BF00BF216851E8001FB1
:104A900021F08000226842E800010029F5D100BF22
:104AA0002020C4F8880000BF002084F8840000BFE4
:104AB000032038BD2068006800F00400042830D1CD
:104AC0006FF07E402B4600224FF48001009020467C
:104AD00000F0A2FB28B300BF00BF216851E8001F0F
:104AE00021F49070226842E800010029F5D100BF4E
:104AF00000BF00BF2168083151E8001F21F001000C
:104B00002168083141E80002002AF3D100BF2020CB
:104B1000C4F88C0000BF002084F8840000BF03208C
:104B2000C7E72020C4F88800C4F88C000020E066A5
:104B3000206700BF84F8840000BF00BFB9E770B5EC
:104B40000446A56A0020A5F85E002846FEF72FF966
:104B500070BD2DE9F0410546AC6AD4F88860D4F800
:104B60008C702068806800F08000802807D1212E9A
:104B700005D10020A4F85600204600F007F920686F
:104B8000806800F04000402807D1222F05D1002086
:104B9000A4F85E00204600F0ABF8D4F8900040F096
:104BA0001000C4F890002046FEF701F9BDE8F0813E
:104BB00070B50546AC6A2868006800F02000E0BBCC
:104BC0000020A4F85E0000BF00BF216851E8001F6C
:104BD00021F48070226842E800010029F5D100BF6D
:104BE00000BF00BF2168083151E8001F21F001001B
:104BF0002168083141E80002002AF3D100BF00BF5C
:104C000000BF2168083151E8001F21F040002168F1
:104C1000083141E80002002AF3D100BF2020C4F887
:104C20008C00E06E01280ED100BF00BF216851E862
:104C3000001F21F01000226800E004E042E80001BB
:104C40000029F3D100BF00202067E06E012805D1C4
:104C5000B4F85C102046FEF72DF802E02046FEF77F
:104C60005DFB70BD70B50546AC6A01202067E06E43
:104C7000012806D1B4F85C0041082046FEF71AF876
:104C800002E02046FEF74BFB70BD70B50546AC6AEE
:104C90002868006800F02000F0B90020A4F8560051
:104CA00000BF00BF2168083151E8001F21F08000DB
:104CB0002168083141E80002002AF3D100BF00BF9B
:104CC00000BF216851E8001F41F04000226842E81F
:104CD00000010029F5D102E02046FEF7D3FB70BDAC
:104CE00070B50446A56A2846FEF7CDFB70BD0000EE
:104CF00000BF00BF026852E8002F22F490710368E1
:104D000043E80012002AF5D100BF00BF00BF0268CF
:104D1000083252E8002F104B02EA03010268083201
:104D200042E80013002BF2D100BFC16E01290CD163
:104D300000BF00BF026852E8002F22F01001036894
:104D400043E80012002AF5D100BF2021C0F88C10E2
:104D50000021C16641677047FEFFFFEF10B50446B2
:104D600000BF00BF216851E8001F21F04000226809
:104D700042E800010029F5D100BF2020C4F88800D6
:104D80000020A0672046FEF77DFB10BD00BF00BFDE
:104D9000026852E8002F22F0C001036843E80012C5
:104DA000002AF5D100BF00BF00BF0268083252E8F8
:104DB000002F22F400010268083242E80013002BA1
:104DC000F3D100BF2021C0F8881070472DE9FE4FB5
:104DD000044600200290D4492068884200D100E0B7
:104DE00000BF2169A068084361690843E16940EA9E
:104DF000010820680068CD49084040EA08002168A1
:104E000008602068406820F44050E1680843216849
:104E10004860D4F81880C4492068884202D0206ACB
:104E200040EA080820688068C149084040EA080054
:104E3000216888602068C06A20F00F00616A08431A
:104E40002168C86200BFBB492068884216D1BA48B1
:104E5000006800F0030030B1012808D0022804D017
:104E6000032808D105E0012507E0022505E0042517
:104E700003E0082501E0102500BF6FE0AF4920687E
:104E8000884216D1AC48006800F00C0030B104280C
:104E900008D0082804D00C2808D105E0002507E038
:104EA000022505E0042503E0082501E0102500BFE8
:104EB00054E0A3492068884216D19F48006800F05A
:104EC000300030B1102808D0202804D0302808D174
:104ED00005E0002507E0022505E0042503E008259C
:104EE00001E0102500BF39E096492068884216D1BC
:104EF0009148006800F0C00030B1402808D08028F8
:104F000004D0C02808D105E0002507E0022505E00F
:104F1000042503E0082501E0102500BF1EE08249BA
:104F20002068884219D18448006800F4406048B184
:104F3000B0F5806F0AD0B0F5006F05D0B0F5406FC6
:104F400008D105E0002507E0022505E0042503E07F
:104F5000082501E0102500BF00E0102500BF7249C0
:104F60002068884259D135B1022D08D0042D08D0CF
:104F7000082D0DD109E0FCF7BFFB06460CE0724E90
:104F80000AE0FCF7DDFB064606E04FF4004603E0CE
:104F900000260120029000BF00BF002E10D06B49F8
:104FA000606A31F81000B6FBF0F9606800EB400071
:104FB000484503D860680003484502D201200290AA
:104FC000A6E06249606A31F810C0624600233046AC
:104FD0001946FBF71FF94FF4807C0022A0FB0C3B25
:104FE00001FB0CB100FB0211606840081818514128
:104FF000CDE90001D4F804C062460023FBF70AF9AA
:105000000746B7F5407F05D3B7F5801F02D2206869
:10501000C7607DE0012002907AE0E069B0F5004FC2
:105020003FD1092D17D2DFE805F005090D160F163F
:1050300016161300FCF760FB064610E0FCF76EFB4B
:1050400006460CE0404E0AE0FCF77AFB064606E016
:105050004FF4004603E000260120029000BF00BF8D
:1050600086B33A49606A31F81000B6FBF0F04000B0
:10507000616800EB5100B0FBF1F7102F0ED3B7F5CC
:10508000803F0BD24FF6F07007EA000AC7F34200E8
:105090004AEA000A2068C0F80CA039E0012002901A
:1050A00036E0092D18D2DFE805F005090E171017B4
:1050B00017171400FCF720FB064611E0FCF72EFB47
:1050C00006460DE024E0204E0AE0FCF739FB0646D8
:1050D00006E04FF4004603E000260120029000BFE6
:1050E00000BFAEB11949606A31F81000B6FBF0F0AC
:1050F000616800EB5100B0FBF1F7102F06D3B7F554
:10510000803F03D2B8B22168C86001E0012002905C
:105110000120A4F86A00A4F8680000206067A06776
:105120000298BDE8FE8F000000800040F369FFCFC9
:10513000FFF4FF1100380140881002400044004095
:1051400000480040004C00400024F400B46E000809
:1051500070B504460E46154644F8586FA5800020E9
:10516000A06322206063A06A583CF8B12748241D40
:10517000E16FC8622648E16F08632648E16F486323
:105180000020E16F886354F8043C03F12401626D50
:10519000E06F241F2B46FBF7F5FC38B11020C4F854
:1051A00090002020C4F88C00012070BD206960B1FF
:1051B00000BF00BF216851E8001F41F480702268E1
:1051C00042E800010029F5D100BF00BF00BF2168FF
:1051D000083151E8001F41F001002168083141E821
:1051E0000002002AF3D100BF00BF00BF21680831D0
:1051F00051E8001F41F040002168083141E80002F9
:10520000002AF3D100BF0020CFE70000B14B000817
:10521000654C0008534B00082DE9F04104460D464B
:1052200017469846069E41E0701C00283ED0FBF7CA
:1052300025FEA0EB0800B04200D816B90320BDE857
:10524000F0812068006800F0040070B3802D2DD03C
:10525000402D2BD02068C069C0F3C00078B1082071
:10526000216808622046FFF743FD0820C4F890003B
:1052700000BF002084F8840000BF0120DFE7206821
:10528000C069C0F3C02080B14FF40060216808629B
:105290002046FFF72DFD2020C4F8900000BF00201D
:1052A00084F8840000BF0320C9E7FFE72068C069D5
:1052B0002840A84201D1012000E00020B842B3D02C
:1052C0000020BCE710B50548FDF772FD4FF40072F1
:1052D00003490248FDF7BCFC10BD00005C03002040
:1052E000B004002000BFFEE70FB4054B10B503A9C2
:1052F000044A029800F036FB10BC5DF814FB000075
:1053000081610008400000207CB50C001D46164657
:10531000014601D0601E00E00020CDE90010064BE0
:105320006A462946304600F01DFB002C02D0009A48
:10533000002111707CBD00006B6000084100080274
:1053400018BF04200A0E18BF40F001004FF07F4242
:1053500032EA010108BF40F00200012808BF052021
:105360007047000002480068C0F302207047000048
:105370000CED00E010B5002804DB0A07130E054A07
:10538000135406E00A07140E034A00F00F031B1F14
:10539000D45410BD00E400E018ED00E010B54FF06B
:1053A0000E402DED028BB0EE408A18EE104A00EB55
:1053B0004400B0F1506F4AD84FF0FC40B0EB440FBE
:1053C00022D2B0EEC80AF7EE000A30EEC00AF6EEBE
:1053D000000A60EE208A18EE900A01F00CFC01EE43
:1053E000100A14F0004F1DBFDFED2D0A9FED2D0AAE
:1053F000B1EE411ADFED2C0A08BF9FED2C0AF8EE42
:10540000001A21EE218A05E0DFED290A68EE088AFC
:10541000B0EE600A9FED271ADFED271A30EE080A7A
:1054200048EE811A9FED251A08EEA11ADFED241A25
:1054300048EE811A9FED231A08EEA11A68EE281A89
:10544000BDEC028B01EE810A30EE200A10BD4FF058
:10545000E440B0EB440F0CD918EE100AFFF76EFFD2
:10546000042808BF00F09EF9B0EE480ABDEC028B9C
:1054700010BD4FF07F40B0EB440F07D2B0EE480AAA
:10548000BDEC028BBDE8104000F07EB9012000F0B9
:10549000A1F9BDEC028BBDE8104000F07BB9000023
:1054A0000000C9BF22AAFDB90000C93F22AAFD39E8
:1054B0000000000024FE1C3DC78AD83C1E67383D12
:1054C0001B93993DAFAA2A3E70B54FF068422DED6F
:1054D000048BF0EE408A18EE900AB0EE608A18EE67
:1054E000101A02EB4003B3F1654F3CBF02EB4102DF
:1054F000B2F1654F7DD200BFC0F3C753C1F3C752AD
:105500009A1A1B2A09DD10F0004F14BF9FED830A81
:105510009FED830ABDEC048B70BD12F11A0F36DAD1
:1055200011F0004F09D010F0004F0CBF9FED7D0A25
:105530009FED7D0ABDEC048B70BD88EE889A19EE54
:10554000100AFFF7FBFE042808BF00F02BF918EE45
:10555000900AFFF7F3FE054618EE100AFFF7EEFE7D
:10556000044619EE100AFFF7E9FE042D18BF052DB9
:1055700008D1042C18BF052C04D1002804BF022038
:1055800000F028F9B0EE490ABDEC048B70BD420072
:10559000B2EB410F3AD910F0004F19BFDFED630AAB
:1055A0009FED630ADFED630A9FED630AB0EE481AD0
:1055B0000A46B1EE688A80F00041F0EE418A10465A
:1055C0000A1A5200B2F1807F34D2484010F0004FE6
:1055D000DFED5A1A9FED5A2A1DBFBEEE001A70EE7B
:1055E000E10A30EE420AB6EE001A08BF70EEA10AD8
:1055F00000E040E008BF30EE020AB0EE682A01EE9B
:10560000482A08EE818AC2EE081A15E011F0004F10
:1056100004BF9FED4C0AF0EE400AD1D010F0004FCD
:1056200019BFDFED490A9FED490ADFED490A9FEDF9
:10563000490AC5E7C8EE881A21EEA11A9FED462A4D
:10564000DFED462A41EE022A9FED452A01EE222A8D
:10565000DFED442A41EE022A9FED432ABDEC048B84
:1056600001EE222A21EE811A01EE020A30EE210A11
:1056700030EE200A70BD4FF07F42B2EB400F28BFE2
:10568000B2EB410F09D2F0EE480AB0EE680ABDEC69
:10569000048BBDE8704000F07AB840EA01035B007B
:1056A00008BF41F0FF410BD0B2EB400F08BFB2EB97
:1056B000410F08D120F0804008EE900A21F080418F
:1056C00008EE101A18E7B2EB400F12BF5FEA410371
:1056D00040F0FF4001F000413FF40EAFB2EB410F4C
:1056E00012BF5FEA400200F0004041F0FF413FF48A
:1056F00003AF4A0092EA40033FF5FEAE002AACBF7A
:105700009FED1A0A9FED1A0A68EE808A28EE008A39
:1057100018EE900A18EE101AEEE60000DB0FC9BF73
:10572000DB0FC93FDB0F4940DB0F49C00000C9BF99
:1057300022AAFDB90000C93F22AAFD390060ED3E52
:10574000C30ACE3700000000000049C022AA7DBA7B
:105750000000494022AA7D3A2DAD65BD8FB8D53DE8
:105760000FB511BE61C84C3EA8AAAABE0000804F6A
:105770000000802F2DED020B019820F000400190D9
:105780009DED000B02B0704730EE000A704730EE1E
:10579000200A7047DFED020A80EEA00A7047000081
:1057A000000000009FED020A20EE000A7047000092
:1057B0000000001002E008C8121F08C1002AFAD138
:1057C00070477047002001E001C1121F002AFBD181
:1057D0007047000001490860704700004400002045
:1057E0002DE9FF5F82B00021DDE90430020DDDF814
:1057F00040B0034318D044F61050A2F2FF324243A7
:105800001514119801281FD0A5EB0B00401C5FEA6E
:10581000000A4FF000064E4FDFF83891B046504670
:1058200015D5CAF1000413E0119801244AA30128F8
:1058300001D16FEA0B010298119AC0E90031C0E969
:10584000024206B0BDE8F09FCBF10000DFE704465E
:105850000021404A491842EB0450CDE9001012E003
:10586000E00707D032463B4640464946FAF72EFE4F
:105870008046894632463B4610461946FAF726FED0
:1058800006460F466410002CEAD1DDE90401DDE98B
:105890000023BAF1000F06DAFAF718FE42464B462B
:1058A000FAF714FE05E0FAF783FE42464B46FAF794
:1058B0007FFE04460E460022284BFAF713FD03D85C
:1058C0004FF0FF30014607E00022254B20463146CD
:1058D000FAF755FDFAF7DBFE102409E0002C0ADB8D
:1058E0000A220023FAF796FC039B30321A55641EF5
:1058F00050EA0102F2D1641C039AC4F1110314446A
:10590000119A012A03D0012208430DD10AE008436D
:1059100004D000204FF0110B119072E7A3EB0B05A0
:105920006D1E0DE05B4504DD4FF0000205F1010541
:1059300004E003DA4FF00002A5F10105002AECD0E3
:1059400002981199C0E90231C0E9004579E70000E9
:10595000000014400000F03F300000000000F04361
:105960000000E03F2DE9FF4F95B09A468846064675
:105970000025EEE1252877D100242746F94A0121A8
:10598000039400E0044316F8013F203B01FA03F0C2
:105990001042F7D130782A2811D06FF02F033078D9
:1059A000A0F13002092A16D8039A44F0020402EB4F
:1059B000820203EB42021044761C0390EFE758F892
:1059C000042B0392002A03DA504244F4005403905B
:1059D00044F00204761C30782E2816D116F8010FF8
:1059E00044F004042A280DD06FF02F023078A0F183
:1059F0003003092B09D807EB870302EB4303C718D1
:105A0000761CF3E758F8047B761C30786C280FD0AE
:105A100006DC4C2817D068280DD06A2814D104E081
:105A2000742810D07A280FD10DE044F400140AE055
:105A300044F4801401E044F440147278824202D1AC
:105A400004F58014761C761C307866280BD013DCA5
:105A5000582877D009DC002875D04528F6D046288C
:105A6000F4D047281AD193E118E0632835D0642890
:105A700079D0652812D18BE1702873D008DC6728B3
:105A8000F1D069286FD06E280DD06F2806D1ACE018
:105A900073282CD0752874D0782853D05246179983
:105AA00090476D1C54E1C4F30250022809D003282A
:105AB0000DD0D8F8001004280DD00D6008F10408AE
:105AC00046E1D8F80010EA17C1E90052F6E7D8F825
:105AD00000100D80F2E70D70F0E718F8041B8DF848
