:020000040800F2
:1000000068520020F10100084F4100084533000804
:100010004D41000869080008B94D000800000000C3
:100020000000000000000000000000001D44000867
:100030002B09000800000000514100081F4400087F
:100040000B0200080B0200080B0200080B0200085C
:100050000B0200080B0200080B0200080B0200084C
:100060000B0200080B0200082D0900086D080008AB
:10007000790800080B0200080B0200080B020008B8
:100080000B020008000000000B0200080B02000831
:100090000B0200080B0200080B0200080B0200080C
:1000A0000B020008994400080B0200080B0200082C
:1000B0000B0200080B0200080B0200080B020008EC
:1000C0000B0200080B0200080B0200080B020008DC
:1000D0000B020008994D00080B0200080B020008F3
:1000E0000B0200080B0200080B0200080B020008BC
:1000F0000B0200080B0200080B02000800000000C1
:10010000000000000B020008000000000B020008C5
:100110000B020008000000000B0200080B020008A0
:100120000B0200080B0200080B0200080B0200087B
:100130000B02000800000000000000000B02000895
:100140000B0200080B020008000000000000000085
:10015000000000000000000000000000000000009F
:100160000000000000000000000000000B0200087A
:100170000B0200080000000000000000000000006A
:10018000000000000B02000800000000000000005A
:10019000000000000000000000000000000000005F
:1001A00000000000000000000B0200080B02000825
:1001B0000B0200080B0200080B0200080000000000
:1001C000000000000B02000800000000000000001A
:1001D0000B0200080B020008DFF810D000F032FB21
:1001E0000048004785680008AFF30080685200208F
:1001F0000648804706480047FEE7FEE7FEE7FEE7C1
:10020000FEE7FEE7FEE7FEE7FEE7FEE789440008BB
:10021000D90100082DE9F05F0546002092469B4673
:1002200088460646814640241BE02846414647460C
:10023000224600F0C6F953465A46C01A914110D3DF
:1002400011461846224600F0ADF92D1A67EB010859
:100250004F4622460120002100F0A4F917EB0009C7
:100260004E41201EA4F10104DFDC484631462A46F7
:100270004346BDE8F09F40EA01039B0703D009E035
:1002800008C9121F08C0042AFAD203E011F8013B82
:1002900000F8013B521EF9D27047D2B201E000F8DB
:1002A000012B491EFBD270470022F6E710B513461A
:1002B0000A4604461946FFF7F0FF204610BD2DE917
:1002C000FE4F804681EA0300C00F0C46009021F0EB
:1002D000004123F00045B8EB0200A94105D2404699
:1002E000214690461C460B46024623F00040104330
:1002F00047D0270DC7F30A00C3F30A510290401AF2
:10030000019040286BDAC3F3130040F4801B00987F
:10031000924620B10023D2EB030A63EB0B0B01984A
:100320005946C0F14002504600F03CF906460D46E1
:1003300050465946019A00F054F910EB080061410B
:10034000002487EA115284EAE7731A4340D0009AE6
:1003500062B3019A012A4FEA075215DC001B61EBD8
:1003600002014FF0004202EA0752CDE90042001CB0
:1003700041F5801132462B4600F08BF903B0BDE801
:10038000F08F40462146F9E7001B61EB0201001C9B
:1003900041F5801300185B412018A2F5001747EBC8
:1003A000030140EAD570B6196D4111E06D084FEABE
:1003B000360645EAC0754FEA0752001B61EB0201A1
:1003C000001C41F5801149084FEA300000195141E5
:1003D00032462B4603B0BDE8F04F00F04BB9009811
:1003E000012240000023D0EB020263EBE07300988F
:1003F00021464FEAE074B8EB000061EB0401E9E745
:1004000083F000435BE781F0004158E72DE9F04DB0
:1004100081EA030404F0004B21F0004514464FF03C
:10042000000A23F0004150EA050220D054EA0102FC
:100430001DD0C5F30A570246C5F31303C1F31300D9
:10044000C1F30A5640F4801543F48013A7EB060865
:10045000101BD64608F2FD3873EB050002D308F1F5
:10046000010801E092185B41B8F1000F03DA0020A7
:100470000146BDE8F08D00204FF480110646844609
:100480000EE0171B73EB050705D3121B63EB050387
:1004900006434CEA010C49084FEA300092185B41D0
:1004A00050EA0107EDD152EA030012D082EA0400BB
:1004B00083EA0501084305D0101BAB4106D2012297
:1004C000002306E000224FF0004302E06FF001023B
:1004D00053101AEB06004CEB085110EB0A0041EBED
:1004E0000B01BDE8F04D00F0C5B800F0004230F05F
:1004F00000400AD0C10D01F56071C0F3160042EA58
:100500000151C2084007114370470020014670475F
:1005100030B5041E71F1000404DB4FF0004440428A
:1005200064EB0101141E73F1000405DB1C464FF05F
:100530000043524263EB0403994208BF904230BD2E
:1005400001F0004330B421F0004150EA010206D02E
:100550000A0DA2F56072C1F31301002A02DC30BC5F
:1005600000207047440F44EAC104C100E01830BCC9
:1005700000EBC25000F047B830B50B4601460020F2
:100580002022012409E021FA02F59D4205D303FA55
:1005900002F5491B04FA02F52844151EA2F10102D6
:1005A000F1DC30BD202A04DB203A00FA02F1002001
:1005B00070479140C2F1200320FA03F319439040A1
:1005C0007047202A04DB203A21FA02F0002170470C
:1005D00021FA02F3D040C2F12002914008431946AB
:1005E0007047202A06DBCB17203A41FA02F043EA93
:1005F000E07306E041FA02F3D040C2F120029140DC
:100600000843194670470029A8BF7047401C49009D
:1006100008BF20F00100704710B4B0FA80FC00FA67
:100620000CF050EA010404BF10BC704749B1CCF192
:10063000200421FA04F411FA0CF118BF012121431E
:100640000843A3EB0C01CB1D4FEA00614FEA1020D9
:1006500042BF002010BC704700EBC350104400297B
:10066000A4BF10BC7047401C490008BF20F0010027
:1006700010BC704710B5141E73F1000408DA401C5A
:1006800041F1000192185B411A4301D120F00100B1
:1006900010BD2DE9F04D92469B4611B1B1FA81F2A1
:1006A00002E0B0FA80F220329046FFF77BFF04466A
:1006B0000F4640EA0A0041EA0B0153465A460843F6
:1006C00013D0114653EA010019D0C8F14002504638
:1006D000FFF777FF05460E46504659464246FFF75C
:1006E00061FF084305D0012004E020463946BDE8FB
:1006F000F08D0020054346EAE0762C4337430A9804
:100700006305E40AA0EB08000022FD0A44EA47540E
:100710000A3002D500200146E9E7010510196941B8
:10072000DDE9084500196941BDE8F04DA2E72DE972
:10073000FE4F81EA030404F0004421F000410094DC
:100740004FF0000B23F0004350EA01045ED052EA60
:1007500003045BD0C3F30A54C1F30A552C44A4F23A
:10076000F3340194A0FB0254C1F3130141F480114E
:10077000C3F3130343F4801301FB024400FB034E55
:10078000840A970A44EA815447EA8357A4FB07681E
:1007900002958D0A05FB07854FEA932C04FB0C5448
:1007A0002705029D4FEA065847EA1637B5EB0805BC
:1007B0006EEB070C870E920E47EA811742EA83120E
:1007C000A7FB0201B6EB0B0164EB00042B0D43EA1F
:1007D0000C335E1844EB1C50DA465146E7FB02012D
:1007E000C5F313044FEA0B3343EA14534FEA0432C0
:1007F000019C43EA0603A4F10C040294009CCDE999
:1008000000B4FFF746FF03B0BDE8F08F00200146BB
:10081000F9E7C1F30A52C1F3130140F2FF3341F487
:1008200080119A4202DA00200146704740F23343B9
:100830009A42A2F2334202DC5242FFF7C2BEFFF7F5
:10084000B1BE0000064C074D06E0E06840F0010331
:1008500094E8070098471034AC42F6D3FFF7C0FC89
:10086000D0700008F0700008FEE70000014800F0BA
:100870007DB9000098040020014800F077B900001D
:10088000F80400200D4902688A4201D20C4901E0B7
:100890000B492031D2B2083A1423B2FBF3F2436C75
:1008A00023F003031944816405498031C16402F0D7
:1008B0001F020121914001657047000008040240B9
:1008C000000802400179074A491E02EB8102426595
:1008D000044A4032826501F01F0201219140C16546
:1008E000704700000009024030B5D0E913546C6035
:1008F000446D002C02D0D0E916546C6090F844404E
:1009000004F01F050124AC40056C6C600468636052
:100910008368102B04D0036899600068C26030BD02
:1009200003689A600068C16030BD7047102000F015
:1009300033BB72B6FEE70000144A107F1449012849
:1009400001D003280FD10B6823F400730B600B68F0
:1009500043F400630B600B6823F400630B600B68C7
:1009600043F400730B60022801D003280BD1086800
:1009700040F480500860086820F4805008600868DF
:1009800040F4806008600020107770471800002055
:1009900000200240C107054803D0416941F004012D
:1009A0004161416941F4803141617047002002405A
:1009B00008494A69C0B222F4FC7242EAC0004861A8
:1009C000486940F002004861486940F4803048615D
:1009D000704700000020024010B505494C6944F002
:1009E00001044C610260BFF36F8F436010BD0000D3
:1009F0000020024010B54022084B5C6944F480247A
:100A00005C61EFF3108372B610C910C0521ED2B2EF
:100A1000002AF9D183F3108810BD000000200240A5
:100A200070B5054600F0AAFB0646154C06E000F03E
:100A3000A5FB801BA84201D9032070BD2069C0031B
:100A4000F5D420694CF2FA31084088B10D494A6862
:100A500002434A60810F04D0A16900F04042114373
:100A6000A161810002D020F040402061012070BDD2
:100A70002069C00701D001202061002070BD000066
:100A8000002002401800002010B5002190F8252019
:100A90000123022A03D00421C163012122E002685C
:100AA000146824F00E041460826C146824F48074BA
:100AB00014600268146824F00104146090F8442063
:100AC000046C02F01F0203FA02F26260D0E91342E2
:100AD0006260426D32B1146824F480741460D0E90D
:100AE000164262602430437000220270084610BD36
:100AF00070B5002490F8251000230122022906D0A9
:100B000004212430816142700370012429E00168CE
:100B10000D6825F00E050D6001680D6825F00105D2
:100B20000D60816C0D6825F480750D6090F844109F
:100B3000154601F01F018A40016C4A60D0E913217B
:100B40005160416D31B10A6822F480720A60D0E9C7
:100B50001621516080F8255080F82430816B01B156
:100B60008847204670BD90F825007047F0B4016CAE
:100B70000A6801680B6890F84440042604F01F04DA
:100B800006FA04F5154215D05D0713D50A689206DA
:100B900003D40A6822F004020A6090F8441001F0BD
:100BA0001F0106FA01F5016C4D60016B002941D06F
:100BB000F0BC08474FF0020C0CFA04F616424FF056
:100BC00000074FF0010519D09E0717D50A68920655
:100BD00005D40A6822F00A020A6080F8255090F8CD
:100BE000441001F01F010CFA01F6016C4E6080F810
:100BF0002470C16A00291DD0F0BC08470826A64011
:100C0000164217D01A0715D50A6822F00E020A609C
:100C100090F84410026C01F01F0105FA01F15160D7
:100C2000C56380F8255080F82470416B002901D0FD
:100C3000F0BC0847F0BC704770B50446002C0DD0DE
:100C40002A4A2068142190420AD2294A0244B2FB5F
:100C5000F1F189006164274921640BE0012070BD36
:100C6000224A52420244B2FBF1F1890061641F49F9
:100C700008392164022184F82510026847F6F071D2
:100C80008A43D4E902131943D4E904352B431943A9
:100C9000A3691943E3691943236A194311430160A6
:100CA0002046FFF7EFFDA0680025B0F5804F00D18A
:100CB0006560A16C20790860D4E913104860606811
:100CC000401E032808D82046FFF7FCFD606D056034
:100CD000D4E91610486002E06565A565E565243431
:100CE000A561012060702570002070BD08040240DD
:100CF000F8FFFDBF0000024070B50446002594F8DF
:100D0000240001280CD0012084F8240094F82560E8
:100D10000020012E06D084F824000225284670BD4C
:100D2000022070BD022684F82560E0632068066812
:100D300026F0010606602046FFF7D6FD206B28B19D
:100D40002068016841F00E01016009E02068016837
:100D500021F0040101602068016841F00A0101608E
:100D6000A06C0168C90303D5016841F4807101607A
:100D7000606D18B1016841F48071016020680168FC
:100D800041F001010160C9E72DE9F05F04468846A2
:100D9000374F387801280BD001253D704FF47A7B0E
:100DA0005846FFF73DFE06464FF0000A1EB15AE0D6
:100DB0000220BDE8F09FC7F804A0DFF8B890D9F88A
:100DC000000080050ED5D9F80000400508D5D9F8F7
:100DD000000020F48060C9F800000320387710E09C
:100DE0003D770EE0D9F80000400508D5D9F800009D
:100DF00020F48060C9F800000220387701E087F80D
:100E00001CA02068012805D04FF0FF30C8F8000072
:100E1000A56821E06068FFF7BDFD5846FFF700FEBA
:100E20000646D9F8140020F00400C9F8140018E0B0
:100E300028466168FFF7BCFD5846FFF7F1FD0646FE
:100E4000D9F8140020F4FD70C9F81400300002D065
:100E5000C8F8005005E06D1CD4E902010844A8421E
:100E6000E6D8FFF769FD87F800A03046A1E700004B
:100E70001800002000200240012005494A6942F084
:100E800000424A614969002900DA002070470000E9
:100E9000002002402DE9FF5F074614461D4600264C
:100EA000DFF89C9099F8000001280CD0012089F807
:100EB00000004FF47A70FFF7B3FD8046B346B8F1F7
:100EC000000F04D038E0022004B0BDE8F09FC9F85C
:100ED00004B0DFF870A0DAF80000400509D5DAF8B0
:100EE000000020F48060CAF80000022089F81C008D
:100EF00001E089F81CB027B1012F09D0022F07D0DB
:100F00000DE022462B460198FFF766FD012606E01C
:100F100021460198FFF76EFD022F00D17E044FF4A9
:100F20007A70FFF77DFD804626B1DAF81400B043F1
:100F3000CAF81400FFF700FD89F800B04046C3E787
:100F40001800002000200240002006494A69002ABB
:100F500007DA054A8A60054A8A604969002900DA89
:100F6000012070470020024023016745AB89EFCD87
:100F700010280BD1064890F88800012806D10548B2
:100F800090F88800012801D102F05CBC7047000095
:100F9000980700202808002010B504490A6802427A
:100FA00002D00860FFF7E4FF10BD00001404014008
:100FB0002DE9F84F0022DFF888914FF00108032750
:100FC0004FF00F0C09F1040AA9F1040BB1E008FA83
:100FD00002F52B40002B72D00C7904F00304012C95
:100FE00001D0022C15D18668540007FA04FE26EAC7
:100FF0000E06D1F80CE00EFA04FE4EEA060EC0F81A
:1010000008E04468AC430D79C5F3001595402543CD
:1010100045600C79E443A40708D0C568540007FA7A
:1010200004F6B5438E68A6402E43C6600C7904F0E2
:101030000304022C11D1D40800EB8406356A54074E
:10104000E40E0CFA04FE25EA0E05D1F810E00EFAC3
:1010500004FE4EEA050EC6F820E00568540007FAC3
:1010600004F6B5430E7906F00306A6402E4306604B
:101070004C6814F4403F5BD0324C256E45F00105BE
:101080002566246E04F0010400942F4C22F0030521
:101090002E19B56894074FEA147E0CFA0EF4A54396
:1010A000B0F1904F04D0294CA04203D1012417E0A5
:1010B000002415E0264CA04202D1022410E037E0C3
:1010C000244CA04201D103240AE0234CA04201D1C8
:1010D000042405E0214CA04201D1052400E00624AF
:1010E00004FA0EF42C43B460D9F800409C434D68D8
:1010F000ED0200D51C43C9F80040DAF800409C43DB
:101100004D68AD0200D51C43CAF80040DBF8004032
:101110009C434D68AD0300D51C43CBF80040084DFF
:10112000083D2C689C434E68F60300D51C432C6098
:10113000521C0B6833FA02F47FF449AFBDE8F88F14
:101140000804014000100240000001400004004873
:1011500000080048000C0048001000480014004837
:10116000426921EA02030A4043EA02418161704771
:10117000002A01D081617047816270470148806810
:10118000704700000C00002090F84120202A01D078
:101190000220704790F84020012A20D0012280F8D8
:1011A0004020242280F841200268136823F00103C4
:1011B00013600268136823F4805313600268136895
:1011C0000B43136001680A6842F001020A602021A3
:1011D00080F84110002180F8401000207047022064
:1011E000704790F84120202A01D00220704790F8E3
:1011F0004020012A1ED0012280F84020242280F8BD
:1012000041200268136823F0010313600268136829
:1012100023F4706343EA0121116001680A6842F017
:1012200001020A60202180F84110002180F840105E
:10123000002070470220704708B507490A6E42F047
:1012400001020A66096E01F00101009103494A6832
:1012500002434A6008BD0000001002400000014047
:1012600070B50446002C04D094F84100002510B15C
:1012700006E0012070BD84F84050204600F056F88A
:10128000242084F841002068016821F001010160F8
:101290006068216820F0706008612068816821F42E
:1012A00000418160E068012831D0A068216840F4E5
:1012B00004408860E06802282FD02068416821F44B
:1012C0000061416020684168174A1143416020680D
:1012D000C16821F40041C160D4E904010843A16957
:1012E00040EA01202168C860D4E907010843216869
:1012F00008602068016841F00101016065642020F8
:1013000084F84100256384F84250002070BDA06835
:10131000216840F400408860CCE72068416841F4CF
:1013200000614160CEE700000080000210B598B077
:101330000446142113A8FEF7B7FF442102A8FEF7C4
:10134000B3FF1849206888422AD1802002900020EB
:10135000099002A800F052F908B1FFF7EAFA124C1E
:10136000E06C40F00100E064E06C00F001000190EE
:101370004FF4407013901220149001201590032018
:1013800016900420179013A94FF09040FFF710FE1D
:10139000A06D40F48000A065A06D00F48000019075
:1013A00018B010BD0058004000100240024881688B
:1013B00042681144816070470C00002010B5002481
:1013C000032000F09BF8072000F008F808B1012482
:1013D00001E000F029F8204610BD000070B5054678
:1013E00000240F4E7068002817D04FF47A71B1FBBB
:1013F000F0F00C490968B1FBF0F001F076F908B1A2
:1014000001240BE0102D06D200222946501E00F0C8
:1014100055F8356002E0012400E00124204670BD4B
:101420000C0000203800002008B51C48016E41F077
:1014300001010166016E01F001010091816D41F031
:1014400080518165806D00F080500090042000F094
:1014500055F8012200216FF00B0000F02FF8012257
:1014600000216FF00A0000F029F8012200216FF03E
:10147000090000F023F800210122481F00F01EF8A7
:1014800000210122081F00F019F800210122881E06
:1014900000F014F8BDE8084000F0A8B800100240C1
:1014A000002809DB00F01F02012191404009800063
:1014B00000F1E020C0F8001170470000F0B40D46C4
:1014C0000D4B1B68C3F30223C3F10704042C00D99E
:1014D0000424191D072901D2002300E0DB1E012688
:1014E00006FA04F1491E294099409E40761E164096
:1014F0003143F0BC03F09FBC0CED00E000F00701AD
:10150000054A10684FF6FF03184040EA01200349DE
:1015100008431060704700000CED00E00000FA0581
:101520002F49304B0A6832214A432F4900280AD0FC
:10153000B0F5007F2DD0086820F4C06040F48060D2
:101540000860002070470868C0F34120022805D0D9
:1015500051F8800F20F480700860F2E7D1F8800025
:1015600020F48070C1F88000086820F4C06040F466
:1015700000700860B2FBF3F0401C00E0401E4A69B6
:10158000520501D50028F9D148694005D9D5032075
:1015900070470868C0F34120022805D051F8800F39
:1015A00040F480700860CCE7D1F8800040F480708F
:1015B000C1F88000086820F4C06040F40070086042
:1015C000B2FBF3F0401C00E0401E4A69520501D511
:1015D0000028F9D148694005B3D5032070470000C1
:1015E0003800002040420F0000700040024881682F
:1015F00041F4804181607047007000402DE9F84F50
:101600000446002600272068A04D000366D54FF051
:101610000008A86DC00009D4A86D40F08050A865EE
:10162000A86D00F0805000904FF00108DFF860A234
:10163000DAF8000040F48070CAF80000FFF79EFD61
:10164000814607E0FFF79AFDA0EB0900022801D9C7
:10165000032603E0DAF80000C005F3D526B13746CB
:10166000B8F1010F36D039E0D5F8900000F44070A1
:1016700080B1216C81420DD055F8900F20F440705C
:10168000296841F480312960296821F4803129607A
:1016900045F89009C00711D0FFF770FD814641F26F
:1016A000883A07E0FFF76AFDA0EB0900504501D931
:1016B000032603E0D5F890008007F3D50EB1374636
:1016C000CEE7D5F89000216C20F440700843C5F8AF
:1016D0009000C5E7A86D20F08050A8652078C0076D
:1016E00007D0D5F88800616820F003000843C5F8EA
:1016F00088002078800707D5D5F88800A16820F0F9
:101700000C000843C5F888002078400707D5D5F8B5
:101710008800E16820F030000843C5F88800207890
:10172000000707D5D5F88800216920F0C0000843DC
:10173000C5F888002078800607D5D5F8880061694B
:1017400020F440600843C5F888002078400607D59B
:10175000D5F88800A16920F440500843C5F88800F6
:101760002078000607D5D5F88800E16920F44040CC
:101770000843C5F888002088C00507D5D5F888003B
:10178000216A20F440300843C5F88800208880058D
:1017900007D5D5F88800616A20F440200843C5F8D1
:1017A0008800208840050FD5D5F88800A16A20F46C
:1017B00040100843C5F88800A06AB0F5801F03D127
:1017C000E86840F48010E860208800050FD5D5F85F
:1017D0008800E16A20F440000843C5F88800E06A08
:1017E000B0F5800F03D1E86840F48010E8602088ED
:1017F000C0040FD5D5F88800216B20F04070084355
:10180000C5F88800206BB0F1807F03D1E86840F410
:101810008010E86020884FF0006180040ED5D5F874
:101820008800626B20F040601043C5F88800606B50
:10183000884203D1E86840F48010E86020884004C2
:101840000ED5D5F88800A26B20F040601043C5F893
:101850008800A06B884203D1E86840F48010E860FB
:10186000208800040FD5D5F88800E16B20F04050A7
:101870000843C5F88800E06BB0F1805F03D1E868E9
:1018800040F48030E8603846BDE8F88F0010024030
:10189000007000402DE9F04704460D460027002C5B
:1018A00017D0DFF8A091D9F8000000F00F00A8428F
:1018B00011D2D9F8000020F00F002843C9F8000029
:1018C000D9F8000000F00F00A84204D00120BDE8C4
:1018D000F0870120FBE720785B4EC00741F2883A91
:1018E0004ED06068DFF86481032806D002281ED03D
:1018F0003068400520D40120E9E73068800101D438
:101900000120E4E702F026FC404520D9B06810F041
:10191000F00F04D02078800719D5A068B8B9B06856
:1019200020F0F00040F08000B06080270FE03068C9
:10193000800301D40120CAE700F0BAF8404506D977
:10194000B06820F0F00040F08000B0608027B06800
:10195000616820F003000843B060FFF70FFC804689
:1019600007E0FFF70BFCA0EB0800504501D903206E
:10197000ADE7B068616800F00C00B0EB810FF0D10A
:101980002068810715D5400703D5B06840F4E060B2
:10199000B0602078000705D5B06820F4605040F4AE
:1019A000E060B060B068A16820F0F0000843B0606B
:1019B00005E0802F03D1B06820F0F000B060D9F8C6
:1019C000000000F00F00A84217D9D9F8000020F05D
:1019D0000F002843C9F80000FFF7D0FB074606E0D8
:1019E000FFF7CCFBC01B504501D903206FE7D9F8A6
:1019F000000000F00F00A842F2D12078400705D582
:101A0000B068E16820F4E0600843B0602078000727
:101A100006D5B068216920F4605040EAC100B0608A
:101A200000F046F8B1680A4AC1F30311515C01F0B5
:101A30001F01C8400749086007480068BDE8F04733
:101A4000FFF7CCBC002002400010024000B4C404E8
:101A500088700008380000200C0000200148006851
:101A6000704700003800002000B5FFF7F7FF054978
:101A70008968054AC1F30221515C01F01F01C84089
:101A800000BD0000001002409870000800B5FFF78C
:101A9000E5FF05498968054AC1F3C221515C01F09F
:101AA0001F01C84000BD00000010024098700008EF
:101AB000184A9068C0F38101174801290AD091683B
:101AC000C1F38101022905D09168C1F38101032985
:101AD00001D000207047D16801F00303D168C1F341
:101AE0000311491C032B0DD0B0FBF1F0D168C1F3F9
:101AF00006214843D168C1F34161491C4900B0FB4C
:101B0000F1F07047B0FBF1F0D168C1F30621484312
:101B1000F0E70000001002400024F4002DE9F84333
:101B20000446002C0CD02078FE4DC00752D0A86887
:101B300000F00C00E96801F003010C2803D004E078
:101B40000120BDE8F883032916D0082814D0606866
:101B5000B0F5803F17D0B0F5A02F19D0286820F439
:101B600080302860286820F480202860606818B3DE
:101B7000FFF704FB06461BE0286880032AD560684F
:101B800040BB0120DDE7286840F480302860EDE7A5
:101B9000286840F480202860286840F4803028605D
:101BA000E4E7FFF7EBFA801B642801D90320C8E7BC
:101BB00028688003F5D50DE0FFF7E0FA064606E059
:101BC000FFF7DCFA801B642801D90320B9E72868F5
:101BD0008003F5D4207880074ED5A86800F00C006B
:101BE000E96801F003010C2801D102290BD0042877
:101BF00009D0E06870B3286840F480702860FFF76F
:101C0000BDFA06461BE02868400501D5E06868B1CA
:101C10006868217C20F0FE4040EA01606860C248AC
:101C20000068FFF7DBFB38B301208AE7012088E773
:101C3000FFF7A4FA801B022801D9032081E7286856
:101C40004005F5D56868217C20F0FE4040EA01603F
:101C5000686011E0286820F480702860FFF78EFA31
:101C6000064606E0FFF78AFA801B022801D9032006
:101C700067E728684005F5D4207800072CD560690F
:101C8000A8B1D5F8940040F00100C5F89400FFF722
:101C900075FA064606E0FFF771FA801B022801D9A3
:101CA00003204EE7D5F894008007F4D514E0D5F86A
:101CB000940020F00100C5F89400FFF75FFA064693
:101CC00006E0FFF75BFA801B022801D9032038E702
:101CD000D5F894008007F4D4207840076FD54FF0F2
:101CE0000008A86DC00009D4A86D40F08050A86518
:101CF000A86D00F0805000904FF001088B4E3068C6
:101D0000C00511D4306840F480703060FFF736FAB7
:101D1000074606E0FFF732FAC01B022801D903206C
:101D20000FE73068C005F5D5A068012813D0052855
:101D300018D055F8900F20F001002860286820F096
:101D4000040045F89009A06841F2883608B3FFF70F
:101D500015FA074618E0D5F8900040F00100C5F8E4
:101D60009000F0E755F8900F40F0040028602868D4
:101D700040F0010045F89009E5E7FFF7FFF9C01BC7
:101D8000B04201D90320DCE6D5F890008007F4D5F5
:101D90000EE0FFF7F3F9074606E0FFF7EFF9C01B87
:101DA000B04201D90320CCE6D5F890008007F4D4E6
:101DB000B8F1010F03D1A86D20F08050A8652078FC
:101DC00080062CD5A069A8B1D5F8980040F0010094
:101DD000C5F89800FFF7D2F9064606E0FFF7CEF9FE
:101DE000801B022801D90320ABE6D5F898008007B4
:101DF000F4D514E0D5F8980020F00100C5F898005B
:101E0000FFF7BCF9064606E0FFF7B8F9801B022889
:101E100001D9032095E6D5F898008007F4D4E0694D
:101E2000F0B3A9684FF0FF37C1F3810103295ED0F9
:101E3000022807D0286820F080702860FFF79EF9FC
:101E400004464CE0286820F080702860FFF796F97F
:101E5000064606E0FFF792F9801B022801D903200D
:101E60006FE628688001F5D454F8201F6068228A44
:101E7000401E41EA0010A16807EB5202090241EA44
:101E800042510843217D07EB510140EA4160217B2B
:101E900040EAC160E968264A11400843E86000E072
:101EA00062E0286840F080702860E86840F0807048
:101EB000E860FFF763F9044606E0FFF75FF9001BEF
:101EC000022801D903203CE628688001F5D54BE0C3
:101ED000FFF754F9001B022801D9032031E62868D6
:101EE0008001F5D4E86813490840E8603CE0012827
:101EF00038D0E868226A00F00301914230D1616A6B
:101F000000F0F002491EB2EB011F29D1A26A00F4D1
:101F1000FE41B1EB022F23D100F0784194F82C2040
:101F20000AE00000001002400C0000200070004099
:101F30000C809F01FCFFEEFEB1EBC26F10D1228E30
:101F400000F4C00107EB5202B1EB425F08D194F8F4
:101F5000341000F0C06007EB5101B0EB416F03D0CB
:101F60000120EEE50120ECE50020EAE570B504462D
:101F7000002C09D0606A002540B125616561A56229
:101F800094F85D0040B10CE0012070BD6068B0F5D0
:101F9000827FF4D0E561F2E784F85C50204600F0DF
:101FA0005BF8022084F85D002068016821F04001A0
:101FB0000160E1684FF4E062914201D9002001E044
:101FC0004FF48050B1F5706F02D0914200D0A562FD
:101FD000A188228901F4827102F404421143227C17
:101FE00002F002021143227D02F001021143228B12
:101FF00002F400721143227F02F03802114394F878
:10200000202002F080021143228D02F4005211437D
:1020100022681160A169042202EA114194F8242087
:1020200000F4805002F01002114394F8342002F0C2
:1020300008021143A28902F470621143014320682F
:1020400041602068C16921F40061C16125660120F9
:1020500084F85D00002070BD10B586B004461421E0
:1020600001A8FEF721F92168214C00222148022312
:10207000A1421DD1016E41F480510166016E01F44F
:1020800080510091C16C41F00101C164C06C00F04D
:1020900001000090E0200190029303920492052039
:1020A000059001A94FF09040FEF782FF06B010BDE9
:1020B000114CA142FAD1816D41F400418165816DDD
:1020C00001F400410091C16C41F00201C164C06C97
:1020D00000F0020000903820019002930392032048
:1020E00004900620059001A90448FEF761FFDDE792
:1020F0000030014000100240003C00400004004855
:102100002DE9F84F04468A4691461D4694F85D0035
:10211000012802D00220BDE8F88FBAF1000F08D0E4
:10212000B9F1000F05D060680427B0F5827F02D0B6
:1021300003E00120EFE7A06820B3FFF71FF8064691
:1021400094F85C00012827D04FF0010884F85C80E7
:1021500084F85D7000272766C4F840A0A4F8449076
:10216000A4F84690A763A787E787E7642765E06838
:102170004FF4E061884211D92068426822F480520D
:10218000426010E084F85D704B465246514620464E
:10219000009500F05BF9BEE70220BCE720684268CA
:1021A00042F480524260A068B0F5004F09D1206827
:1021B000026822F0400202602068026822F4804235
:1021C000026020680268520603D4026842F04002AE
:1021D0000260E068884218D93AE020688168C9073F
:1021E0000BD0007B216C0870206C401C2064B4F87C
:1021F0004600401EA4F8460007E0FEF7BFFF801B24
:10220000A84201D3681C05D125B1B4F846000028C6
:10221000E3D121E084F85D8084F85C7003207AE7E4
:1022200020688168C9070BD0C068216C0880206CC9
:10223000801C2064B4F84600401EA4F8460007E065
:10224000FEF79CFF801BA84201D3681C14D19DB1EE
:10225000B4F846000028E3D132462946204601F072
:102260009DFF08B12020206684F85D8084F85C70B2
:10227000206E38B101204EE784F85D8084F85C70F0
:10228000032048E7002046E72DE9F84F04468A4638
:1022900091461D46FEF772FF064694F85D00012840
:1022A00002D00220BDE8F88FBAF1000F21D05FEA1A
:1022B00009001ED094F85C0001281CD04FF00108E2
:1022C00084F85C80032084F85D0000272766C4F84A
:1022D00038A0A4F83C90A4F83E902764A4F8447079
:1022E000A4F846702765E764A068B0F5004F04D0F5
:1022F0000DE00120D6E70220D4E72068016821F034
:10230000400101602068016841F48041016020685B
:102310000168490603D4016841F040010160E068AA
:10232000B0F5E06F2FD9606810B1B9F1010F20D17D
:10233000A06B21680088C860A06B801CA063E08F40
:10234000401EE08715E020688168890709D5A16BE8
:102350000988C160A06B801CA063E08F401EE087ED
:1023600007E0FEF70BFF801BA84201D3681C04D1D5
:102370001DB1E08F0028E6D149E084F85D8084F843
:102380005C7003208EE7606810B1B9F1010F3BD19A
:10239000E08F01280AD9A06B21680088C860A06B73
:1023A000801CA063E08F801EE0872DE0A06B216879
:1023B00000780873A06B401CA063E08F401EE0878C
:1023C00022E020688168890716D5E18F012909D9A3
:1023D000A16B0988C160A06B801CA063E08F801E88
:1023E000E08711E0A16B09780173A06B401CA0632A
:1023F000E08F401EE08707E0FEF7C0FE801BA8428A
:1024000001D3681C0ED16DB1E08F0028D9D13246BE
:102410002946204601F001FF08B120202066A0686F
:1024200030B109E084F85D8084F85C70032039E7FE
:102430002068C1688068009084F85D8084F85C70D2
:10244000206E08B101202DE700202BE72DE9FF5F6A
:1024500004460E9E93461F460125FEF78FFE8046DA
:1024600094F85D00616801280AD0B1F5827F03D13C
:10247000A16809B9042803D0022004B0BDE8F09F88
:10248000019890B3BBF1000F30D038002ED094F8F3
:102490005C0001282CD04FF0010A84F85CA094F86D
:1024A0005D00042802D0052084F85D004FF000098B
:1024B000C4F86090C4F840B0A4F84670A4F8447022
:1024C0000198A063E787A787C4F84C90C4F85090A0
:1024D000E0684FF4E061884201D8012F0AD92068F2
:1024E000426822F48052426009E0FFE70120C4E71D
:1024F0000220C2E72068426842F4805242602068AD
:102500000268520603D4026842F040020260E068AA
:10251000884249D9606808B1012F3DD1A06B21687C
:102520000088C860A06B801CA063E08F401EE0871D
:1025300032E02068816889070DD5E18F59B1012DFE
:1025400009D1A16B0988C160A06B801CA063E08FDA
:10255000401EE087002520688168C9070ED0B4F8C6
:10256000461059B1C068216C0880206C801C206422
:10257000B4F84600401EA4F846000125FEF7FEFD13
:10258000A0EB0800B04207D3701C05D084F85DA012
:1025900084F85C90032070E7E08F0028C9D1B4F87C
:1025A00046000028C5D176E0606808B1012F6BD1E4
:1025B000E08F01280AD9A06B21680088C860A06B51
:1025C000801CA063E08F801EE0875DE0A06B216827
:1025D00000780873A06B401CA063E08F401EE0876A
:1025E00052E02068816889071AD5E18FC1B1012DB9
:1025F00016D1E18F012909D9A16B0988C160A06BAF
:10260000801CA063E08F801EE08708E0A16B097842
:102610000173A06B401CA063E08F401EE087002583
:1026200020688168C90726D0B4F8461019B3B4F8F9
:102630004610012913D9C06854F8401F088020684B
:10264000801C2060E088801EE080E088403C0128FB
:1026500010D82068416841F4805141600AE0007B55
:10266000216C0870206C401C2064B4F84600401EA9
:10267000A4F846000125FEF781FDA0EB0800B0425A
:1026800001D3701C13D196B1E08F0028A9D1B4F802
:1026900046000028A5D142463146204601F0BDFD46
:1026A00058B12020206684F85C900120E5E684F88B
:1026B0005DA084F85C900320DFE684F85DA084F8D8
:1026C0005C90206E08B10120D7E60020D5E64FF0DF
:1026D000E021042804D0086920F004000861704754
:1026E000086940F004000861704710B5401EB0F161
:1026F000807F01D3012010BD4FF0E02460610F21E5
:10270000601702F098FB0020A061072020610020E4
:1027100010BD7047704770477047704770470000A2
:10272000F0B590F83C20012A34D0012680F83C60B6
:10273000022280F83D2003685A689C68164FDFF833
:102740005CC0BB4201D0634503D122F470054A68E6
:102750002A43134D2A400D6815435D600268BA4252
:102760000DD0B2F1804F0AD00E4B9A4207D00E4BDB
:102770009A4204D0624502D00C4B9A4204D124F014
:1027800080038968194391603C30467000210170D4
:102790000020F0BD0220F0BD002C014000340140BB
:1027A0008FFFFFFD00040040000800400040014092
:1027B000704710B50446002C03D094F83D0010B1CA
:1027C00007E0012010BD002084F83C00204600F006
:1027D00017F8022084F83D00211D206801F062FEF8
:1027E00001203D34E0726070A070E0702071607173
:1027F000A071E07120726072A0722070002010BD84
:1028000008B500680B49884212D10B48016E41F4AB
:1028100000610166006E00F4006000900022114625
:102820001920FEF74BFEBDE808401920FEF738BE20
:1028300008BD0000002C01400010024090F83D103F
:10284000012901D001207047022180F83D10016864
:10285000CA6842F00102CA600068124988420ED07C
:10286000B0F1804F0BD01049884208D00F49884200
:1028700005D00F49884202D00E4988420CD18168A8
:102880000D4A114006290BD0B1F5803F08D00168F0
:1028900041F00101016003E0016841F001010160C4
:1028A00000207047002C0140000400400008004058
:1028B00000340140004001400700010070B50446AB
:1028C000002594F83C00012814D0012684F83C60CF
:1028D000022084F83D0020688268394B1A4022F4B7
:1028E0007F428260086870282DD010DC10F00F0F36
:1028F00003D021E04FF0020070BD4FEA2012072AFA
:102900001AD2DFE802F0565656564C3842002D4B8C
:10291000C21A98424DD009DCB0F5805F0DD0B0F5F9
:10292000005F1CD0B0F1101F06D142E0102A40D049
:10293000202A3ED0502A3CD001253C34667000202D
:102940002070284670BDCB68D1E90121206801F0D4
:1029500009FE2068816841F077018160EDE7CB686E
:10296000D1E90121206801F0FDFD2068816841F472
:1029700080418160E1E7CA684968206801F006FE8D
:102980005021206801F0F8FDD7E7CA68496820683F
:1029900001F00DFE6021206801F0EEFDCDE7CA6870
:1029A0004968206801F0F2FD4021206801F0E4FD53
:1029B000C3E722680146104601F0DEFDBDE70000D6
:1029C00088FFCEFF2000100070472DE9F04104463B
:1029D0002068C66805694FF00007A90714D5B1073C
:1029E00012D5F91E016101202077206880698007D7
:1029F00003D02046FFF7E8FF05E0204600F0BAF8D4
:102A0000204600F0B8F82777680717D5700715D566
:102A100021686FF004000861022020772068806937
:102A200010F4407F03D02046FFF7CEFF05E020469C
:102A300000F0A0F8204600F09EF82777280716D56A
:102A4000300714D521686FF0080008610420207752
:102A50002068C069800703D02046FFF7B5FF05E076
:102A6000204600F087F8204600F085F82777E80632
:102A700017D5F00615D521686FF010000861082001
:102A800020772068C06910F4407F03D02046FFF70C
:102A90009BFF05E0204600F06DF8204600F06BF843
:102AA0002777E80708D0F00706D021686FF001000B
:102AB0000861204600F060F8280601D4A80408D573
:102AC000300606D521686FF4025008612046FFF7F2
:102AD00021FEE80508D5300606D521686FF4807020
:102AE00008612046FFF715FE680608D5700606D572
:102AF00021686FF040000861204600F081F8A806C8
:102B000008D5B00606D521686FF020000861204680
:102B1000FFF701FEE80208D5F00206D521686FF440
:102B2000801008612046FFF7F8FDA80208D5B00222
:102B300006D521686FF4001008612046FFF7ECFD10
:102B4000680208D5700206D521686FF4800008611C
:102B50002046FFF7E3FD28020AD5300208D5216898
:102B60006FF4000008612046BDE8F041FFF720BE89
:102B7000BDE8F081704770472DE9F04100681C49BD
:102B8000884232D19FED1B0A00F030FF4FF0904792
:102B90004FF400413846FEF7E3FA174C174E002574
:102BA0002068022805D33068022801D104F050F9CA
:102BB00025606068052805D33068012801D104F03C
:102BC00047F96560A068B0F5FA7F05D34FF400615E
:102BD0003846FEF7C5FAA5602068401C2060606892
:102BE000401C6060A068401CA060BDE8F08100004F
:102BF000002C01406F12833A000000208C07002057
:102C0000704790F88410012918D0012180F88410B1
:102C10002421C0F8881001680A680B6823F00103BA
:102C20000B6022F0005100224266036819602021E7
:102C3000C0F8881080F88420002070470220704778
:102C400010B50446D4F88C00202801D0022010BD15
:102C500051B14AB10120E06600202067204601F012
:102C6000FDFF014611B105E0012010BDE06E012815
:102C700002D00121084610BD226810201062206891
:102C800050E8002F42F0100240E80023002BF6D15C
:102C9000F0E7000010B500680A49884210D10A48E0
:102CA000006840684042C4B207482146C03004F082
:102CB00087F821460448BDE81040C030FDF7F4BA5B
:102CC00010BD00000038014098040020704770B526
:102CD000044694F8840001281DD0012084F8840063
:102CE0002420C4F8880020680568026822F00102E8
:102CF00002602068826822F060620A438260204697
:102D000001F068FC206805602020C4F888000020DD
:102D100084F8840070BD022070BD70B5044694F83C
:102D2000840001281DD0012084F884002420C4F8E8
:102D3000880020680568026822F0010202602068AD
:102D4000826822F060420A438260204601F042FC21
:102D5000206805602020C4F88800002084F88400E2
:102D600070BD022070BD7047704770472DE9F0417B
:102D700004462368D86919689A6840F60F0500EA86
:102D80000507002F0ED185060CD501F0200502F0B5
:102D90008056354306D0616F00297DD02046BDE8BE
:102DA000F041084700260225002F76D0B54FDFF806
:102DB000D8C2174001EA0C0C57EA0C0C6DD05FEA40
:102DC000C07C0CD05FEAC15C09D54FF0010CC3F8A0
:102DD00020C0D4F8903043F00103C4F8903083074A
:102DE00009D5D30707D023681D62D4F8903043F08B
:102DF0000403C4F8903043070AD5D30708D02568E8
:102E000004232B62D4F8903043F00203C4F89030CE
:102E100003070CD501F020033B4308D025680823A5
:102E20002B62D4F8903043F00803C4F890300305C7
:102E30000BD54B0109D525684FF400632B62D4F8FC
:102E4000903043F02003C4F89030D4F89030002B39
:102E50003CD0800609D501F0200002F080510843E3
:102E600003D0616F09B120468847D4F890002168EB
:102E70008968490602D410F0280F2DD0204601F0B1
:102E80002FFD20688068400622D52068083050E871
:102E9000001F21F0400101E018E023E040E80012AB
:102EA000002AF2D1D4F8800068B178498163D4F85F
:102EB0008000FDF71DFE002808D0D4F88000816B4B
:102EC000BDE8F04108472046FFF74FFFBDE8F0811D
:102ED0002046FFF74AFFF9E72046FFF746FFC4F810
:102EE0009060F3E7E76E012F7DD1C7067BD5CF0653
:102EF00079D510201862206880684FF020034006C2
:102F000055D5D4F880100A68506880B2F0B3B4F890
:102F10005C7087423FD9A4F85E00086800688006AC
:102F20002CD4206850E8001F21F4807140E8001282
:102F3000002AF6D12068083050E8001F21F0010176
:102F400040E80012002AF5D12068083050E8001F40
:102F500021F0400140E80012002AF5D1C4F88C307D
:102F6000E666206850E8001F21F0100140E80012DA
:102F7000002AF6D1D4F88000FDF786FD2567B4F865
:102F80005C00B4F85E10401A81B200E003E0204615
:102F9000FFF780FE9AE7B4F85C10814296D1106882
:102FA000800693D525672046FFF774FE8EE734F838
:102FB0005C0F6188401A81B260885C3C002885D033
:102FC000002983D0206850E8002F22F4907240E856
:102FD0000027002FF6D12B4FFF432068083050E820
:102FE000002F3A4000E016E040E8002CBCF1000F52
:102FF000F3D1C4F88C30E6666667206850E8002F8D
:1030000022F0100240E80023002BF6D1256720466D
:10301000FFF740FE5AE7C50209D5550207D54FF420
:10302000801018622046BDE8F041FFF79DBE030600
:103030000CD501F0800302F40002134306D0A16F07
:103040000029A7D02046BDE8F0410847420606D532
:103050004A0604D52046BDE8F04101F06BBC0202EF
:1030600006D54A0004D52046BDE8F041FFF77BBEF7
:10307000C0018FD500298DDA2046BDE8F041FFF769
:1030800025BE000001000010200100048F47000849
:1030900010B50446002C03D0D4F8880010B107E026
:1030A000012010BD002084F88400204600F028F89C
:1030B0002420C4F888002068016821F00101016023
:1030C000A06A10B1204601F0A9FA204601F05CFC8C
:1030D000012813D02068416821F4904141602068A4
:1030E000816821F02A0181602068016841F00101B6
:1030F00001602046BDE8104001F0F4BA012010BD87
:10310000F0B597B00446142112A8FDF7CDF844217C
:1031100001A8FDF7C9F83249206888425DD1012035
:1031200001900026029601A8FEF768FA08B1FDF7A3
:1031300000FC2C48016E41F480410166016E01F4EF
:1031400080410091C16C41F00201C164C06C00F08B
:1031500002000090C02012900220139014960320C9
:1031600015900720169012A91F48FDF721FF204D4A
:103170001E48286018206860AE60EE6080272F61CE
:103180006E61AE61EE612E622846FDF755FD08B115
:10319000FDF7CFFBC4F88050AC621448144D1430D6
:1031A00060352860192068601020A860EE602F61EB
:1031B0006E61AE61EE61400228622846FDF73CFD7B
:1031C00008B1FDF7B6FBE567AC62012205212520B9
:1031D000FEF774F92520FEF763F917B0F0BD000083
:1031E000003801400010024000040048080002407E
:1031F00098040020704770472DE9F84304460E46B6
:1032000015461F46D4F88800202802D00220BDE8C9
:10321000F8838EB185B100201834A0672120206783
:10322000FDF7ACFF8146A587E58754F8100C183CE4
:10323000B0F5805F02D003E00120E8E7206920B10B
:10324000354600264FF0200817E00025FAE74B46E8
:10325000002280212046009701F052FD18B1C4F8E9
:1032600088800320D3E7C5B1216815F8010B886277
:10327000B4F85600401EA4F85600B4F856000028D2
:10328000E5D14B46002240212046009701F038FD51
:1032900050B1C4F888800320B9E736F8020B2168E2
:1032A000C0F308008862E3E7C4F888800020AEE736
:1032B00070B50446D4F88800202801D0022070BDE3
:1032C00031B32AB344F8501FA280E2800021216468
:1032D0002120A063E06A503CE0B1164BC362E36F6B
:1032E00015481863E36F15485863E06F81632068E1
:1032F00013462830E56F02462846216DFDF7FCFC99
:1033000040B110208834A06020202060012070BDD2
:10331000012070BD2168402008622068083050E814
:10332000001F41F0800140E80012002AF5D1002082
:1033300070BD000095480008D74800089F47000866
:1033400070477047FEE700002DE9F05F2DED088B18
:10335000ADF5E45D0020CDF8F804CDF8FC04CDF81F
:103360000005CDF8EC04CDF8F004CDF8F4040C9091
:103370000D900E9009900A900B909FEDFC8ADFED66
:10338000FC8AFC4C0DF5806080ED3E8A80ED3F8A22
:1033900080ED408A80ED3B8A80ED3C8A80ED3D8A5D
:1033A00084ED0A8A84ED0B8A84ED0C8A8DED0C8AFB
:1033B0008DED0D8A8DED0E8A8DED098A8DED0A8ACF
:1033C0008DED0B8A84ED0D8A0025DFF8AC930DF2AC
:1033D00004564FF4FA7802F0B3FCB9F9000000EE9D
:1033E000100A05EB450006EB8000B8EEC00A20EE9F
:1033F000280A80ED000AB9F9021000EE901AF8EEE2
:10340000E00A60EEA80AC0ED010AB9F9041001EE65
:10341000101AB8EEC11A21EE281A80ED021A0DF525
:103420008061D1ED3E1A31EE800A81ED3E0A91EDC8
:103430003F0A30EE200A81ED3F0A91ED400A30EE5E
:10344000010A81ED400A012002F02CFC6D1CADB296
:103450004545C0D30DF58060D0ED3E0A9FEDC70A0B
:1034600080EE80AA80ED3EAAD0ED3F0AC0EE80AA91
:10347000C0ED3FAAD0ED400A80EE80BA80ED40BAA0
:1034800000259FEDBF9A0FAF02F05AFCB9F9060074
:1034900000EE100A05EB450007EB8000B8EEC00A0D
:1034A00020EE090A80ED000AB9F9081000EE901A22
:1034B000F8EEE00A60EE890AC0ED010AB9F90A10D7
:1034C00001EE101AB8EEC11A21EE091A80ED021AA7
:1034D000DDED0C1A31EE800A8DED0C0A9DED0D0A22
:1034E00030EE200A8DED0D0A9DED0E0A30EE010A38
:1034F0008DED0E0A012002F0D5FB6D1CADB2642DDE
:10350000C2D3DDED0C0A9FED9F0AC0EE801ACDED0F
:103510000C1ADDED0D0A80EE809A8DED0D9ADDED31
:103520000E0AC0EE809ACDED0E9A0020DFED960ACD
:1035300000EB400106EB81010DF5806291ED000A80
:1035400092ED3B1A30EE4A0A20EE202A02EE001AD3
:1035500082ED3B1A91ED010A92ED3C1A30EE6A0AB7
:1035600020EE202A02EE001A82ED3C1A91ED020AAA
:1035700092ED3D1A30EE4B0A20EE202A02EE001AA0
:1035800082ED3D1A401C80B24045D1D30020DFEDD2
:103590007F0A00EB400107EB81019DED091A91EDD7
:1035A000000A30EE610A20EE202A02EE001A8DEDAC
:1035B000091A91ED010A9DED0A1A30EE490A20EE32
:1035C000202A02EE001A8DED0A1A91ED020A9DEDF5
:1035D0000B1A30EE690A20EE202A02EE001A8DED59
:1035E0000B1A401C80B26428D3D3DDF8EC94C4F8E5
:1035F0005C90DDF8F0A4C4F860A0DDF8F4B4C4F881
:1036000064B00DF580500999C0F87C1CA1660A9938
:10361000C0F8781CE1660B99C0F8741C2167584605
:10362000FCF763FF05460E465046FCF75EFF074673
:1036300088464846FCF759FF41EC100BCDE900786D
:10364000CDE9025653EC102B51A001F0B7FB206FCF
:10365000FCF74BFF05460E46E06EFCF746FF0746BB
:103660008846A06EFCF741FF41EC100BCDE90078D5
:10367000CDE9025653EC102B4CA001F09FFB5148B2
:10368000814572DA824570DA83456EDA0DF5805035
:103690004D49D0F87C0C884267DA0DF58050D0F89F
:1036A000780C884261DA0DF58050D0F8740C8842AD
:1036B0005BDA0DF5806090ED3E0A84ED0A0A90ED2C
:1036C0003F0A84ED0B0A90ED400A84ED0C0A9DED53
:1036D0000C0ADDED0D0A20EE000A00EE890ADDED90
:1036E0000E0A00EEA90A02F04BFEF7EE008AC8EEC1
:1036F000800AC4ED0D0A206BFCF7F7FE05460E4666
:10370000E06AFCF7F2FE07468846A06AFCF7EDFE89
:1037100041EC100BCDE90078CDE9025653EC102BAB
:103720002AA001F04BFB606BFCF7DFFE41EC100BB5
:103730002EA053EC102B01F041FB012084F89000E7
:10374000C4ED208A84ED218A84ED228A84ED238AC7
:103750009FED2A0A84ED110A9FED290A84ED120AD1
:103760009FED280A84ED130A4EE05FE000000000A0
:103770000C007A3DD4110020B80800200000FA4364
:103780004201003A0000C842AD55033BB57E253CDE
:103790006779726F5F7661720A783A25660A793ABC
:1037A00025660A7A3A25660A000000006163635FB5
:1037B0007661720A783A25660A793A25660A7A3A73
:1037C00025660A00CDCC4C3D0AD7233C6779726F41
:1037D0005F6F66667365743A7825660A20207925DE
:1037E000660A20207A25660D0A0000006163635F87
:1037F0006F66667365743A25660D0A0060AD5ABC43
:103800003FAD223C9E62553A9FED0B0A84ED0E0AB5
:103810009FED0A0A84ED0F0A9FED090A84ED100A54
:103820000DF5E45DBDEC088BBDE8F09F4FF47A70B8
:1038300002F038FAA6E5000076C37E3F4415803FCB
:1038400060727F3F2DE9F04102F07AFA624F614CDD
:10385000B7F9000094ED0A0A00EE900AB8EEE01AFB
:10386000DFED5E0A11EE200A84ED000AB7F90200CE
:1038700094ED0B1A01EE900AF8EEE11A11EEA01A7F
:1038800084ED011AB7F9040094ED0C1A01EE900AC8
:10389000F8EEE11A11EEA01A84ED021A504DD4EDA3
:1038A000170AC5ED050AD4ED180AC5ED0C0AD4EDCA
:1038B000190AC5ED130AA4F12406A4F11808D6EDDF
:1038C000000A98ED001A70EEC10AC5ED020AD6EDA5
:1038D000010A98ED011A70EEC10AC5ED090AD6ED8C
:1038E000020A98ED021A70EEC10AC5ED100A2846C8
:1038F00002F09BFF95ED000A84ED000A94ED010AA9
:1039000005F11C0002F091FF95ED070A84ED010A14
:1039100094ED020A05F1380002F087FF95ED0E0ADA
:1039200084ED020AD6ED000AC8ED000AD4ED000AC3
:10393000C6ED000AD6ED010AC8ED010AD4ED010A70
:10394000C6ED010AD6ED020AC8ED020A86ED020AAA
:10395000B7F90600D4ED110A00EE100AB8EEC01A4D
:103960009FED200A51EE000A94ED0E1A60EE810AD6
:10397000C4ED030AB7F90800D4ED120A01EE100AEB
:10398000B8EEC11A51EE000A94ED0F1A60EE810AEA
:10399000C4ED040AB7F90A00D4ED130A01EE100AC7
:1039A000B8EEC11A51EE000A94ED100A20EE800A1A
:1039B00084ED050AB7F90C009FED0B1A00EE100A12
:1039C000F8EEC00AB3EE090A00EE810A84ED060A99
:1039D000BDE8F081D4110020B80800200C007A3D29
:1039E000400000204201003A0000003C10B52DEDDF
:1039F0000C8B8CB0F0EE408AF6EE000A28EEA08A1E
:103A00009FEDFECA9FEDFEBADFEDFEBAFE4CB7EEAB
:103A100000AA94ED030ADFEDFDAAB5EEC00AF1EEAF
:103A200010FA0DD194ED041AB5EEC01AF1EE10FAA9
:103A300006D194ED051AB5EEC01AF1EE10FA7CD05D
:103A400094ED211AD4ED231A94ED222A21EE211AA5
:103A5000D4ED201A01EEC21A8DED091A94ED201A48
:103A6000D4ED211A94ED232A21EE211AD4ED221A45
:103A700001EE821A8DED0A1A94ED211AD4ED211A65
:103A800094ED222A21EE211AD4ED221A01EE821A97
:103A900070EEC10ACDED0B0A03F038F8B0EE409A93
:103AA00094ED040A03F032F839EE009A94ED050A19
:103AB00003F02CF839EE000A02F062FCD4ED030AA0
:103AC00060EE800ACDED060AD4ED040A60EE800AAD
:103AD000CDED070AD4ED050A60EE800ACDED080AA7
:103AE0008AEE00DAD4ED0DCA1CEE900AFCF7FDFC5C
:103AF0003DEE6C0A41EC190B10EE100AFCF7F5FCD8
:103B000041EC100B01F0F2FB51EC100B81F0004185
:103B100053EC192BFCF77AFCFCF712FD00EE100AAF
:103B200001F0F0FA60EE0C0A20EEAB0A20EE200A5B
:103B300020EE280A60EE8B0A00E069E09DED071A8E
:103B4000DDED0B1A9DED0A2A21EE211ADDED081A92
:103B500001EEC21A8DED001A9DED081ADDED091A6D
:103B60009DED0B2A21EE211ADDED061A01EEC21A97
:103B70008DED011A9DED061ADDED0A1A9DED092A5B
:103B800021EE211ADDED071A01EEC21A8DED021A9F
:103B90009D48DDED001A0C3890ED001A01EE801AF8
:103BA00080ED001AD0ED011A9DED012A42EE001AB7
:103BB000C0ED011A90ED022ADDED022A02EE802A04
:103BC00080ED022AD4ED002A9FED910A9DED003A86
:103BD00062EE802A40EE832A32EE811A8DED031ABE
:103BE00094ED011ADDED012A21EE001A00EEA21A71
:103BF00031EE211A8DED041A94ED021A21EE000A1D
:103C00009DED021A00EE810A30EE020A8DED050AE2
:103C100094ED210ADDED030A9DED041AB1EE400A90
:103C200020EE200AD4ED220A00EEC10AD4ED230AC8
:103C30009DED051A00EEC10A20EE080AD4ED200A17
:103C40009DED031ADDED041A60EE810A94ED231A4E
:103C500041EE610A94ED221ADDED051A41EE210ACA
:103C600060EE880A94ED231ADDED031A9DED042A17
:103C700021EE211AD4ED201A01EE821AD4ED211A78
:103C80009DED052A01EEC21A21EE081AD4ED211A83
:103C90009DED042ADDED032A61EE821A94ED222ABD
:103CA00042EE621A94ED202ADDED052A42EE221A38
:103CB00061EE881A94ED202A32EE000A84ED200A83
:103CC00094ED210A30EE200A84ED210A94ED220AB7
:103CD00030EE010A84ED220A94ED230A30EE210A27
:103CE00084ED230A94ED200A02F010FFB0EE408A22
:103CF00094ED210A02F00AFF38EE008A94ED220AC0
:103D000002F004FF38EE008A94ED230A02F0FEFE72
:103D100038EE000A02F034FBD4ED200A60EE800A8F
:103D2000C4ED200AD4ED210A60EE800AC4ED210A18
:103D3000D4ED220A60EE800AC4ED220AD4ED230AF3
:103D400020EE800A84ED230A94ED210AD4ED230AA3
:103D500094ED221A60EE200A94ED200A40EE410A0A
:103D6000B0EE000A60EE809AD4ED220A94ED231A98
:103D7000D4ED211A60EE810A94ED201A41EE210A59
:103D800020EE809AD4ED210A94ED211AD4ED221A66
:103D9000B0EE4A8A60EE810A94ED221A41EE210AC1
:103DA00000EEC08A29EE090A08EE080A01F0A8FA16
:103DB000F0EE400AB1EE690A01F04EF820EE2A0A50
:103DC00084ED1E0AF0EE480AB0EE490A01F044F80C
:103DD00020EE2A0A84ED1D0A9DED050A10EE100A58
:103DE000FCF783FB41EC100B01F080FA9FED091BFF
:103DF00051EC100B53EC112B10E000009A99193E76
:103E000010580941C05E1341D4110020E12E6542D3
:103E100039FA8E3C00000040E17A843FFCF778FBE1
:103E200009D2DDED050A94ED1F0A60EEAA0A00EE44
:103E3000A80A84ED1F0A0CB0BDEC0C8B10BD00006D
:103E400008B51148816C41F004018164816C01F076
:103E500004010091816C41F001018164806C00F0EB
:103E600001000090002205210B20FDF727FB0B200D
:103E7000FDF716FB012205210C20FDF71FFBBDE815
:103E800008400C20FDF70CBB001002402DE9F04368
:103E900087B0142102A8FCF707FA3548C16C41F03D
:103EA0002001C164C16C01F020010191C16C41F09D
:103EB0000101C164C16C01F001010191C16C41F0CB
:103EC0000201C164C06C00F002000190DFF8A48020
:103ED000002201214046FDF74BF94FF090490022A6
:103EE0004FF418414846FDF743F9122002904FF471
:103EF000881703970226049602A94846FDF758F84A
:103F000001250295039500240494059402A94046D6
:103F1000FDF74EF8A80202900397049402A94846C0
:103F2000FDF746F8E802029003950496059402A96D
:103F30004846FDF73DF82803029003950494059444
:103F400002A94846FDF734F8E80302900395049669
:103F5000059602A94846FDF72BF8002201210A2008
:103F6000FDF7ACFA0A20FDF79BFA07B0BDE8F08335
:103F7000001002400004004810B5154813490160C4
:103F800014494160002181600122C26001614161E8
:103F90008161C1610162FDF763F908B1FCF7C9FCF9
:103FA0004FF480510A48FDF7EFF808B1FCF7C1FC67
:103FB00000210748FDF715F908B1FCF7BAFCBDE888
:103FC00010404FF40010FDF737B9000000580040D2
:103FD0009C0000202A16C31010B512481049016039
:103FE0004FF482714160002181604FF4E062C26051
:103FF000016141614FF4007282611022C26101626D
:10400000416281620722C26201634163FDF7AEFF34
:10401000002803D0BDE81040FCF78BBC10BD0000A9
:1040200000300140F000002010B512481049016036
:104030004FF482714160002181604FF4E062C26000
:10404000016141614FF4007282611022C26101621C
:10405000416281620722C26201634163FDF786FF0C
:10406000002803D0BDE81040FCF763BC10BD000081
:10407000003C00405401002010B588B00024049496
:1040800005940694079401940294039414481349E8
:104090000160A9214160846040F2E731C1600461A0
:1040A00044618461FEF785FB08B1FCF742FC4FF4E4
:1040B0008050049004A90A48FEF700FC08B1FCF700
:1040C00038FC01940294039401A90548FEF728FBEB
:1040D000002801D0FCF72DFC08B010BD002C0140D9
:1040E000B801002010B51848164901604FF4E121CD
:1040F000416000218160C16001610C2242618161E7
:10410000C161016241628162FEF7C2FF08B1FCF742
:1041100010FC00210C48FEF700FE08B1FCF709FC7A
:1041200000210948FEF7D3FD08B1FCF702FC064860
:10413000FEF767FD002803D0BDE81040FCF7F9BB8F
:1041400010BD00000038014004040020FEE7FEE737
:10415000704700000F49C86800F00302C868C0F348
:104160000310401C0C4B032A0DD0B3FBF0F0CA68BF
:10417000C2F306225043C968C1F34161491C49009A
:10418000B0FBF1F07047B3FBF0F0CA68C2F306224F
:104190005043F0E7001002400024F4002DE9F843FA
:1041A0000446884615464FF4004660684FF482790D
:1041B0007711484509D1A068B04201D0B84204D176
:1041C0002068016821F040010160434600228021FF
:1041D0002046009500F0C4F830B1206E40F0200079
:1041E00020660320BDE8F8836068484513D1A068C5
:1041F000B04201D0B8420ED1434600224FF4C06114
:104200002046009500F03CF828B1206E40F02000D8
:1042100020660320E6E70020E4E7F8B504460E46F2
:104220001546334600224FF4C0512046009500F059
:1042300027F828B1206E40F0200020660320F8BD4A
:104240003346002280212046009500F089F828B1ED
:10425000206E40F0200020660320F8BD3346002287
:104260004FF4C0612046009500F00AF828B1206E96
:1042700040F0200020660320F8BD0020F8BD0000BB
:104280002DE9FC5F04460C9D0E46174698464FF0FC
:10429000000BCDF800B0FCF771FF401BA8EB000548
:1042A000FCF76CFF8146D4F800A00AF10C0A2B48F9
:1042B0000068C0EBC00000EB8000000D6843019077
:1042C00044E0B6F5C06F05D127B99AF80000009018
:1042D0009DF80000B8F1FF3F38D0FCF74FFFA0EB8E
:1042E0000900A84203D215B1019858B32BE0206809
:1042F000416821F0E00141606068B0F5827F0BD138
:10430000A068B0F5004F02D0B0F5806F04D12068EE
:10431000016821F040010160A06AB0F5005F09D199
:104320002068016821F4005101602068016841F4AF
:1043300000510160012084F85D0084F85CB0032026
:10434000BDE8FC9F00250198401E01902068806810
:104350003040B842B5D10020F2E70000380000201C
:104360002DE9F84304460F4691461E46089DFCF78A
:1043700005FF401B351AFCF701FF80462648006800
:10438000C0F3CB30684300903AE0701C38D0FCF7A3
:10439000F5FEA0EB0800A84203D215B1009858B36F
:1043A0002BE02068416821F0E00141606068B0F5D1
:1043B000827F0BD1A068B0F5004F02D0B0F5806FBE
:1043C00004D12068016821F040010160A06AB0F5C5
:1043D000005F09D12068016821F400510160206864
:1043E000016841F40051016001205C3460700020DC
:1043F00020700320BDE8F88300250098401E00903F
:104400002068806837EA000004D000204845BCD10D
:104410000020EFE70120F9E7380000207047FCF7A3
:10442000C5BF10B594B0382106A8FBF73DFF142195
:1044300001A8FBF739FF0020FDF772F80120069074
:104440000004079002200D9003240E9404210F9184
:104450005521109111901290139006A8FDF75EFB64
:1044600008B1FCF766FA0F20019002940020039037
:1044700004900590042101A8FDF70CFA002801D052
:10448000FCF757FA14B010BD0248016841F47001FE
:104490000160704788ED00E00148FEF796BA000021
:1044A000B80100202DE9F0470268274DDFF89C8015
:1044B000DFF89C90274B4FF0804AA84207D0504528
:1044C00005D0404503D0484501D0984203D122F0A1
:1044D00070044A682243204E204FDFF884C0A8426F
:1044E0000DD050450BD0404509D0484507D09842E3
:1044F00005D0B04203D0B84201D0604503D122F4C8
:104500004074CA6822434C6922F080022243026050
:104510008A68C2620A688262A84207D0984205D0BF
:10452000B04203D0B84201D0604501D109690163AE
:10453000012141610169C90703D0016921F001012D
:104540000161BDE8F0870000002C0140000400403C
:104550000008004000340140004001400044014098
:104560000048014010B5846824F47F4442EA0322E5
:104570000A432243826010BD8268034B1A400A43FB
:1045800042F00701816070478FFFCFFF10B5036ACB
:10459000046A24F001040462846924F0F00444EA0B
:1045A000021423F00A020A438461026210BD10B5AE
:1045B000036A046A24F010040462846924F47044D9
:1045C00044EA023223F0A00343EA0111826101624E
:1045D00010BD000030B5416E002917D00268916807
:1045E000C1F342619268520F0B4B9C5CE50003F1F2
:1045F0000804A25CB5FBF2F2A0F86A205A5C615C88
:10460000D200B2FBF1F1A0F8681030BD0121683092
:104610004180018030BD00007870000890F82810BB
:10462000090706D501684A68836B22F400421A43E1
:104630004A6090F82810C90706D001684A68C36A22
:1046400022F400321A434A6090F82810890706D5F0
:1046500001684A68036B22F480321A434A6090F87A
:104660002810490706D501684A68436B22F4802266
:104670001A434A6090F82810C90606D501688A686E
:10468000C36B22F480521A438A6090F8281089067E
:1046900006D501688A68036C22F400521A438A60C6
:1046A00090F82810490611D501684A68436C22F435
:1046B00080121A434A60416CB1F5801F06D101682F
:1046C0004A68836C22F4C0021A434A6090F82810AA
:1046D000090606D501684A68C06C22F4002202432C
:1046E0004A6070472DE9F84304460025C4F890500D
:1046F000FCF744FD8046206800684FF02006000764
:104700006FF07E4716D543460022310420460097BD
:1047100000F0F6FA70B1206850E8001F21F0800127
:1047200040E80012002AF6D1843466602570032028
:10473000BDE8F88320680068400720D54346002282
:104740004FF480012046009700F0DAFAB8B12068F3
:1047500050E8001F21F4907140E80012002AF6D1C1
:104760002068083050E8001F21F0010140E80012E5
:10477000002AF5D18434A66025700320D8E76C3474
:10478000E66126622560656025760020D0E710B5D9
:10479000806A0021A0F85E10FEF7E7FA10BD70B540
:1047A000846AD4F88800D4F88C50216889684FF066
:1047B0000006090606D5212804D1A4F85660204633
:1047C00000F0CAF820688068400606D5222D04D182
:1047D000A4F85E60204600F083F8D4F8900040F022
:1047E0001000C4F890002046FEF7BFFA70BD10B567
:1047F0000146886A096809684FF0000389062DD4CC
:10480000A0F85E30016851E8002F22F4807241E880
:104810000024002CF6D10168083151E8002F22F065
:10482000010241E80024002CF5D10168083151E86B
:10483000002F22F0400241E80024002CF5D1202175
:10484000C0F88C10C16E012908D1016851E8002F11
:1048500022F0100241E80024002CF6D10367C16E5B
:10486000012902D0FEF7C6FC10BDB0F85C10FEF7BF
:1048700011FA10BD10B5806A01210167C16E0129CE
:1048800002D0FEF7B8FC10BDB0F85C104908FEF786
:1048900001FA10BD10B50146886A096809688906E1
:1048A00016D40021A0F856100168083151E8002FF5
:1048B00022F0800241E80023002BF5D1016851E885
:1048C000002F42F0400241E80023002BF6D110BD3A
:1048D000FEF736FD10BD10B5806AFEF732FD10BD43
:1048E00010B5016851E8002F22F4907241E80023CE
:1048F000002BF6D10E4B0168083151E8002F1A4009
:1049000041E80024002CF6D1C16E012908D10168CC
:1049100051E8002F22F0100241E80023002BF6D1CD
:104920002021C0F88C100021C166416710BD000035
:10493000FEFFFFEF10B5016851E8002F22F04002A2
:1049400041E80023002BF6D12021C0F88810002177
:104950008167FEF7F5FC10BD016851E8002F22F0D9
:10496000C00241E80023002BF6D10168083151E86C
:10497000002F22F4000241E80023002BF5D1202172
:10498000C0F88810704700002DE9F041044600256A
:10499000A74B20682269A168E66911436269324326
:1049A00011430268A34E32400A4302602068416806
:1049B000E26821F4405111434160A06921689942A5
:1049C00001D0226A10438A689B4E324002438A60BB
:1049D0002068C16A626A21F00F011143C1629749E0
:1049E000226897488A4214D1D0F8880010F003005A
:1049F00007D0012809D0022805D0032807D01021AC
:104A00006AE0012168E0022166E0042164E00821F7
:104A100062E08C498A4214D1D0F8880010F00C0072
:104A200007D0042809D0082805D00C2807D0102169
:104A300052E0002150E002214EE004214CE0082128
:104A40004AE081498A4214D1D0F8880010F0300041
:104A500007D0102809D0202805D0302807D01021F1
:104A60003AE0002138E0022136E0042134E0082158
:104A700032E076498A4214D1D0F8880010F0C000A4
:104A800007D0402809D0802805D0C02807D01021A1
:104A900022E0002120E002211EE004211CE0082188
:104AA0001AE09A4217D1D0F8880010F440600AD07A
:104AB000B0F5806F0BD0B0F5006F06D0B0F5406F49
:104AC00007D0102108E0002106E0022104E00421C3
:104AD00002E0082100E010215D485E4E00274FF4FF
:104AE000004C9A4239D1B9B1022905D0042916D017
:104AF000082917D00020012560B3616A36F811201B
:104B0000B0FBF2F1666806EB46038B4202D8B1EBCC
:104B1000063F09D9012582E0FCF7A6FFECE7FCF788
:104B2000C7FFE9E76046E7E700231946FBF772FB9A
:104B3000090241EA106102027008101879413246F8
:104B40000023FBF767FB444AA0F54071914202D86D
:104B50002168C86063E0012561E0E2694FF6EF7803
:104B6000624530D1092911D2DFE801F005081210A1
:104B70000B1010100E00FCF777FF09E0FCF786FF22
:104B800006E0FCF795FF03E0604601E00020012508
:104B9000F0B3616A36F81110B0FBF1F041006068C3
:104BA00001EB5001B1FBF0F0A0F11001414508D834
:104BB0004FF6F0710140C0F3420001432068C1602C
:104BC0002DE001252BE0092911D2DFE801F00508CD
:104BD00012100B1010100E00FCF746FF09E0FCF756
:104BE00055FF06E0FCF764FF03E0604601E00020AB
:104BF000012568B1616A36F81110B0FBF1F1606807
:104C000001EB5001B1FBF0F0A0F11001414500E0D3
:104C100005E003D8216880B2C86000E001250120CA
:104C2000683460802080E76027612846BDE8F08115
:104C300000800040F369FFCFFFF4FF11003801400E
:104C4000001002400044004000480040004C00407A
:104C50000024F40060700008FFFC0F0070B50446EB
:104C600044F8581FA2800021A16322206063A06A3B
:104C7000583C00281DD01F4BC362241D1E48E36F03
:104C80001863E36F1D485863E06F8163606D54F8EB
:104C9000041CE56F134602462431241F2846FCF706
:104CA0002BF830B110208C3460602020206001206F
:104CB00070BD206940B1206850E8001F41F4807148
:104CC00040E80012002AF6D12068083050E8001FA2
:104CD00041F0010140E80012002AF5D120680830B7
:104CE00050E8001F41F0400140E80012002AF5D1D1
:104CF000002070BDEF470008754800089F47000876
:104D00002DE9F0470446089E0D46174698464FF099
:104D1000000935E0701C33D0FCF730FAA0EB080036
:104D2000B04219D8C6B120680168490728D5802D3E
:104D300026D0402D24D0C169C94309070ED420686C
:104D4000082505622046FFF7CBFDC4F8905084F893
:104D500084900120BDE8F0870320FBE7C069C043D1
:104D600000050DD421684FF4006008622046FFF76B
:104D7000B7FD2020C4F8900084F884900320E9E770
:104D80002068C06935EA000004D00020B842C1D0D4
:104D90000020DFE70120F9E710B50548FDF7E6FF41
:104DA000BDE810404FF4007202490148FDF748BFCA
:104DB0000404002058050020FEE700000FB4054B56
:104DC00010B503A9044A029800F0A6FB10BC5DF8D8
:104DD00014FB0000295D0008940000207CB50C0045
:104DE0001D461646014601D0601E00E00020CDE9B8
:104DF0000010064B6A462946304600F08DFB002C19
:104E000002D0009A002111707CBD00001F5C0008D8
:104E10004100080218BF04200A0E18BF40F001002C
:104E20004FF07F4232EA010108BF40F00200012842
:104E300008BF052070470907090E002804DB00F1B0
:104E4000E02080F80014704700F00F0000F1E0202F
:104E500080F8141D7047000070B54FF068422DEDCA
:104E6000048BF0EE408A18EE900AB0EE608A18EEDD
:104E7000101A02EB4003B3F1654F3CBF02EB410255
:104E8000B2F1654F7DD200BFC0F3C753C1F3C75223
:104E90009A1A1B2A09DD10F0004F14BF9FED830AF8
:104EA0009FED830ABDEC048B70BD12F11A0F36DA48
:104EB00011F0004F09D010F0004F0CBF9FED7D0A9C
:104EC0009FED7D0ABDEC048B70BD88EE889A19EECB
:104ED000100AFFF79DFF042808BF00F03DFA18EE06
:104EE000900AFFF795FF054618EE100AFFF790FFAE
:104EF000044619EE100AFFF78BFF042D18BF052D8D
:104F000008D1042C18BF052C04D1002804BF0220AE
:104F100000F03AFAB0EE490ABDEC048B70BD4200D5
:104F2000B2EB410F3AD910F0004F19BFDFED630A21
:104F30009FED630ADFED630A9FED630AB0EE481A46
:104F40000A46B1EE688A80F00041F0EE418A1046D0
:104F50000A1A5200B2F1807F34D2484010F0004F5C
:104F6000DFED5A1A9FED5A2A1DBFBEEE001A70EEF1
:104F7000E10A30EE420AB6EE001A08BF70EEA10A4E
:104F800000E040E008BF30EE020AB0EE682A01EE11
:104F9000482A08EE818AC2EE081A15E011F0004F87
:104FA00004BF9FED4C0AF0EE400AD1D010F0004F44
:104FB00019BFDFED490A9FED490ADFED490A9FED70
:104FC000490AC5E7C8EE881A21EEA11A9FED462AC4
:104FD000DFED462A41EE022A9FED452A01EE222A04
:104FE000DFED442A41EE022A9FED432ABDEC048BFB
:104FF00001EE222A21EE811A01EE020A30EE210A88
:1050000030EE200A70BD4FF07F42B2EB400F28BF58
:10501000B2EB410F09D2F0EE480AB0EE680ABDECDF
:10502000048BBDE8704000F08BB940EA01035B00DF
:1050300008BF41F0FF410BD0B2EB400F08BFB2EB0D
:10504000410F08D120F0804008EE900A21F0804105
:1050500008EE101A18E7B2EB400F12BF5FEA4103E7
:1050600040F0FF4001F000413FF40EAFB2EB410FC2
:1050700012BF5FEA400200F0004041F0FF413FF400
:1050800003AF4A0092EA40033FF5FEAE002AACBFF0
:105090009FED1A0A9FED1A0A68EE808A28EE008AB0
:1050A00018EE900A18EE101AEEE60000DB0FC9BFEA
:1050B000DB0FC93FDB0F4940DB0F49C00000C9BF10
:1050C00022AAFDB90000C93F22AAFD390060ED3EC9
:1050D000C30ACE3700000000000049C022AA7DBAF2
:1050E0000000494022AA7D3A2DAD65BD8FB8D53D5F
:1050F0000FB511BE61C84C3EA8AAAABE0000804FE1
:105100000000802F10B510EE104A4FF0194068498A
:10511000002200EB44002DED028B884257D8DFEDD2
:10512000650A14F0004F60EE200A14BFBEEE001AAC
:10513000B6EE001A71EE200AFDEEE00A10EE900ABB
:1051400000EE900AF8EEE00A9FED5B1A00EEC10A4D
:105150009FED5A1A00EEC10ADFED590A9FED591A68
:1051600000EE201ADFED580A40EE010A9FED571AB3
:10517000574B00F0030100EE201A21EE000A7B4499
:1051800003EB8103D3ED000A524B7B4403EB810315
:1051900093ED001A504B41EE000A7B4403EB810172
:1051A000801091ED000A70EE800AEABB00EE100A52
:1051B000B8EEC01ADFED491A9FED490ABDEC028B2B
:1051C00001EE210ABCEEC00A20EE200A10BD4FF00D
:1051D000FF40A0431BD04FF0CE40B0EB440F82BF46
:1051E000B7EE000ABDEC028B10BD3E48B0EB440F99
:1051F00028BF012293D2022000F0C6F814F0004F1D
:1052000015D0BDEC028BBDE8104000F0A5B814F538
:10521000000F02BF9FED340ABDEC028B10BDBDEC48
:10522000028BBDE8104000E007E000F086B8BDEC5E
:10523000028BBDE8104000F087B800EBD073591026
:105240004FF07E5202EBC15100EE101AA0EB63004A
:1052500002EBC05060EE200A00EE100A20EE208A19
:1052600018EE100A88B118EE100AB0F1FF4F15D0F1
:1052700018EE100AFFF7CCFD042808BF00F06CF808
:10528000B0EE480ABDEC028B10BD022000F07CF8A5
:10529000BDEC028BBDE8104000F05EB8022000F0CB
:1052A00073F8BDEC028BBDE8104000F04DB8000073
:1052B0000000501E3BAAB8400070313EF4FD053797
:1052C00012BB2A3D12BB2A3EFFFFFF3EFFFF7F3F7E
:1052D0002E1F0000321F0000021F00000000004BC4
:1052E00000007E4E0000A085000000002DED020BA6
:1052F000019820F0004001909DED000B02B0704736
:1053000010B52DED028BB1EEC08A18EE100A20F018
:105310000040C0F1FF40C00F0AD010EE100A20F08C
:105320000040C0F1FF40C00F04BF012000F02CF886
:10533000B0EE480ABDEC028B10BD30EE000A70479B
:1053400030EE200A704700009FED020A20EE000AAE
:1053500070470000000000709FED020A20EE000A76
:10536000704700000000001002E008C8121F08C1CA
:10537000002AFAD170477047002001E001C1121FD6
:10538000002AFBD170470000014908607047000007
:10539000980000202DE9FF5F82B00021DDE9043094
:1053A000020DDDF840B0034318D044F61050A2F2CD
:1053B000FF3242431514119801281FD0A5EB0B00B2
:1053C000401C5FEA000A4FF000064E4FDFF83891AC
:1053D000B046504615D5CAF1000413E011980124D7
:1053E0004AA3012801D16FEA0B010298119AC0E982
:1053F0000031C0E9024206B0BDE8F09FCBF10000E9
:10540000DFE704460021404A491842EB0450CDE949
:10541000001012E0E00707D032463B4640464946BE
:10542000FBF785F98046894632463B4610461946C9
:10543000FBF77DF906460F466410002CEAD1DDE942
:105440000401DDE90023BAF1000F06DAFBF76FF97A
:1054500042464B46FBF76BF905E0FAF7D7FF4246A9
:105460004B46FAF7D3FF04460E460022284BFBF7C3
:105470004FF803D84FF0FF30014607E00022254BDC
:1054800020463146FAF71BFFFBF7C3F9102409E069
:10549000002C0ADB0A220023FAF7BCFE039B303201
:1054A0001A55641E50EA0102F2D1641C039AC4F139
:1054B00011031444119A012A03D0012208430DD18B
:1054C0000AE0084304D000204FF0110B119072E75E
:1054D000A3EB0B056D1E0DE05B4504DD4FF00002F4
:1054E00005F1010504E003DA4FF00002A5F1010522
:1054F000002AECD002981199C0E90231C0E90045B8
:1055000079E70000000014400000F03F3000000088
:105510000000F0430000E03F2DE9FF4F95B09A46B0
:10552000884606460025EEE1252877D10024274647
:10553000F94A0121039400E0044316F8013F203B9F
:1055400001FA03F01042F7D130782A2811D06FF019
:105550002F033078A0F13002092A16D8039A44F0BC
:10556000020402EB820203EB42021044761C039019
:10557000EFE758F8042B0392002A03DA504244F470
:105580000054039044F00204761C30782E2816D183
:1055900016F8010F44F004042A280DD06FF02F02F2
:1055A0003078A0F13003092B09D807EB870302EB11
:1055B0004303C718761CF3E758F8047B761C307851
:1055C0006C280FD006DC4C2817D068280DD06A282C
:1055D00014D104E0742810D07A280FD10DE044F4DF
:1055E00000140AE044F4801401E044F4401472789A
:1055F000824202D104F58014761C761C307866282D
:105600000BD013DC582877D009DC002875D045284A
:10561000F6D04628F4D047281AD193E118E0632841
:1056200035D0642879D0652812D18BE1702873D0E9
:1056300008DC6728F1D069286FD06E280DD06F285C
:1056400006D1ACE073282CD0752874D0782853D0BC
:105650005246179990476D1C54E1C4F3025002283A
:1056600009D003280DD0D8F8001004280DD00D6003
:1056700008F1040846E1D8F80010EA17C1E9005221
:10568000F6E7D8F800100D80F2E70D70F0E718F893
:10569000041B8DF8001000208DF80100EB4601205E
:1056A00003E058F804BB4FF0FF3061074FF00001F2
:1056B00002D40DE009F101018946B9420FDA8145B2
:1056C000F8DB1BF809100029F4D108E009F1010109
:1056D00089468142FADB1BF809100029F6D10398AC
:1056E0005346A0EB090721463846179A00F080FA86
:1056F000284400EB090507E044E008E10DE01BF851
:10570000010B524617999047B9F10109F7D2534658
:1057100021463846179AF2E039E00A21C4F30252D2
:105720004FF0000B0091022A06D058F8040BC11765
:10573000032A09D00AE023E008F1070020F007025D
:10574000F2E80201904605E000B2C117042A01D137
:1057500040B2C117002906DA0A460021404261EB37
:1057600002012D2202E0220504D52B228DF804200F
:10577000012203E0E20701D02022F7E7914657E03B
:105780000A2100E010214FF0000B00910BE01021E6
:105790004FF0000B44F004040827009103E00820B8
:1057A0004FF0000B0090C4F30252022A05D058F8C3
:1057B000040B0021032A08D008E008F1070020F0BC
:1057C0000702F2E80201904603E080B2042A00D109
:1057D000C0B24FF0000922072AD53278702A07D0CC
:1057E000DDF800C08CF0100C5CEA0B0C05D00EE06C
:1057F00040228DF80420012208E050EA010306D07F
:1058000030238DF804308DF8052002229146009B4C
:1058100083F0080353EA0B030AD150EA010201D1D5
:10582000620705D530228DF804204FF001097F1E54
:105830003278582A04D039A20C920CAA02920BE0BA
:105840003BA2F9E75B46009AFAF7E4FC0C9B9B5CF1
:10585000029A521E0292137050EA0102F2D102988B
:1058600004A9081A00F1200B600702D524F4803443
:1058700000E001275F4502DDA7EB0B0000E0002000
:1058800000EB0B01009003984944401A0390E00399
:1058900006D453462146179A039800F0A9F9054407
:1058A000002706E001A85246C05D179990476D1C7D
:1058B0007F1C4F45F6DBE0030CD553462146179A73
:1058C000039800F095F9054404E0302052461799FA
:1058D00090476D1C0099481E00900029F5DC08E0F7
:1058E0000298029952460078491C029117999047F4
:1058F0006D1CBBF10001ABF1010BF1DC5BE100F0D1
:1059000065F90544761C307800287FF40DAE19B097
:105910002846BDE8F08F00000928010030313233FD
:1059200034353637383961626364656600000000DB
:1059300030313233343536373839414243444546C5
:1059400000000000600700D4062708F1070020F0DF
:105950000700F0E80223804603F0004C5FEA0C00E9
:1059600001D097A009E0200501D596A005E0E00749
:1059700001D095A001E0AFF24C001390307823F0F5
:10598000004365280CD006DC452809D046281DD0E8
:1059900047287FD13BE0662818D067287AD136E0C7
:1059A0000021112F01DB112000E0781CCDE900015E
:1059B00004A90CA8FFF7EEFCDDE90D010C9A4FF0ED
:1059C000000B07F10109109200914EE04FF00040EA
:1059D0000097CDE9011004A90CA8FFF7DBFCDDE975
:1059E0000D020C9B0F994FF0000B91461093009203
:1059F00011B9791C00EB0109B7EB090003D4C0F120
:105A0000FF3B07F10109A9EB0700019042E0012FDC
:105A100000DA01270021112F01DD112000E03846B6
:105A2000CDE9000104A90CA8FFF7B4FCDDE90D01E4
:105A30000C9A00914FF0000BB946109221070FD439
:105A4000009A4A4503DA914601E0A9F10109B9F14A
:105A5000010F05DD109AA9F10101515C3029F4D044
:105A6000B84202DA10F1040F03DA0121CDE9011086
:105A700010E0002803DC8344A9EB000102E0411C94
:105A8000494500DD8946A0EB0B00401C01904FF01A
:105A900000400290200705D40198484502DB4FF0F2
:105AA000FF30019000208DF84B0002980DF14B075C
:105AB000B0F1004F25D002200C902B200D900298C1
:105AC00000280CDA404202902D200D9007E00A21B8
:105AD0000298FAF751FD3031029007F8011D0C9938
